{"contracts/NFTAuction.sol":{"NFTAuction":{"abi":[{"inputs":[{"internalType":"address","name":"transferFundsAddress","type":"address"}],"stateMutability":"nonpayable","type":"constructor"},{"anonymous":false,"inputs":[{"indexed":true,"internalType":"uint256","name":"tokenId","type":"uint256"},{"indexed":false,"internalType":"address","name":"bidder","type":"address"},{"indexed":false,"internalType":"uint256","name":"price","type":"uint256"}],"name":"OfferAccepted","type":"event"},{"anonymous":false,"inputs":[{"indexed":true,"internalType":"uint256","name":"tokenId","type":"uint256"},{"indexed":false,"internalType":"address","name":"bidder","type":"address"}],"name":"OfferCanceled","type":"event"},{"anonymous":false,"inputs":[{"indexed":true,"internalType":"uint256","name":"tokenId","type":"uint256"},{"indexed":false,"internalType":"address","name":"bidder","type":"address"},{"indexed":false,"internalType":"uint256","name":"price","type":"uint256"},{"indexed":false,"internalType":"uint256","name":"timestamp","type":"uint256"}],"name":"OfferMade","type":"event"},{"anonymous":false,"inputs":[{"indexed":true,"internalType":"uint256","name":"tokenId","type":"uint256"},{"indexed":false,"internalType":"uint256","name":"count","type":"uint256"}],"name":"OffersExpired","type":"event"},{"stateMutability":"payable","type":"fallback"},{"inputs":[{"internalType":"uint256","name":"tokenId","type":"uint256"}],"name":"acceptOffer","outputs":[],"stateMutability":"nonpayable","type":"function"},{"inputs":[{"internalType":"uint256","name":"tokenId","type":"uint256"}],"name":"cancelAllOffers","outputs":[],"stateMutability":"nonpayable","type":"function"},{"inputs":[{"internalType":"uint256","name":"tokenId","type":"uint256"}],"name":"getHighestBidder","outputs":[{"internalType":"address","name":"","type":"address"},{"internalType":"uint256","name":"","type":"uint256"}],"stateMutability":"view","type":"function"},{"inputs":[{"internalType":"uint256","name":"tokenId","type":"uint256"}],"name":"getOffers","outputs":[{"components":[{"internalType":"address payable","name":"bidder","type":"address"},{"internalType":"uint256","name":"price","type":"uint256"},{"internalType":"uint256","name":"timestamp","type":"uint256"},{"internalType":"bool","name":"active","type":"bool"}],"internalType":"struct NFTAuction.Offer[]","name":"","type":"tuple[]"}],"stateMutability":"view","type":"function"},{"inputs":[{"internalType":"address payable","name":"seller","type":"address"},{"internalType":"uint256","name":"highestPrice","type":"uint256"}],"name":"handleFundTransfer","outputs":[],"stateMutability":"nonpayable","type":"function"},{"inputs":[{"internalType":"uint256","name":"tokenId","type":"uint256"},{"internalType":"uint256","name":"price","type":"uint256"},{"internalType":"uint256","name":"timestamp","type":"uint256"}],"name":"makeOffer","outputs":[],"stateMutability":"payable","type":"function"},{"inputs":[{"internalType":"uint256","name":"","type":"uint256"},{"internalType":"uint256","name":"","type":"uint256"}],"name":"tokenIdToOffers","outputs":[{"internalType":"address payable","name":"bidder","type":"address"},{"internalType":"uint256","name":"price","type":"uint256"},{"internalType":"uint256","name":"timestamp","type":"uint256"},{"internalType":"bool","name":"active","type":"bool"}],"stateMutability":"view","type":"function"},{"inputs":[{"internalType":"uint256","name":"tokenId","type":"uint256"}],"name":"unmakeOffer","outputs":[],"stateMutability":"nonpayable","type":"function"},{"stateMutability":"payable","type":"receive"}],"evm":{"bytecode":{"linkReferences":{},"object":"608060405234801561001057600080fd5b5060405161190638038061190683398101604081905261002f91610059565b6001600055600380546001600160a01b0319166001600160a01b0392909216919091179055610089565b60006020828403121561006b57600080fd5b81516001600160a01b038116811461008257600080fd5b9392505050565b61186e806100986000396000f3fe60806040526004361061006f5760003560e01c80635be910a11461019e5780636b50872b146101be5780637795960b1461020f578063c574f8241461022f578063c750cb791461024f578063c815729d1461027d578063dfa49e6f1461029d578063e210a72d146102ca5761011a565b3661011a5760035460405163ebff361b60e01b815230600482015234602482015260606044820152602760648201527f44697265637420455448207472616e7366657220746f2061756374696f6e20636084820152661bdb9d1c9858dd60ca1b60a48201526001600160a01b039091169063ebff361b9060c4015b600060405180830381600087803b15801561010457600080fd5b505af1158015610118573d6000803e3d6000fd5b005b60035460405163ebff361b60e01b815230600482015234602482015260606044820152603160648201527f46616c6c6261636b3a2044697265637420455448207472616e7366657220746f60848201527008185d58dd1a5bdb8818dbdb9d1c9858dd607a1b60a48201526001600160a01b039091169063ebff361b9060c4016100ea565b3480156101aa57600080fd5b506101186101b936600461147a565b6102dd565b3480156101ca57600080fd5b506101de6101d93660046114b2565b61042d565b604080516001600160a01b039095168552602085019390935291830152151560608201526080015b60405180910390f35b34801561021b57600080fd5b5061011861022a3660046114d4565b610480565b34801561023b57600080fd5b5061011861024a3660046114d4565b6106d0565b34801561025b57600080fd5b5061026f61026a3660046114d4565b6108be565b6040516102069291906114ed565b34801561028957600080fd5b506101186102983660046114d4565b61099f565b3480156102a957600080fd5b506102bd6102b83660046114d4565b610dd1565b6040516102069190611506565b6101186102d8366004611575565b610e73565b6102e5611039565b60035460408051735061796d656e7420666f72204e46542073616c6560601b602082015281516014818303018152603482019283905263ebff361b60e01b9092526001600160a01b039092169163ebff361b9161034891869186916038016115c5565b600060405180830381600087803b15801561036257600080fd5b505af1158015610376573d6000803e3d6000fd5b505050506000826001600160a01b03168260405160006040518083038185875af1925050503d80600081146103c7576040519150601f19603f3d011682016040523d82523d6000602084013e6103cc565b606091505b505090508061041e5760405162461bcd60e51b8152602060048201526019602482015278151c985b9cd9995c881d1bc81cd95b1b195c8819985a5b1959603a1b60448201526064015b60405180910390fd5b506104296001600055565b5050565b6001602052816000526040600020818154811061044957600080fd5b600091825260209091206004909102018054600182015460028301546003909301546001600160a01b039092169450925060ff1684565b610488611039565b600081815260016020526040812090805b8254811015610686578281815481106104b4576104b461160e565b600091825260209091206003600490920201015460ff161561067e5760008382815481106104e4576104e461160e565b600091825260209091206004909102016003908101805460ff1916921515929092179091555483546001600160a01b039091169063ebff361b908590849081106105305761053061160e565b600091825260209091206004909102015485546001600160a01b03909116908690859081106105615761056161160e565b90600052602060002090600402016001015461057c88611092565b60405160200161058c9190611624565b6040516020818303038152906040526040518463ffffffff1660e01b81526004016105b9939291906115c5565b600060405180830381600087803b1580156105d357600080fd5b505af11580156105e7573d6000803e3d6000fd5b505050508281815481106105fd576105fd61160e565b600091825260209091206004909102015483546001600160a01b03909116906108fc908590849081106106325761063261160e565b9060005260206000209060040201600101549081150290604051600060405180830381858888f1935050505015801561066f573d6000803e3d6000fd5b508161067a81611694565b9250505b600101610499565b50827fbef7792bfc8beaecc64e4fdedb074eec4c2d2bfcfe36c9b05085f8ac8359d9e0826040516106b991815260200190565b60405180910390a250506106cd6001600055565b50565b6106d8611039565b60008181526001602052604081209080805b83548110156108635760008482815481106107075761070761160e565b6000918252602090912060049091020180549091506001600160a01b0316331480156107375750600381015460ff165b1561085a576003808201805460ff191690556001820154905482549194506001600160a01b039081169163ebff361b9116856107728a611092565b60405160200161078291906116ad565b6040516020818303038152906040526040518463ffffffff1660e01b81526004016107af939291906115c5565b600060405180830381600087803b1580156107c957600080fd5b505af11580156107dd573d6000803e3d6000fd5b505082546040516001600160a01b03909116925085156108fc02915085906000818181858888f1935050505015801561081a573d6000803e3d6000fd5b5060405133815286907f9a4dfa8787b349e9b45b60504f991c5c9f9cda8dadabdc8e4a3f4cb8608220a39060200160405180910390a26001935050610863565b506001016106ea565b50816108b15760405162461bcd60e51b815260206004820181905260248201527f4e6f20616374697665206f6666657220666f756e6420666f722063616c6c65726044820152606401610415565b5050506106cd6001600055565b600081815260016020526040812081908180805b8354811015610994578381815481106108ed576108ed61160e565b600091825260209091206003600490920201015460ff16801561093257508284828154811061091e5761091e61160e565b906000526020600020906004020160010154115b1561098c578381815481106109495761094961160e565b906000526020600020906004020160010154925083818154811061096f5761096f61160e565b60009182526020909120600490910201546001600160a01b031691505b6001016108d2565b509590945092505050565b6109a7611039565b600081815260016020526040902080546109f95760405162461bcd60e51b81526020600482015260136024820152724e6f206f666665727320617661696c61626c6560681b6044820152606401610415565b610a028261119b565b60008060005b8354811015610a9f57838181548110610a2357610a2361160e565b600091825260209091206003600490920201015460ff168015610a68575081848281548110610a5457610a5461160e565b906000526020600020906004020160010154115b15610a9757838181548110610a7f57610a7f61160e565b90600052602060002090600402016001015491508092505b600101610a08565b506000838381548110610ab457610ab461160e565b60009182526020909120600490910201600381015490915060ff16610b195760405162461bcd60e51b815260206004820152601b60248201527a48696768657374206f66666572206973206e6f742061637469766560281b6044820152606401610415565b80546001600160a01b0316610b7c5760405162461bcd60e51b8152602060048201526024808201527f48696768657374206f6666657220626964646572206973207a65726f206164646044820152637265737360e01b6064820152608401610415565b60038101805460ff1916905560005b8454811015610d7757838114158015610bc95750848181548110610bb157610bb161160e565b600091825260209091206003600490920201015460ff165b15610d6f576000858281548110610be257610be261160e565b600091825260209091206004909102016003908101805460ff1916921515929092179091555485546001600160a01b039091169063ebff361b90879084908110610c2e57610c2e61160e565b600091825260209091206004909102015487546001600160a01b0390911690889085908110610c5f57610c5f61160e565b906000526020600020906004020160010154610c7a8a611092565b604051602001610c8a91906116ee565b6040516020818303038152906040526040518463ffffffff1660e01b8152600401610cb7939291906115c5565b600060405180830381600087803b158015610cd157600080fd5b505af1158015610ce5573d6000803e3d6000fd5b50505050848181548110610cfb57610cfb61160e565b600091825260209091206004909102015485546001600160a01b03909116906108fc90879084908110610d3057610d3061160e565b9060005260206000209060040201600101549081150290604051600060405180830381858888f19350505050158015610d6d573d6000803e3d6000fd5b505b600101610b8b565b508054600182015460405187927fea555ab99331ceac5051c58f17cc7b411b30241b0e28cb93a7d3a24c77a7a9a992610dbb926001600160a01b03909216916114ed565b60405180910390a2505050506106cd6001600055565b606060016000838152602001908152602001600020805480602002602001604051908101604052809291908181526020016000905b82821015610e68576000848152602090819020604080516080810182526004860290920180546001600160a01b03168352600180820154848601526002820154928401929092526003015460ff16151560608301529083529092019101610e06565b505050509050919050565b610e7b611039565b813414610ed85760405162461bcd60e51b815260206004820152602560248201527f45746865722073656e74206d75737420657175616c20746865206f6666657220604482015264707269636560d81b6064820152608401610415565b610ee18361119b565b60408051608081018252338152602080820185815282840185815260016060850181815260008a81528286529687208054808401825590885294909620855160049095020180546001600160a01b0319166001600160a01b0395861617815592519083015551600282015592516003938401805460ff1916911515919091179055915490911663ebff361b3085610f7788611092565b604051602001610f87919061172e565b6040516020818303038152906040526040518463ffffffff1660e01b8152600401610fb4939291906115c5565b600060405180830381600087803b158015610fce57600080fd5b505af1158015610fe2573d6000803e3d6000fd5b505060408051338152602081018790529081018590528692507fd7df0c72641d362ea57ecc9cab99c77f936e36bb826f096258c3404196b26d6a915060600160405180910390a2506110346001600055565b505050565b60026000540361108b5760405162461bcd60e51b815260206004820152601f60248201527f5265656e7472616e637947756172643a207265656e7472616e742063616c6c006044820152606401610415565b6002600055565b6060816000036110b95750506040805180820190915260018152600360fc1b602082015290565b8160005b81156110e357806110cd81611694565b91506110dc9050600a83611780565b91506110bd565b60008167ffffffffffffffff8111156110fe576110fe611794565b6040519080825280601f01601f191660200182016040528015611128576020820181803683370190505b5090505b84156111935761113d6001836117aa565b915061114a600a866117bd565b6111559060306117d1565b60f81b81838151811061116a5761116a61160e565b60200101906001600160f81b031916908160001a90535061118c600a86611780565b945061112c565b949350505050565b6000818152600160205260408120904290805b8354811015611411578381815481106111c9576111c961160e565b600091825260209091206003600490920201015460ff168015611256575061125361122160028684815481106112015761120161160e565b90600052602060002090600402016002015461145990919063ffffffff16565b8583815481106112335761123361160e565b90600052602060002090600402016002015461146e90919063ffffffff16565b83115b1561140957600084828154811061126f5761126f61160e565b600091825260209091206004909102016003908101805460ff1916921515929092179091555484546001600160a01b039091169063ebff361b908690849081106112bb576112bb61160e565b600091825260209091206004909102015486546001600160a01b03909116908790859081106112ec576112ec61160e565b90600052602060002090600402016001015461130789611092565b60405160200161131791906117e4565b6040516020818303038152906040526040518463ffffffff1660e01b8152600401611344939291906115c5565b600060405180830381600087803b15801561135e57600080fd5b505af1158015611372573d6000803e3d6000fd5b505050508381815481106113885761138861160e565b600091825260209091206004909102015484546001600160a01b03909116906108fc908690849081106113bd576113bd61160e565b9060005260206000209060040201600101549081150290604051600060405180830381858888f193505050501580156113fa573d6000803e3d6000fd5b508161140581611694565b9250505b6001016111ae565b50801561145357837fbef7792bfc8beaecc64e4fdedb074eec4c2d2bfcfe36c9b05085f8ac8359d9e08260405161144a91815260200190565b60405180910390a25b50505050565b60006114658284611780565b90505b92915050565b600061146582846117d1565b6000806040838503121561148d57600080fd5b82356001600160a01b03811681146114a457600080fd5b946020939093013593505050565b600080604083850312156114c557600080fd5b50508035926020909101359150565b6000602082840312156114e657600080fd5b5035919050565b6001600160a01b03929092168252602082015260400190565b602080825282518282018190526000919060409081850190868401855b8281101561156857815180516001600160a01b031685528681015187860152858101518686015260609081015115159085015260809093019290850190600101611523565b5091979650505050505050565b60008060006060848603121561158a57600080fd5b505081359360208301359350604090920135919050565b60005b838110156115bc5781810151838201526020016115a4565b50506000910152565b60018060a01b038416815282602082015260606040820152600082518060608401526115f88160808501602087016115a1565b601f01601f191691909101608001949350505050565b634e487b7160e01b600052603260045260246000fd5b7f4f6666657220726566756e6465642064756520746f2063616e63656c6c61746981526b6f6e20666f72204e4654202360a01b60208201526000825161167181602c8501602087016115a1565b91909101602c0192915050565b634e487b7160e01b600052601160045260246000fd5b6000600182016116a6576116a661167e565b5060010190565b784f666665722063616e63656c6c656420666f72204e4654202360381b8152600082516116e18160198501602087016115a1565b9190910160190192915050565b774f6666657220726566756e64656420666f72204e4654202360401b8152600082516117218160188501602087016115a1565b9190910160180192915050565b734f66666572206d61646520666f72204e4654202360601b81526000825161175d8160148501602087016115a1565b9190910160140192915050565b634e487b7160e01b600052601260045260246000fd5b60008261178f5761178f61176a565b500490565b634e487b7160e01b600052604160045260246000fd5b818103818111156114685761146861167e565b6000826117cc576117cc61176a565b500690565b808201808211156114685761146861167e565b7f4f6666657220726566756e6465642064756520746f2065787069727920666f72815265204e4654202360d01b60208201526000825161182b8160268501602087016115a1565b919091016026019291505056fea264697066735822122085b24755934ec5ead93a4eb44c09154a857e520461b1cfbd4c54df1e6efe0b4a64736f6c63430008180033","opcodes":"PUSH1 0x80 PUSH1 0x40 MSTORE CALLVALUE DUP1 ISZERO PUSH2 0x10 JUMPI PUSH1 0x0 DUP1 REVERT JUMPDEST POP PUSH1 0x40 MLOAD PUSH2 0x1906 CODESIZE SUB DUP1 PUSH2 0x1906 DUP4 CODECOPY DUP2 ADD PUSH1 0x40 DUP2 SWAP1 MSTORE PUSH2 0x2F SWAP2 PUSH2 0x59 JUMP JUMPDEST PUSH1 0x1 PUSH1 0x0 SSTORE PUSH1 0x3 DUP1 SLOAD PUSH1 0x1 PUSH1 0x1 PUSH1 0xA0 SHL SUB NOT AND PUSH1 0x1 PUSH1 0x1 PUSH1 0xA0 SHL SUB SWAP3 SWAP1 SWAP3 AND SWAP2 SWAP1 SWAP2 OR SWAP1 SSTORE PUSH2 0x89 JUMP JUMPDEST PUSH1 0x0 PUSH1 0x20 DUP3 DUP5 SUB SLT ISZERO PUSH2 0x6B JUMPI PUSH1 0x0 DUP1 REVERT JUMPDEST DUP2 MLOAD PUSH1 0x1 PUSH1 0x1 PUSH1 0xA0 SHL SUB DUP2 AND DUP2 EQ PUSH2 0x82 JUMPI PUSH1 0x0 DUP1 REVERT JUMPDEST SWAP4 SWAP3 POP POP POP JUMP JUMPDEST PUSH2 0x186E DUP1 PUSH2 0x98 PUSH1 0x0 CODECOPY PUSH1 0x0 RETURN INVALID PUSH1 0x80 PUSH1 0x40 MSTORE PUSH1 0x4 CALLDATASIZE LT PUSH2 0x6F JUMPI PUSH1 0x0 CALLDATALOAD PUSH1 0xE0 SHR DUP1 PUSH4 0x5BE910A1 EQ PUSH2 0x19E JUMPI DUP1 PUSH4 0x6B50872B EQ PUSH2 0x1BE JUMPI DUP1 PUSH4 0x7795960B EQ PUSH2 0x20F JUMPI DUP1 PUSH4 0xC574F824 EQ PUSH2 0x22F JUMPI DUP1 PUSH4 0xC750CB79 EQ PUSH2 0x24F JUMPI DUP1 PUSH4 0xC815729D EQ PUSH2 0x27D JUMPI DUP1 PUSH4 0xDFA49E6F EQ PUSH2 0x29D JUMPI DUP1 PUSH4 0xE210A72D EQ PUSH2 0x2CA JUMPI PUSH2 0x11A JUMP JUMPDEST CALLDATASIZE PUSH2 0x11A JUMPI PUSH1 0x3 SLOAD PUSH1 0x40 MLOAD PUSH4 0xEBFF361B PUSH1 0xE0 SHL DUP2 MSTORE ADDRESS PUSH1 0x4 DUP3 ADD MSTORE CALLVALUE PUSH1 0x24 DUP3 ADD MSTORE PUSH1 0x60 PUSH1 0x44 DUP3 ADD MSTORE PUSH1 0x27 PUSH1 0x64 DUP3 ADD MSTORE PUSH32 0x44697265637420455448207472616E7366657220746F2061756374696F6E2063 PUSH1 0x84 DUP3 ADD MSTORE PUSH7 0x1BDB9D1C9858DD PUSH1 0xCA SHL PUSH1 0xA4 DUP3 ADD MSTORE PUSH1 0x1 PUSH1 0x1 PUSH1 0xA0 SHL SUB SWAP1 SWAP2 AND SWAP1 PUSH4 0xEBFF361B SWAP1 PUSH1 0xC4 ADD JUMPDEST PUSH1 0x0 PUSH1 0x40 MLOAD DUP1 DUP4 SUB DUP2 PUSH1 0x0 DUP8 DUP1 EXTCODESIZE ISZERO DUP1 ISZERO PUSH2 0x104 JUMPI PUSH1 0x0 DUP1 REVERT JUMPDEST POP GAS CALL ISZERO DUP1 ISZERO PUSH2 0x118 JUMPI RETURNDATASIZE PUSH1 0x0 DUP1 RETURNDATACOPY RETURNDATASIZE PUSH1 0x0 REVERT JUMPDEST STOP JUMPDEST PUSH1 0x3 SLOAD PUSH1 0x40 MLOAD PUSH4 0xEBFF361B PUSH1 0xE0 SHL DUP2 MSTORE ADDRESS PUSH1 0x4 DUP3 ADD MSTORE CALLVALUE PUSH1 0x24 DUP3 ADD MSTORE PUSH1 0x60 PUSH1 0x44 DUP3 ADD MSTORE PUSH1 0x31 PUSH1 0x64 DUP3 ADD MSTORE PUSH32 0x46616C6C6261636B3A2044697265637420455448207472616E7366657220746F PUSH1 0x84 DUP3 ADD MSTORE PUSH17 0x8185D58DD1A5BDB8818DBDB9D1C9858DD PUSH1 0x7A SHL PUSH1 0xA4 DUP3 ADD MSTORE PUSH1 0x1 PUSH1 0x1 PUSH1 0xA0 SHL SUB SWAP1 SWAP2 AND SWAP1 PUSH4 0xEBFF361B SWAP1 PUSH1 0xC4 ADD PUSH2 0xEA JUMP JUMPDEST CALLVALUE DUP1 ISZERO PUSH2 0x1AA JUMPI PUSH1 0x0 DUP1 REVERT JUMPDEST POP PUSH2 0x118 PUSH2 0x1B9 CALLDATASIZE PUSH1 0x4 PUSH2 0x147A JUMP JUMPDEST PUSH2 0x2DD JUMP JUMPDEST CALLVALUE DUP1 ISZERO PUSH2 0x1CA JUMPI PUSH1 0x0 DUP1 REVERT JUMPDEST POP PUSH2 0x1DE PUSH2 0x1D9 CALLDATASIZE PUSH1 0x4 PUSH2 0x14B2 JUMP JUMPDEST PUSH2 0x42D JUMP JUMPDEST PUSH1 0x40 DUP1 MLOAD PUSH1 0x1 PUSH1 0x1 PUSH1 0xA0 SHL SUB SWAP1 SWAP6 AND DUP6 MSTORE PUSH1 0x20 DUP6 ADD SWAP4 SWAP1 SWAP4 MSTORE SWAP2 DUP4 ADD MSTORE ISZERO ISZERO PUSH1 0x60 DUP3 ADD MSTORE PUSH1 0x80 ADD JUMPDEST PUSH1 0x40 MLOAD DUP1 SWAP2 SUB SWAP1 RETURN JUMPDEST CALLVALUE DUP1 ISZERO PUSH2 0x21B JUMPI PUSH1 0x0 DUP1 REVERT JUMPDEST POP PUSH2 0x118 PUSH2 0x22A CALLDATASIZE PUSH1 0x4 PUSH2 0x14D4 JUMP JUMPDEST PUSH2 0x480 JUMP JUMPDEST CALLVALUE DUP1 ISZERO PUSH2 0x23B JUMPI PUSH1 0x0 DUP1 REVERT JUMPDEST POP PUSH2 0x118 PUSH2 0x24A CALLDATASIZE PUSH1 0x4 PUSH2 0x14D4 JUMP JUMPDEST PUSH2 0x6D0 JUMP JUMPDEST CALLVALUE DUP1 ISZERO PUSH2 0x25B JUMPI PUSH1 0x0 DUP1 REVERT JUMPDEST POP PUSH2 0x26F PUSH2 0x26A CALLDATASIZE PUSH1 0x4 PUSH2 0x14D4 JUMP JUMPDEST PUSH2 0x8BE JUMP JUMPDEST PUSH1 0x40 MLOAD PUSH2 0x206 SWAP3 SWAP2 SWAP1 PUSH2 0x14ED JUMP JUMPDEST CALLVALUE DUP1 ISZERO PUSH2 0x289 JUMPI PUSH1 0x0 DUP1 REVERT JUMPDEST POP PUSH2 0x118 PUSH2 0x298 CALLDATASIZE PUSH1 0x4 PUSH2 0x14D4 JUMP JUMPDEST PUSH2 0x99F JUMP JUMPDEST CALLVALUE DUP1 ISZERO PUSH2 0x2A9 JUMPI PUSH1 0x0 DUP1 REVERT JUMPDEST POP PUSH2 0x2BD PUSH2 0x2B8 CALLDATASIZE PUSH1 0x4 PUSH2 0x14D4 JUMP JUMPDEST PUSH2 0xDD1 JUMP JUMPDEST PUSH1 0x40 MLOAD PUSH2 0x206 SWAP2 SWAP1 PUSH2 0x1506 JUMP JUMPDEST PUSH2 0x118 PUSH2 0x2D8 CALLDATASIZE PUSH1 0x4 PUSH2 0x1575 JUMP JUMPDEST PUSH2 0xE73 JUMP JUMPDEST PUSH2 0x2E5 PUSH2 0x1039 JUMP JUMPDEST PUSH1 0x3 SLOAD PUSH1 0x40 DUP1 MLOAD PUSH20 0x5061796D656E7420666F72204E46542073616C65 PUSH1 0x60 SHL PUSH1 0x20 DUP3 ADD MSTORE DUP2 MLOAD PUSH1 0x14 DUP2 DUP4 SUB ADD DUP2 MSTORE PUSH1 0x34 DUP3 ADD SWAP3 DUP4 SWAP1 MSTORE PUSH4 0xEBFF361B PUSH1 0xE0 SHL SWAP1 SWAP3 MSTORE PUSH1 0x1 PUSH1 0x1 PUSH1 0xA0 SHL SUB SWAP1 SWAP3 AND SWAP2 PUSH4 0xEBFF361B SWAP2 PUSH2 0x348 SWAP2 DUP7 SWAP2 DUP7 SWAP2 PUSH1 0x38 ADD PUSH2 0x15C5 JUMP JUMPDEST PUSH1 0x0 PUSH1 0x40 MLOAD DUP1 DUP4 SUB DUP2 PUSH1 0x0 DUP8 DUP1 EXTCODESIZE ISZERO DUP1 ISZERO PUSH2 0x362 JUMPI PUSH1 0x0 DUP1 REVERT JUMPDEST POP GAS CALL ISZERO DUP1 ISZERO PUSH2 0x376 JUMPI RETURNDATASIZE PUSH1 0x0 DUP1 RETURNDATACOPY RETURNDATASIZE PUSH1 0x0 REVERT JUMPDEST POP POP POP POP PUSH1 0x0 DUP3 PUSH1 0x1 PUSH1 0x1 PUSH1 0xA0 SHL SUB AND DUP3 PUSH1 0x40 MLOAD PUSH1 0x0 PUSH1 0x40 MLOAD DUP1 DUP4 SUB DUP2 DUP6 DUP8 GAS CALL SWAP3 POP POP POP RETURNDATASIZE DUP1 PUSH1 0x0 DUP2 EQ PUSH2 0x3C7 JUMPI PUSH1 0x40 MLOAD SWAP2 POP PUSH1 0x1F NOT PUSH1 0x3F RETURNDATASIZE ADD AND DUP3 ADD PUSH1 0x40 MSTORE RETURNDATASIZE DUP3 MSTORE RETURNDATASIZE PUSH1 0x0 PUSH1 0x20 DUP5 ADD RETURNDATACOPY PUSH2 0x3CC JUMP JUMPDEST PUSH1 0x60 SWAP2 POP JUMPDEST POP POP SWAP1 POP DUP1 PUSH2 0x41E JUMPI PUSH1 0x40 MLOAD PUSH3 0x461BCD PUSH1 0xE5 SHL DUP2 MSTORE PUSH1 0x20 PUSH1 0x4 DUP3 ADD MSTORE PUSH1 0x19 PUSH1 0x24 DUP3 ADD MSTORE PUSH25 0x151C985B9CD9995C881D1BC81CD95B1B195C8819985A5B1959 PUSH1 0x3A SHL PUSH1 0x44 DUP3 ADD MSTORE PUSH1 0x64 ADD JUMPDEST PUSH1 0x40 MLOAD DUP1 SWAP2 SUB SWAP1 REVERT JUMPDEST POP PUSH2 0x429 PUSH1 0x1 PUSH1 0x0 SSTORE JUMP JUMPDEST POP POP JUMP JUMPDEST PUSH1 0x1 PUSH1 0x20 MSTORE DUP2 PUSH1 0x0 MSTORE PUSH1 0x40 PUSH1 0x0 KECCAK256 DUP2 DUP2 SLOAD DUP2 LT PUSH2 0x449 JUMPI PUSH1 0x0 DUP1 REVERT JUMPDEST PUSH1 0x0 SWAP2 DUP3 MSTORE PUSH1 0x20 SWAP1 SWAP2 KECCAK256 PUSH1 0x4 SWAP1 SWAP2 MUL ADD DUP1 SLOAD PUSH1 0x1 DUP3 ADD SLOAD PUSH1 0x2 DUP4 ADD SLOAD PUSH1 0x3 SWAP1 SWAP4 ADD SLOAD PUSH1 0x1 PUSH1 0x1 PUSH1 0xA0 SHL SUB SWAP1 SWAP3 AND SWAP5 POP SWAP3 POP PUSH1 0xFF AND DUP5 JUMP JUMPDEST PUSH2 0x488 PUSH2 0x1039 JUMP JUMPDEST PUSH1 0x0 DUP2 DUP2 MSTORE PUSH1 0x1 PUSH1 0x20 MSTORE PUSH1 0x40 DUP2 KECCAK256 SWAP1 DUP1 JUMPDEST DUP3 SLOAD DUP2 LT ISZERO PUSH2 0x686 JUMPI DUP3 DUP2 DUP2 SLOAD DUP2 LT PUSH2 0x4B4 JUMPI PUSH2 0x4B4 PUSH2 0x160E JUMP JUMPDEST PUSH1 0x0 SWAP2 DUP3 MSTORE PUSH1 0x20 SWAP1 SWAP2 KECCAK256 PUSH1 0x3 PUSH1 0x4 SWAP1 SWAP3 MUL ADD ADD SLOAD PUSH1 0xFF AND ISZERO PUSH2 0x67E JUMPI PUSH1 0x0 DUP4 DUP3 DUP2 SLOAD DUP2 LT PUSH2 0x4E4 JUMPI PUSH2 0x4E4 PUSH2 0x160E JUMP JUMPDEST PUSH1 0x0 SWAP2 DUP3 MSTORE PUSH1 0x20 SWAP1 SWAP2 KECCAK256 PUSH1 0x4 SWAP1 SWAP2 MUL ADD PUSH1 0x3 SWAP1 DUP2 ADD DUP1 SLOAD PUSH1 0xFF NOT AND SWAP3 ISZERO ISZERO SWAP3 SWAP1 SWAP3 OR SWAP1 SWAP2 SSTORE SLOAD DUP4 SLOAD PUSH1 0x1 PUSH1 0x1 PUSH1 0xA0 SHL SUB SWAP1 SWAP2 AND SWAP1 PUSH4 0xEBFF361B SWAP1 DUP6 SWAP1 DUP5 SWAP1 DUP2 LT PUSH2 0x530 JUMPI PUSH2 0x530 PUSH2 0x160E JUMP JUMPDEST PUSH1 0x0 SWAP2 DUP3 MSTORE PUSH1 0x20 SWAP1 SWAP2 KECCAK256 PUSH1 0x4 SWAP1 SWAP2 MUL ADD SLOAD DUP6 SLOAD PUSH1 0x1 PUSH1 0x1 PUSH1 0xA0 SHL SUB SWAP1 SWAP2 AND SWAP1 DUP7 SWAP1 DUP6 SWAP1 DUP2 LT PUSH2 0x561 JUMPI PUSH2 0x561 PUSH2 0x160E JUMP JUMPDEST SWAP1 PUSH1 0x0 MSTORE PUSH1 0x20 PUSH1 0x0 KECCAK256 SWAP1 PUSH1 0x4 MUL ADD PUSH1 0x1 ADD SLOAD PUSH2 0x57C DUP9 PUSH2 0x1092 JUMP JUMPDEST PUSH1 0x40 MLOAD PUSH1 0x20 ADD PUSH2 0x58C SWAP2 SWAP1 PUSH2 0x1624 JUMP JUMPDEST PUSH1 0x40 MLOAD PUSH1 0x20 DUP2 DUP4 SUB SUB DUP2 MSTORE SWAP1 PUSH1 0x40 MSTORE PUSH1 0x40 MLOAD DUP5 PUSH4 0xFFFFFFFF AND PUSH1 0xE0 SHL DUP2 MSTORE PUSH1 0x4 ADD PUSH2 0x5B9 SWAP4 SWAP3 SWAP2 SWAP1 PUSH2 0x15C5 JUMP JUMPDEST PUSH1 0x0 PUSH1 0x40 MLOAD DUP1 DUP4 SUB DUP2 PUSH1 0x0 DUP8 DUP1 EXTCODESIZE ISZERO DUP1 ISZERO PUSH2 0x5D3 JUMPI PUSH1 0x0 DUP1 REVERT JUMPDEST POP GAS CALL ISZERO DUP1 ISZERO PUSH2 0x5E7 JUMPI RETURNDATASIZE PUSH1 0x0 DUP1 RETURNDATACOPY RETURNDATASIZE PUSH1 0x0 REVERT JUMPDEST POP POP POP POP DUP3 DUP2 DUP2 SLOAD DUP2 LT PUSH2 0x5FD JUMPI PUSH2 0x5FD PUSH2 0x160E JUMP JUMPDEST PUSH1 0x0 SWAP2 DUP3 MSTORE PUSH1 0x20 SWAP1 SWAP2 KECCAK256 PUSH1 0x4 SWAP1 SWAP2 MUL ADD SLOAD DUP4 SLOAD PUSH1 0x1 PUSH1 0x1 PUSH1 0xA0 SHL SUB SWAP1 SWAP2 AND SWAP1 PUSH2 0x8FC SWAP1 DUP6 SWAP1 DUP5 SWAP1 DUP2 LT PUSH2 0x632 JUMPI PUSH2 0x632 PUSH2 0x160E JUMP JUMPDEST SWAP1 PUSH1 0x0 MSTORE PUSH1 0x20 PUSH1 0x0 KECCAK256 SWAP1 PUSH1 0x4 MUL ADD PUSH1 0x1 ADD SLOAD SWAP1 DUP2 ISZERO MUL SWAP1 PUSH1 0x40 MLOAD PUSH1 0x0 PUSH1 0x40 MLOAD DUP1 DUP4 SUB DUP2 DUP6 DUP9 DUP9 CALL SWAP4 POP POP POP POP ISZERO DUP1 ISZERO PUSH2 0x66F JUMPI RETURNDATASIZE PUSH1 0x0 DUP1 RETURNDATACOPY RETURNDATASIZE PUSH1 0x0 REVERT JUMPDEST POP DUP2 PUSH2 0x67A DUP2 PUSH2 0x1694 JUMP JUMPDEST SWAP3 POP POP JUMPDEST PUSH1 0x1 ADD PUSH2 0x499 JUMP JUMPDEST POP DUP3 PUSH32 0xBEF7792BFC8BEAECC64E4FDEDB074EEC4C2D2BFCFE36C9B05085F8AC8359D9E0 DUP3 PUSH1 0x40 MLOAD PUSH2 0x6B9 SWAP2 DUP2 MSTORE PUSH1 0x20 ADD SWAP1 JUMP JUMPDEST PUSH1 0x40 MLOAD DUP1 SWAP2 SUB SWAP1 LOG2 POP POP PUSH2 0x6CD PUSH1 0x1 PUSH1 0x0 SSTORE JUMP JUMPDEST POP JUMP JUMPDEST PUSH2 0x6D8 PUSH2 0x1039 JUMP JUMPDEST PUSH1 0x0 DUP2 DUP2 MSTORE PUSH1 0x1 PUSH1 0x20 MSTORE PUSH1 0x40 DUP2 KECCAK256 SWAP1 DUP1 DUP1 JUMPDEST DUP4 SLOAD DUP2 LT ISZERO PUSH2 0x863 JUMPI PUSH1 0x0 DUP5 DUP3 DUP2 SLOAD DUP2 LT PUSH2 0x707 JUMPI PUSH2 0x707 PUSH2 0x160E JUMP JUMPDEST PUSH1 0x0 SWAP2 DUP3 MSTORE PUSH1 0x20 SWAP1 SWAP2 KECCAK256 PUSH1 0x4 SWAP1 SWAP2 MUL ADD DUP1 SLOAD SWAP1 SWAP2 POP PUSH1 0x1 PUSH1 0x1 PUSH1 0xA0 SHL SUB AND CALLER EQ DUP1 ISZERO PUSH2 0x737 JUMPI POP PUSH1 0x3 DUP2 ADD SLOAD PUSH1 0xFF AND JUMPDEST ISZERO PUSH2 0x85A JUMPI PUSH1 0x3 DUP1 DUP3 ADD DUP1 SLOAD PUSH1 0xFF NOT AND SWAP1 SSTORE PUSH1 0x1 DUP3 ADD SLOAD SWAP1 SLOAD DUP3 SLOAD SWAP2 SWAP5 POP PUSH1 0x1 PUSH1 0x1 PUSH1 0xA0 SHL SUB SWAP1 DUP2 AND SWAP2 PUSH4 0xEBFF361B SWAP2 AND DUP6 PUSH2 0x772 DUP11 PUSH2 0x1092 JUMP JUMPDEST PUSH1 0x40 MLOAD PUSH1 0x20 ADD PUSH2 0x782 SWAP2 SWAP1 PUSH2 0x16AD JUMP JUMPDEST PUSH1 0x40 MLOAD PUSH1 0x20 DUP2 DUP4 SUB SUB DUP2 MSTORE SWAP1 PUSH1 0x40 MSTORE PUSH1 0x40 MLOAD DUP5 PUSH4 0xFFFFFFFF AND PUSH1 0xE0 SHL DUP2 MSTORE PUSH1 0x4 ADD PUSH2 0x7AF SWAP4 SWAP3 SWAP2 SWAP1 PUSH2 0x15C5 JUMP JUMPDEST PUSH1 0x0 PUSH1 0x40 MLOAD DUP1 DUP4 SUB DUP2 PUSH1 0x0 DUP8 DUP1 EXTCODESIZE ISZERO DUP1 ISZERO PUSH2 0x7C9 JUMPI PUSH1 0x0 DUP1 REVERT JUMPDEST POP GAS CALL ISZERO DUP1 ISZERO PUSH2 0x7DD JUMPI RETURNDATASIZE PUSH1 0x0 DUP1 RETURNDATACOPY RETURNDATASIZE PUSH1 0x0 REVERT JUMPDEST POP POP DUP3 SLOAD PUSH1 0x40 MLOAD PUSH1 0x1 PUSH1 0x1 PUSH1 0xA0 SHL SUB SWAP1 SWAP2 AND SWAP3 POP DUP6 ISZERO PUSH2 0x8FC MUL SWAP2 POP DUP6 SWAP1 PUSH1 0x0 DUP2 DUP2 DUP2 DUP6 DUP9 DUP9 CALL SWAP4 POP POP POP POP ISZERO DUP1 ISZERO PUSH2 0x81A JUMPI RETURNDATASIZE PUSH1 0x0 DUP1 RETURNDATACOPY RETURNDATASIZE PUSH1 0x0 REVERT JUMPDEST POP PUSH1 0x40 MLOAD CALLER DUP2 MSTORE DUP7 SWAP1 PUSH32 0x9A4DFA8787B349E9B45B60504F991C5C9F9CDA8DADABDC8E4A3F4CB8608220A3 SWAP1 PUSH1 0x20 ADD PUSH1 0x40 MLOAD DUP1 SWAP2 SUB SWAP1 LOG2 PUSH1 0x1 SWAP4 POP POP PUSH2 0x863 JUMP JUMPDEST POP PUSH1 0x1 ADD PUSH2 0x6EA JUMP JUMPDEST POP DUP2 PUSH2 0x8B1 JUMPI PUSH1 0x40 MLOAD PUSH3 0x461BCD PUSH1 0xE5 SHL DUP2 MSTORE PUSH1 0x20 PUSH1 0x4 DUP3 ADD DUP2 SWAP1 MSTORE PUSH1 0x24 DUP3 ADD MSTORE PUSH32 0x4E6F20616374697665206F6666657220666F756E6420666F722063616C6C6572 PUSH1 0x44 DUP3 ADD MSTORE PUSH1 0x64 ADD PUSH2 0x415 JUMP JUMPDEST POP POP POP PUSH2 0x6CD PUSH1 0x1 PUSH1 0x0 SSTORE JUMP JUMPDEST PUSH1 0x0 DUP2 DUP2 MSTORE PUSH1 0x1 PUSH1 0x20 MSTORE PUSH1 0x40 DUP2 KECCAK256 DUP2 SWAP1 DUP2 DUP1 DUP1 JUMPDEST DUP4 SLOAD DUP2 LT ISZERO PUSH2 0x994 JUMPI DUP4 DUP2 DUP2 SLOAD DUP2 LT PUSH2 0x8ED JUMPI PUSH2 0x8ED PUSH2 0x160E JUMP JUMPDEST PUSH1 0x0 SWAP2 DUP3 MSTORE PUSH1 0x20 SWAP1 SWAP2 KECCAK256 PUSH1 0x3 PUSH1 0x4 SWAP1 SWAP3 MUL ADD ADD SLOAD PUSH1 0xFF AND DUP1 ISZERO PUSH2 0x932 JUMPI POP DUP3 DUP5 DUP3 DUP2 SLOAD DUP2 LT PUSH2 0x91E JUMPI PUSH2 0x91E PUSH2 0x160E JUMP JUMPDEST SWAP1 PUSH1 0x0 MSTORE PUSH1 0x20 PUSH1 0x0 KECCAK256 SWAP1 PUSH1 0x4 MUL ADD PUSH1 0x1 ADD SLOAD GT JUMPDEST ISZERO PUSH2 0x98C JUMPI DUP4 DUP2 DUP2 SLOAD DUP2 LT PUSH2 0x949 JUMPI PUSH2 0x949 PUSH2 0x160E JUMP JUMPDEST SWAP1 PUSH1 0x0 MSTORE PUSH1 0x20 PUSH1 0x0 KECCAK256 SWAP1 PUSH1 0x4 MUL ADD PUSH1 0x1 ADD SLOAD SWAP3 POP DUP4 DUP2 DUP2 SLOAD DUP2 LT PUSH2 0x96F JUMPI PUSH2 0x96F PUSH2 0x160E JUMP JUMPDEST PUSH1 0x0 SWAP2 DUP3 MSTORE PUSH1 0x20 SWAP1 SWAP2 KECCAK256 PUSH1 0x4 SWAP1 SWAP2 MUL ADD SLOAD PUSH1 0x1 PUSH1 0x1 PUSH1 0xA0 SHL SUB AND SWAP2 POP JUMPDEST PUSH1 0x1 ADD PUSH2 0x8D2 JUMP JUMPDEST POP SWAP6 SWAP1 SWAP5 POP SWAP3 POP POP POP JUMP JUMPDEST PUSH2 0x9A7 PUSH2 0x1039 JUMP JUMPDEST PUSH1 0x0 DUP2 DUP2 MSTORE PUSH1 0x1 PUSH1 0x20 MSTORE PUSH1 0x40 SWAP1 KECCAK256 DUP1 SLOAD PUSH2 0x9F9 JUMPI PUSH1 0x40 MLOAD PUSH3 0x461BCD PUSH1 0xE5 SHL DUP2 MSTORE PUSH1 0x20 PUSH1 0x4 DUP3 ADD MSTORE PUSH1 0x13 PUSH1 0x24 DUP3 ADD MSTORE PUSH19 0x4E6F206F666665727320617661696C61626C65 PUSH1 0x68 SHL PUSH1 0x44 DUP3 ADD MSTORE PUSH1 0x64 ADD PUSH2 0x415 JUMP JUMPDEST PUSH2 0xA02 DUP3 PUSH2 0x119B JUMP JUMPDEST PUSH1 0x0 DUP1 PUSH1 0x0 JUMPDEST DUP4 SLOAD DUP2 LT ISZERO PUSH2 0xA9F JUMPI DUP4 DUP2 DUP2 SLOAD DUP2 LT PUSH2 0xA23 JUMPI PUSH2 0xA23 PUSH2 0x160E JUMP JUMPDEST PUSH1 0x0 SWAP2 DUP3 MSTORE PUSH1 0x20 SWAP1 SWAP2 KECCAK256 PUSH1 0x3 PUSH1 0x4 SWAP1 SWAP3 MUL ADD ADD SLOAD PUSH1 0xFF AND DUP1 ISZERO PUSH2 0xA68 JUMPI POP DUP2 DUP5 DUP3 DUP2 SLOAD DUP2 LT PUSH2 0xA54 JUMPI PUSH2 0xA54 PUSH2 0x160E JUMP JUMPDEST SWAP1 PUSH1 0x0 MSTORE PUSH1 0x20 PUSH1 0x0 KECCAK256 SWAP1 PUSH1 0x4 MUL ADD PUSH1 0x1 ADD SLOAD GT JUMPDEST ISZERO PUSH2 0xA97 JUMPI DUP4 DUP2 DUP2 SLOAD DUP2 LT PUSH2 0xA7F JUMPI PUSH2 0xA7F PUSH2 0x160E JUMP JUMPDEST SWAP1 PUSH1 0x0 MSTORE PUSH1 0x20 PUSH1 0x0 KECCAK256 SWAP1 PUSH1 0x4 MUL ADD PUSH1 0x1 ADD SLOAD SWAP2 POP DUP1 SWAP3 POP JUMPDEST PUSH1 0x1 ADD PUSH2 0xA08 JUMP JUMPDEST POP PUSH1 0x0 DUP4 DUP4 DUP2 SLOAD DUP2 LT PUSH2 0xAB4 JUMPI PUSH2 0xAB4 PUSH2 0x160E JUMP JUMPDEST PUSH1 0x0 SWAP2 DUP3 MSTORE PUSH1 0x20 SWAP1 SWAP2 KECCAK256 PUSH1 0x4 SWAP1 SWAP2 MUL ADD PUSH1 0x3 DUP2 ADD SLOAD SWAP1 SWAP2 POP PUSH1 0xFF AND PUSH2 0xB19 JUMPI PUSH1 0x40 MLOAD PUSH3 0x461BCD PUSH1 0xE5 SHL DUP2 MSTORE PUSH1 0x20 PUSH1 0x4 DUP3 ADD MSTORE PUSH1 0x1B PUSH1 0x24 DUP3 ADD MSTORE PUSH27 0x48696768657374206F66666572206973206E6F7420616374697665 PUSH1 0x28 SHL PUSH1 0x44 DUP3 ADD MSTORE PUSH1 0x64 ADD PUSH2 0x415 JUMP JUMPDEST DUP1 SLOAD PUSH1 0x1 PUSH1 0x1 PUSH1 0xA0 SHL SUB AND PUSH2 0xB7C JUMPI PUSH1 0x40 MLOAD PUSH3 0x461BCD PUSH1 0xE5 SHL DUP2 MSTORE PUSH1 0x20 PUSH1 0x4 DUP3 ADD MSTORE PUSH1 0x24 DUP1 DUP3 ADD MSTORE PUSH32 0x48696768657374206F6666657220626964646572206973207A65726F20616464 PUSH1 0x44 DUP3 ADD MSTORE PUSH4 0x72657373 PUSH1 0xE0 SHL PUSH1 0x64 DUP3 ADD MSTORE PUSH1 0x84 ADD PUSH2 0x415 JUMP JUMPDEST PUSH1 0x3 DUP2 ADD DUP1 SLOAD PUSH1 0xFF NOT AND SWAP1 SSTORE PUSH1 0x0 JUMPDEST DUP5 SLOAD DUP2 LT ISZERO PUSH2 0xD77 JUMPI DUP4 DUP2 EQ ISZERO DUP1 ISZERO PUSH2 0xBC9 JUMPI POP DUP5 DUP2 DUP2 SLOAD DUP2 LT PUSH2 0xBB1 JUMPI PUSH2 0xBB1 PUSH2 0x160E JUMP JUMPDEST PUSH1 0x0 SWAP2 DUP3 MSTORE PUSH1 0x20 SWAP1 SWAP2 KECCAK256 PUSH1 0x3 PUSH1 0x4 SWAP1 SWAP3 MUL ADD ADD SLOAD PUSH1 0xFF AND JUMPDEST ISZERO PUSH2 0xD6F JUMPI PUSH1 0x0 DUP6 DUP3 DUP2 SLOAD DUP2 LT PUSH2 0xBE2 JUMPI PUSH2 0xBE2 PUSH2 0x160E JUMP JUMPDEST PUSH1 0x0 SWAP2 DUP3 MSTORE PUSH1 0x20 SWAP1 SWAP2 KECCAK256 PUSH1 0x4 SWAP1 SWAP2 MUL ADD PUSH1 0x3 SWAP1 DUP2 ADD DUP1 SLOAD PUSH1 0xFF NOT AND SWAP3 ISZERO ISZERO SWAP3 SWAP1 SWAP3 OR SWAP1 SWAP2 SSTORE SLOAD DUP6 SLOAD PUSH1 0x1 PUSH1 0x1 PUSH1 0xA0 SHL SUB SWAP1 SWAP2 AND SWAP1 PUSH4 0xEBFF361B SWAP1 DUP8 SWAP1 DUP5 SWAP1 DUP2 LT PUSH2 0xC2E JUMPI PUSH2 0xC2E PUSH2 0x160E JUMP JUMPDEST PUSH1 0x0 SWAP2 DUP3 MSTORE PUSH1 0x20 SWAP1 SWAP2 KECCAK256 PUSH1 0x4 SWAP1 SWAP2 MUL ADD SLOAD DUP8 SLOAD PUSH1 0x1 PUSH1 0x1 PUSH1 0xA0 SHL SUB SWAP1 SWAP2 AND SWAP1 DUP9 SWAP1 DUP6 SWAP1 DUP2 LT PUSH2 0xC5F JUMPI PUSH2 0xC5F PUSH2 0x160E JUMP JUMPDEST SWAP1 PUSH1 0x0 MSTORE PUSH1 0x20 PUSH1 0x0 KECCAK256 SWAP1 PUSH1 0x4 MUL ADD PUSH1 0x1 ADD SLOAD PUSH2 0xC7A DUP11 PUSH2 0x1092 JUMP JUMPDEST PUSH1 0x40 MLOAD PUSH1 0x20 ADD PUSH2 0xC8A SWAP2 SWAP1 PUSH2 0x16EE JUMP JUMPDEST PUSH1 0x40 MLOAD PUSH1 0x20 DUP2 DUP4 SUB SUB DUP2 MSTORE SWAP1 PUSH1 0x40 MSTORE PUSH1 0x40 MLOAD DUP5 PUSH4 0xFFFFFFFF AND PUSH1 0xE0 SHL DUP2 MSTORE PUSH1 0x4 ADD PUSH2 0xCB7 SWAP4 SWAP3 SWAP2 SWAP1 PUSH2 0x15C5 JUMP JUMPDEST PUSH1 0x0 PUSH1 0x40 MLOAD DUP1 DUP4 SUB DUP2 PUSH1 0x0 DUP8 DUP1 EXTCODESIZE ISZERO DUP1 ISZERO PUSH2 0xCD1 JUMPI PUSH1 0x0 DUP1 REVERT JUMPDEST POP GAS CALL ISZERO DUP1 ISZERO PUSH2 0xCE5 JUMPI RETURNDATASIZE PUSH1 0x0 DUP1 RETURNDATACOPY RETURNDATASIZE PUSH1 0x0 REVERT JUMPDEST POP POP POP POP DUP5 DUP2 DUP2 SLOAD DUP2 LT PUSH2 0xCFB JUMPI PUSH2 0xCFB PUSH2 0x160E JUMP JUMPDEST PUSH1 0x0 SWAP2 DUP3 MSTORE PUSH1 0x20 SWAP1 SWAP2 KECCAK256 PUSH1 0x4 SWAP1 SWAP2 MUL ADD SLOAD DUP6 SLOAD PUSH1 0x1 PUSH1 0x1 PUSH1 0xA0 SHL SUB SWAP1 SWAP2 AND SWAP1 PUSH2 0x8FC SWAP1 DUP8 SWAP1 DUP5 SWAP1 DUP2 LT PUSH2 0xD30 JUMPI PUSH2 0xD30 PUSH2 0x160E JUMP JUMPDEST SWAP1 PUSH1 0x0 MSTORE PUSH1 0x20 PUSH1 0x0 KECCAK256 SWAP1 PUSH1 0x4 MUL ADD PUSH1 0x1 ADD SLOAD SWAP1 DUP2 ISZERO MUL SWAP1 PUSH1 0x40 MLOAD PUSH1 0x0 PUSH1 0x40 MLOAD DUP1 DUP4 SUB DUP2 DUP6 DUP9 DUP9 CALL SWAP4 POP POP POP POP ISZERO DUP1 ISZERO PUSH2 0xD6D JUMPI RETURNDATASIZE PUSH1 0x0 DUP1 RETURNDATACOPY RETURNDATASIZE PUSH1 0x0 REVERT JUMPDEST POP JUMPDEST PUSH1 0x1 ADD PUSH2 0xB8B JUMP JUMPDEST POP DUP1 SLOAD PUSH1 0x1 DUP3 ADD SLOAD PUSH1 0x40 MLOAD DUP8 SWAP3 PUSH32 0xEA555AB99331CEAC5051C58F17CC7B411B30241B0E28CB93A7D3A24C77A7A9A9 SWAP3 PUSH2 0xDBB SWAP3 PUSH1 0x1 PUSH1 0x1 PUSH1 0xA0 SHL SUB SWAP1 SWAP3 AND SWAP2 PUSH2 0x14ED JUMP JUMPDEST PUSH1 0x40 MLOAD DUP1 SWAP2 SUB SWAP1 LOG2 POP POP POP POP PUSH2 0x6CD PUSH1 0x1 PUSH1 0x0 SSTORE JUMP JUMPDEST PUSH1 0x60 PUSH1 0x1 PUSH1 0x0 DUP4 DUP2 MSTORE PUSH1 0x20 ADD SWAP1 DUP2 MSTORE PUSH1 0x20 ADD PUSH1 0x0 KECCAK256 DUP1 SLOAD DUP1 PUSH1 0x20 MUL PUSH1 0x20 ADD PUSH1 0x40 MLOAD SWAP1 DUP2 ADD PUSH1 0x40 MSTORE DUP1 SWAP3 SWAP2 SWAP1 DUP2 DUP2 MSTORE PUSH1 0x20 ADD PUSH1 0x0 SWAP1 JUMPDEST DUP3 DUP3 LT ISZERO PUSH2 0xE68 JUMPI PUSH1 0x0 DUP5 DUP2 MSTORE PUSH1 0x20 SWAP1 DUP2 SWAP1 KECCAK256 PUSH1 0x40 DUP1 MLOAD PUSH1 0x80 DUP2 ADD DUP3 MSTORE PUSH1 0x4 DUP7 MUL SWAP1 SWAP3 ADD DUP1 SLOAD PUSH1 0x1 PUSH1 0x1 PUSH1 0xA0 SHL SUB AND DUP4 MSTORE PUSH1 0x1 DUP1 DUP3 ADD SLOAD DUP5 DUP7 ADD MSTORE PUSH1 0x2 DUP3 ADD SLOAD SWAP3 DUP5 ADD SWAP3 SWAP1 SWAP3 MSTORE PUSH1 0x3 ADD SLOAD PUSH1 0xFF AND ISZERO ISZERO PUSH1 0x60 DUP4 ADD MSTORE SWAP1 DUP4 MSTORE SWAP1 SWAP3 ADD SWAP2 ADD PUSH2 0xE06 JUMP JUMPDEST POP POP POP POP SWAP1 POP SWAP2 SWAP1 POP JUMP JUMPDEST PUSH2 0xE7B PUSH2 0x1039 JUMP JUMPDEST DUP2 CALLVALUE EQ PUSH2 0xED8 JUMPI PUSH1 0x40 MLOAD PUSH3 0x461BCD PUSH1 0xE5 SHL DUP2 MSTORE PUSH1 0x20 PUSH1 0x4 DUP3 ADD MSTORE PUSH1 0x25 PUSH1 0x24 DUP3 ADD MSTORE PUSH32 0x45746865722073656E74206D75737420657175616C20746865206F6666657220 PUSH1 0x44 DUP3 ADD MSTORE PUSH5 0x7072696365 PUSH1 0xD8 SHL PUSH1 0x64 DUP3 ADD MSTORE PUSH1 0x84 ADD PUSH2 0x415 JUMP JUMPDEST PUSH2 0xEE1 DUP4 PUSH2 0x119B JUMP JUMPDEST PUSH1 0x40 DUP1 MLOAD PUSH1 0x80 DUP2 ADD DUP3 MSTORE CALLER DUP2 MSTORE PUSH1 0x20 DUP1 DUP3 ADD DUP6 DUP2 MSTORE DUP3 DUP5 ADD DUP6 DUP2 MSTORE PUSH1 0x1 PUSH1 0x60 DUP6 ADD DUP2 DUP2 MSTORE PUSH1 0x0 DUP11 DUP2 MSTORE DUP3 DUP7 MSTORE SWAP7 DUP8 KECCAK256 DUP1 SLOAD DUP1 DUP5 ADD DUP3 SSTORE SWAP1 DUP9 MSTORE SWAP5 SWAP1 SWAP7 KECCAK256 DUP6 MLOAD PUSH1 0x4 SWAP1 SWAP6 MUL ADD DUP1 SLOAD PUSH1 0x1 PUSH1 0x1 PUSH1 0xA0 SHL SUB NOT AND PUSH1 0x1 PUSH1 0x1 PUSH1 0xA0 SHL SUB SWAP6 DUP7 AND OR DUP2 SSTORE SWAP3 MLOAD SWAP1 DUP4 ADD SSTORE MLOAD PUSH1 0x2 DUP3 ADD SSTORE SWAP3 MLOAD PUSH1 0x3 SWAP4 DUP5 ADD DUP1 SLOAD PUSH1 0xFF NOT AND SWAP2 ISZERO ISZERO SWAP2 SWAP1 SWAP2 OR SWAP1 SSTORE SWAP2 SLOAD SWAP1 SWAP2 AND PUSH4 0xEBFF361B ADDRESS DUP6 PUSH2 0xF77 DUP9 PUSH2 0x1092 JUMP JUMPDEST PUSH1 0x40 MLOAD PUSH1 0x20 ADD PUSH2 0xF87 SWAP2 SWAP1 PUSH2 0x172E JUMP JUMPDEST PUSH1 0x40 MLOAD PUSH1 0x20 DUP2 DUP4 SUB SUB DUP2 MSTORE SWAP1 PUSH1 0x40 MSTORE PUSH1 0x40 MLOAD DUP5 PUSH4 0xFFFFFFFF AND PUSH1 0xE0 SHL DUP2 MSTORE PUSH1 0x4 ADD PUSH2 0xFB4 SWAP4 SWAP3 SWAP2 SWAP1 PUSH2 0x15C5 JUMP JUMPDEST PUSH1 0x0 PUSH1 0x40 MLOAD DUP1 DUP4 SUB DUP2 PUSH1 0x0 DUP8 DUP1 EXTCODESIZE ISZERO DUP1 ISZERO PUSH2 0xFCE JUMPI PUSH1 0x0 DUP1 REVERT JUMPDEST POP GAS CALL ISZERO DUP1 ISZERO PUSH2 0xFE2 JUMPI RETURNDATASIZE PUSH1 0x0 DUP1 RETURNDATACOPY RETURNDATASIZE PUSH1 0x0 REVERT JUMPDEST POP POP PUSH1 0x40 DUP1 MLOAD CALLER DUP2 MSTORE PUSH1 0x20 DUP2 ADD DUP8 SWAP1 MSTORE SWAP1 DUP2 ADD DUP6 SWAP1 MSTORE DUP7 SWAP3 POP PUSH32 0xD7DF0C72641D362EA57ECC9CAB99C77F936E36BB826F096258C3404196B26D6A SWAP2 POP PUSH1 0x60 ADD PUSH1 0x40 MLOAD DUP1 SWAP2 SUB SWAP1 LOG2 POP PUSH2 0x1034 PUSH1 0x1 PUSH1 0x0 SSTORE JUMP JUMPDEST POP POP POP JUMP JUMPDEST PUSH1 0x2 PUSH1 0x0 SLOAD SUB PUSH2 0x108B JUMPI PUSH1 0x40 MLOAD PUSH3 0x461BCD PUSH1 0xE5 SHL DUP2 MSTORE PUSH1 0x20 PUSH1 0x4 DUP3 ADD MSTORE PUSH1 0x1F PUSH1 0x24 DUP3 ADD MSTORE PUSH32 0x5265656E7472616E637947756172643A207265656E7472616E742063616C6C00 PUSH1 0x44 DUP3 ADD MSTORE PUSH1 0x64 ADD PUSH2 0x415 JUMP JUMPDEST PUSH1 0x2 PUSH1 0x0 SSTORE JUMP JUMPDEST PUSH1 0x60 DUP2 PUSH1 0x0 SUB PUSH2 0x10B9 JUMPI POP POP PUSH1 0x40 DUP1 MLOAD DUP1 DUP3 ADD SWAP1 SWAP2 MSTORE PUSH1 0x1 DUP2 MSTORE PUSH1 0x3 PUSH1 0xFC SHL PUSH1 0x20 DUP3 ADD MSTORE SWAP1 JUMP JUMPDEST DUP2 PUSH1 0x0 JUMPDEST DUP2 ISZERO PUSH2 0x10E3 JUMPI DUP1 PUSH2 0x10CD DUP2 PUSH2 0x1694 JUMP JUMPDEST SWAP2 POP PUSH2 0x10DC SWAP1 POP PUSH1 0xA DUP4 PUSH2 0x1780 JUMP JUMPDEST SWAP2 POP PUSH2 0x10BD JUMP JUMPDEST PUSH1 0x0 DUP2 PUSH8 0xFFFFFFFFFFFFFFFF DUP2 GT ISZERO PUSH2 0x10FE JUMPI PUSH2 0x10FE PUSH2 0x1794 JUMP JUMPDEST PUSH1 0x40 MLOAD SWAP1 DUP1 DUP3 MSTORE DUP1 PUSH1 0x1F ADD PUSH1 0x1F NOT AND PUSH1 0x20 ADD DUP3 ADD PUSH1 0x40 MSTORE DUP1 ISZERO PUSH2 0x1128 JUMPI PUSH1 0x20 DUP3 ADD DUP2 DUP1 CALLDATASIZE DUP4 CALLDATACOPY ADD SWAP1 POP JUMPDEST POP SWAP1 POP JUMPDEST DUP5 ISZERO PUSH2 0x1193 JUMPI PUSH2 0x113D PUSH1 0x1 DUP4 PUSH2 0x17AA JUMP JUMPDEST SWAP2 POP PUSH2 0x114A PUSH1 0xA DUP7 PUSH2 0x17BD JUMP JUMPDEST PUSH2 0x1155 SWAP1 PUSH1 0x30 PUSH2 0x17D1 JUMP JUMPDEST PUSH1 0xF8 SHL DUP2 DUP4 DUP2 MLOAD DUP2 LT PUSH2 0x116A JUMPI PUSH2 0x116A PUSH2 0x160E JUMP JUMPDEST PUSH1 0x20 ADD ADD SWAP1 PUSH1 0x1 PUSH1 0x1 PUSH1 0xF8 SHL SUB NOT AND SWAP1 DUP2 PUSH1 0x0 BYTE SWAP1 MSTORE8 POP PUSH2 0x118C PUSH1 0xA DUP7 PUSH2 0x1780 JUMP JUMPDEST SWAP5 POP PUSH2 0x112C JUMP JUMPDEST SWAP5 SWAP4 POP POP POP POP JUMP JUMPDEST PUSH1 0x0 DUP2 DUP2 MSTORE PUSH1 0x1 PUSH1 0x20 MSTORE PUSH1 0x40 DUP2 KECCAK256 SWAP1 TIMESTAMP SWAP1 DUP1 JUMPDEST DUP4 SLOAD DUP2 LT ISZERO PUSH2 0x1411 JUMPI DUP4 DUP2 DUP2 SLOAD DUP2 LT PUSH2 0x11C9 JUMPI PUSH2 0x11C9 PUSH2 0x160E JUMP JUMPDEST PUSH1 0x0 SWAP2 DUP3 MSTORE PUSH1 0x20 SWAP1 SWAP2 KECCAK256 PUSH1 0x3 PUSH1 0x4 SWAP1 SWAP3 MUL ADD ADD SLOAD PUSH1 0xFF AND DUP1 ISZERO PUSH2 0x1256 JUMPI POP PUSH2 0x1253 PUSH2 0x1221 PUSH1 0x2 DUP7 DUP5 DUP2 SLOAD DUP2 LT PUSH2 0x1201 JUMPI PUSH2 0x1201 PUSH2 0x160E JUMP JUMPDEST SWAP1 PUSH1 0x0 MSTORE PUSH1 0x20 PUSH1 0x0 KECCAK256 SWAP1 PUSH1 0x4 MUL ADD PUSH1 0x2 ADD SLOAD PUSH2 0x1459 SWAP1 SWAP2 SWAP1 PUSH4 0xFFFFFFFF AND JUMP JUMPDEST DUP6 DUP4 DUP2 SLOAD DUP2 LT PUSH2 0x1233 JUMPI PUSH2 0x1233 PUSH2 0x160E JUMP JUMPDEST SWAP1 PUSH1 0x0 MSTORE PUSH1 0x20 PUSH1 0x0 KECCAK256 SWAP1 PUSH1 0x4 MUL ADD PUSH1 0x2 ADD SLOAD PUSH2 0x146E SWAP1 SWAP2 SWAP1 PUSH4 0xFFFFFFFF AND JUMP JUMPDEST DUP4 GT JUMPDEST ISZERO PUSH2 0x1409 JUMPI PUSH1 0x0 DUP5 DUP3 DUP2 SLOAD DUP2 LT PUSH2 0x126F JUMPI PUSH2 0x126F PUSH2 0x160E JUMP JUMPDEST PUSH1 0x0 SWAP2 DUP3 MSTORE PUSH1 0x20 SWAP1 SWAP2 KECCAK256 PUSH1 0x4 SWAP1 SWAP2 MUL ADD PUSH1 0x3 SWAP1 DUP2 ADD DUP1 SLOAD PUSH1 0xFF NOT AND SWAP3 ISZERO ISZERO SWAP3 SWAP1 SWAP3 OR SWAP1 SWAP2 SSTORE SLOAD DUP5 SLOAD PUSH1 0x1 PUSH1 0x1 PUSH1 0xA0 SHL SUB SWAP1 SWAP2 AND SWAP1 PUSH4 0xEBFF361B SWAP1 DUP7 SWAP1 DUP5 SWAP1 DUP2 LT PUSH2 0x12BB JUMPI PUSH2 0x12BB PUSH2 0x160E JUMP JUMPDEST PUSH1 0x0 SWAP2 DUP3 MSTORE PUSH1 0x20 SWAP1 SWAP2 KECCAK256 PUSH1 0x4 SWAP1 SWAP2 MUL ADD SLOAD DUP7 SLOAD PUSH1 0x1 PUSH1 0x1 PUSH1 0xA0 SHL SUB SWAP1 SWAP2 AND SWAP1 DUP8 SWAP1 DUP6 SWAP1 DUP2 LT PUSH2 0x12EC JUMPI PUSH2 0x12EC PUSH2 0x160E JUMP JUMPDEST SWAP1 PUSH1 0x0 MSTORE PUSH1 0x20 PUSH1 0x0 KECCAK256 SWAP1 PUSH1 0x4 MUL ADD PUSH1 0x1 ADD SLOAD PUSH2 0x1307 DUP10 PUSH2 0x1092 JUMP JUMPDEST PUSH1 0x40 MLOAD PUSH1 0x20 ADD PUSH2 0x1317 SWAP2 SWAP1 PUSH2 0x17E4 JUMP JUMPDEST PUSH1 0x40 MLOAD PUSH1 0x20 DUP2 DUP4 SUB SUB DUP2 MSTORE SWAP1 PUSH1 0x40 MSTORE PUSH1 0x40 MLOAD DUP5 PUSH4 0xFFFFFFFF AND PUSH1 0xE0 SHL DUP2 MSTORE PUSH1 0x4 ADD PUSH2 0x1344 SWAP4 SWAP3 SWAP2 SWAP1 PUSH2 0x15C5 JUMP JUMPDEST PUSH1 0x0 PUSH1 0x40 MLOAD DUP1 DUP4 SUB DUP2 PUSH1 0x0 DUP8 DUP1 EXTCODESIZE ISZERO DUP1 ISZERO PUSH2 0x135E JUMPI PUSH1 0x0 DUP1 REVERT JUMPDEST POP GAS CALL ISZERO DUP1 ISZERO PUSH2 0x1372 JUMPI RETURNDATASIZE PUSH1 0x0 DUP1 RETURNDATACOPY RETURNDATASIZE PUSH1 0x0 REVERT JUMPDEST POP POP POP POP DUP4 DUP2 DUP2 SLOAD DUP2 LT PUSH2 0x1388 JUMPI PUSH2 0x1388 PUSH2 0x160E JUMP JUMPDEST PUSH1 0x0 SWAP2 DUP3 MSTORE PUSH1 0x20 SWAP1 SWAP2 KECCAK256 PUSH1 0x4 SWAP1 SWAP2 MUL ADD SLOAD DUP5 SLOAD PUSH1 0x1 PUSH1 0x1 PUSH1 0xA0 SHL SUB SWAP1 SWAP2 AND SWAP1 PUSH2 0x8FC SWAP1 DUP7 SWAP1 DUP5 SWAP1 DUP2 LT PUSH2 0x13BD JUMPI PUSH2 0x13BD PUSH2 0x160E JUMP JUMPDEST SWAP1 PUSH1 0x0 MSTORE PUSH1 0x20 PUSH1 0x0 KECCAK256 SWAP1 PUSH1 0x4 MUL ADD PUSH1 0x1 ADD SLOAD SWAP1 DUP2 ISZERO MUL SWAP1 PUSH1 0x40 MLOAD PUSH1 0x0 PUSH1 0x40 MLOAD DUP1 DUP4 SUB DUP2 DUP6 DUP9 DUP9 CALL SWAP4 POP POP POP POP ISZERO DUP1 ISZERO PUSH2 0x13FA JUMPI RETURNDATASIZE PUSH1 0x0 DUP1 RETURNDATACOPY RETURNDATASIZE PUSH1 0x0 REVERT JUMPDEST POP DUP2 PUSH2 0x1405 DUP2 PUSH2 0x1694 JUMP JUMPDEST SWAP3 POP POP JUMPDEST PUSH1 0x1 ADD PUSH2 0x11AE JUMP JUMPDEST POP DUP1 ISZERO PUSH2 0x1453 JUMPI DUP4 PUSH32 0xBEF7792BFC8BEAECC64E4FDEDB074EEC4C2D2BFCFE36C9B05085F8AC8359D9E0 DUP3 PUSH1 0x40 MLOAD PUSH2 0x144A SWAP2 DUP2 MSTORE PUSH1 0x20 ADD SWAP1 JUMP JUMPDEST PUSH1 0x40 MLOAD DUP1 SWAP2 SUB SWAP1 LOG2 JUMPDEST POP POP POP POP JUMP JUMPDEST PUSH1 0x0 PUSH2 0x1465 DUP3 DUP5 PUSH2 0x1780 JUMP JUMPDEST SWAP1 POP JUMPDEST SWAP3 SWAP2 POP POP JUMP JUMPDEST PUSH1 0x0 PUSH2 0x1465 DUP3 DUP5 PUSH2 0x17D1 JUMP JUMPDEST PUSH1 0x0 DUP1 PUSH1 0x40 DUP4 DUP6 SUB SLT ISZERO PUSH2 0x148D JUMPI PUSH1 0x0 DUP1 REVERT JUMPDEST DUP3 CALLDATALOAD PUSH1 0x1 PUSH1 0x1 PUSH1 0xA0 SHL SUB DUP2 AND DUP2 EQ PUSH2 0x14A4 JUMPI PUSH1 0x0 DUP1 REVERT JUMPDEST SWAP5 PUSH1 0x20 SWAP4 SWAP1 SWAP4 ADD CALLDATALOAD SWAP4 POP POP POP JUMP JUMPDEST PUSH1 0x0 DUP1 PUSH1 0x40 DUP4 DUP6 SUB SLT ISZERO PUSH2 0x14C5 JUMPI PUSH1 0x0 DUP1 REVERT JUMPDEST POP POP DUP1 CALLDATALOAD SWAP3 PUSH1 0x20 SWAP1 SWAP2 ADD CALLDATALOAD SWAP2 POP JUMP JUMPDEST PUSH1 0x0 PUSH1 0x20 DUP3 DUP5 SUB SLT ISZERO PUSH2 0x14E6 JUMPI PUSH1 0x0 DUP1 REVERT JUMPDEST POP CALLDATALOAD SWAP2 SWAP1 POP JUMP JUMPDEST PUSH1 0x1 PUSH1 0x1 PUSH1 0xA0 SHL SUB SWAP3 SWAP1 SWAP3 AND DUP3 MSTORE PUSH1 0x20 DUP3 ADD MSTORE PUSH1 0x40 ADD SWAP1 JUMP JUMPDEST PUSH1 0x20 DUP1 DUP3 MSTORE DUP3 MLOAD DUP3 DUP3 ADD DUP2 SWAP1 MSTORE PUSH1 0x0 SWAP2 SWAP1 PUSH1 0x40 SWAP1 DUP2 DUP6 ADD SWAP1 DUP7 DUP5 ADD DUP6 JUMPDEST DUP3 DUP2 LT ISZERO PUSH2 0x1568 JUMPI DUP2 MLOAD DUP1 MLOAD PUSH1 0x1 PUSH1 0x1 PUSH1 0xA0 SHL SUB AND DUP6 MSTORE DUP7 DUP2 ADD MLOAD DUP8 DUP7 ADD MSTORE DUP6 DUP2 ADD MLOAD DUP7 DUP7 ADD MSTORE PUSH1 0x60 SWAP1 DUP2 ADD MLOAD ISZERO ISZERO SWAP1 DUP6 ADD MSTORE PUSH1 0x80 SWAP1 SWAP4 ADD SWAP3 SWAP1 DUP6 ADD SWAP1 PUSH1 0x1 ADD PUSH2 0x1523 JUMP JUMPDEST POP SWAP2 SWAP8 SWAP7 POP POP POP POP POP POP POP JUMP JUMPDEST PUSH1 0x0 DUP1 PUSH1 0x0 PUSH1 0x60 DUP5 DUP7 SUB SLT ISZERO PUSH2 0x158A JUMPI PUSH1 0x0 DUP1 REVERT JUMPDEST POP POP DUP2 CALLDATALOAD SWAP4 PUSH1 0x20 DUP4 ADD CALLDATALOAD SWAP4 POP PUSH1 0x40 SWAP1 SWAP3 ADD CALLDATALOAD SWAP2 SWAP1 POP JUMP JUMPDEST PUSH1 0x0 JUMPDEST DUP4 DUP2 LT ISZERO PUSH2 0x15BC JUMPI DUP2 DUP2 ADD MLOAD DUP4 DUP3 ADD MSTORE PUSH1 0x20 ADD PUSH2 0x15A4 JUMP JUMPDEST POP POP PUSH1 0x0 SWAP2 ADD MSTORE JUMP JUMPDEST PUSH1 0x1 DUP1 PUSH1 0xA0 SHL SUB DUP5 AND DUP2 MSTORE DUP3 PUSH1 0x20 DUP3 ADD MSTORE PUSH1 0x60 PUSH1 0x40 DUP3 ADD MSTORE PUSH1 0x0 DUP3 MLOAD DUP1 PUSH1 0x60 DUP5 ADD MSTORE PUSH2 0x15F8 DUP2 PUSH1 0x80 DUP6 ADD PUSH1 0x20 DUP8 ADD PUSH2 0x15A1 JUMP JUMPDEST PUSH1 0x1F ADD PUSH1 0x1F NOT AND SWAP2 SWAP1 SWAP2 ADD PUSH1 0x80 ADD SWAP5 SWAP4 POP POP POP POP JUMP JUMPDEST PUSH4 0x4E487B71 PUSH1 0xE0 SHL PUSH1 0x0 MSTORE PUSH1 0x32 PUSH1 0x4 MSTORE PUSH1 0x24 PUSH1 0x0 REVERT JUMPDEST PUSH32 0x4F6666657220726566756E6465642064756520746F2063616E63656C6C617469 DUP2 MSTORE PUSH12 0x6F6E20666F72204E46542023 PUSH1 0xA0 SHL PUSH1 0x20 DUP3 ADD MSTORE PUSH1 0x0 DUP3 MLOAD PUSH2 0x1671 DUP2 PUSH1 0x2C DUP6 ADD PUSH1 0x20 DUP8 ADD PUSH2 0x15A1 JUMP JUMPDEST SWAP2 SWAP1 SWAP2 ADD PUSH1 0x2C ADD SWAP3 SWAP2 POP POP JUMP JUMPDEST PUSH4 0x4E487B71 PUSH1 0xE0 SHL PUSH1 0x0 MSTORE PUSH1 0x11 PUSH1 0x4 MSTORE PUSH1 0x24 PUSH1 0x0 REVERT JUMPDEST PUSH1 0x0 PUSH1 0x1 DUP3 ADD PUSH2 0x16A6 JUMPI PUSH2 0x16A6 PUSH2 0x167E JUMP JUMPDEST POP PUSH1 0x1 ADD SWAP1 JUMP JUMPDEST PUSH25 0x4F666665722063616E63656C6C656420666F72204E46542023 PUSH1 0x38 SHL DUP2 MSTORE PUSH1 0x0 DUP3 MLOAD PUSH2 0x16E1 DUP2 PUSH1 0x19 DUP6 ADD PUSH1 0x20 DUP8 ADD PUSH2 0x15A1 JUMP JUMPDEST SWAP2 SWAP1 SWAP2 ADD PUSH1 0x19 ADD SWAP3 SWAP2 POP POP JUMP JUMPDEST PUSH24 0x4F6666657220726566756E64656420666F72204E46542023 PUSH1 0x40 SHL DUP2 MSTORE PUSH1 0x0 DUP3 MLOAD PUSH2 0x1721 DUP2 PUSH1 0x18 DUP6 ADD PUSH1 0x20 DUP8 ADD PUSH2 0x15A1 JUMP JUMPDEST SWAP2 SWAP1 SWAP2 ADD PUSH1 0x18 ADD SWAP3 SWAP2 POP POP JUMP JUMPDEST PUSH20 0x4F66666572206D61646520666F72204E46542023 PUSH1 0x60 SHL DUP2 MSTORE PUSH1 0x0 DUP3 MLOAD PUSH2 0x175D DUP2 PUSH1 0x14 DUP6 ADD PUSH1 0x20 DUP8 ADD PUSH2 0x15A1 JUMP JUMPDEST SWAP2 SWAP1 SWAP2 ADD PUSH1 0x14 ADD SWAP3 SWAP2 POP POP JUMP JUMPDEST PUSH4 0x4E487B71 PUSH1 0xE0 SHL PUSH1 0x0 MSTORE PUSH1 0x12 PUSH1 0x4 MSTORE PUSH1 0x24 PUSH1 0x0 REVERT JUMPDEST PUSH1 0x0 DUP3 PUSH2 0x178F JUMPI PUSH2 0x178F PUSH2 0x176A JUMP JUMPDEST POP DIV SWAP1 JUMP JUMPDEST PUSH4 0x4E487B71 PUSH1 0xE0 SHL PUSH1 0x0 MSTORE PUSH1 0x41 PUSH1 0x4 MSTORE PUSH1 0x24 PUSH1 0x0 REVERT JUMPDEST DUP2 DUP2 SUB DUP2 DUP2 GT ISZERO PUSH2 0x1468 JUMPI PUSH2 0x1468 PUSH2 0x167E JUMP JUMPDEST PUSH1 0x0 DUP3 PUSH2 0x17CC JUMPI PUSH2 0x17CC PUSH2 0x176A JUMP JUMPDEST POP MOD SWAP1 JUMP JUMPDEST DUP1 DUP3 ADD DUP1 DUP3 GT ISZERO PUSH2 0x1468 JUMPI PUSH2 0x1468 PUSH2 0x167E JUMP JUMPDEST PUSH32 0x4F6666657220726566756E6465642064756520746F2065787069727920666F72 DUP2 MSTORE PUSH6 0x204E46542023 PUSH1 0xD0 SHL PUSH1 0x20 DUP3 ADD MSTORE PUSH1 0x0 DUP3 MLOAD PUSH2 0x182B DUP2 PUSH1 0x26 DUP6 ADD PUSH1 0x20 DUP8 ADD PUSH2 0x15A1 JUMP JUMPDEST SWAP2 SWAP1 SWAP2 ADD PUSH1 0x26 ADD SWAP3 SWAP2 POP POP JUMP INVALID LOG2 PUSH5 0x6970667358 0x22 SLT KECCAK256 DUP6 0xB2 SELFBALANCE SSTORE SWAP4 0x4E 0xC5 0xEA 0xD9 GASPRICE 0x4E 0xB4 0x4C MULMOD ISZERO BLOBBASEFEE DUP6 PUSH31 0x520461B1CFBD4C54DF1E6EFE0B4A64736F6C63430008180033000000000000 "},"methodIdentifiers":{"acceptOffer(uint256)":"c815729d","cancelAllOffers(uint256)":"7795960b","getHighestBidder(uint256)":"c750cb79","getOffers(uint256)":"dfa49e6f","handleFundTransfer(address,uint256)":"5be910a1","makeOffer(uint256,uint256,uint256)":"e210a72d","tokenIdToOffers(uint256,uint256)":"6b50872b","unmakeOffer(uint256)":"c574f824"}}}}}