{
  "_format": "hh-sol-artifact-1",
  "contractName": "TransferFunds",
  "sourceName": "contracts/TransferFunds.sol",
  "abi": [
    {
      "anonymous": false,
      "inputs": [
        {
          "indexed": false,
          "internalType": "address",
          "name": "from",
          "type": "address"
        },
        {
          "indexed": false,
          "internalType": "address",
          "name": "receiver",
          "type": "address"
        },
        {
          "indexed": false,
          "internalType": "uint256",
          "name": "amount",
          "type": "uint256"
        },
        {
          "indexed": false,
          "internalType": "string",
          "name": "message",
          "type": "string"
        },
        {
          "indexed": false,
          "internalType": "uint256",
          "name": "timestamp",
          "type": "uint256"
        }
      ],
      "name": "TransferEvent",
      "type": "event"
    },
    {
      "stateMutability": "payable",
      "type": "fallback"
    },
    {
      "inputs": [
        {
          "internalType": "address payable",
          "name": "receiver",
          "type": "address"
        },
        {
          "internalType": "uint256",
          "name": "amount",
          "type": "uint256"
        },
        {
          "internalType": "string",
          "name": "message",
          "type": "string"
        }
      ],
      "name": "addDataToBlockChain",
      "outputs": [],
      "stateMutability": "nonpayable",
      "type": "function"
    },
    {
      "inputs": [],
      "name": "getAllTransaction",
      "outputs": [
        {
          "components": [
            {
              "internalType": "address",
              "name": "sender",
              "type": "address"
            },
            {
              "internalType": "address",
              "name": "receiver",
              "type": "address"
            },
            {
              "internalType": "uint256",
              "name": "amount",
              "type": "uint256"
            },
            {
              "internalType": "string",
              "name": "message",
              "type": "string"
            },
            {
              "internalType": "uint256",
              "name": "timestamps",
              "type": "uint256"
            }
          ],
          "internalType": "struct TransferFunds.TransferFundsStruck[]",
          "name": "",
          "type": "tuple[]"
        }
      ],
      "stateMutability": "view",
      "type": "function"
    },
    {
      "inputs": [],
      "name": "getTransactionCount",
      "outputs": [
        {
          "internalType": "uint256",
          "name": "",
          "type": "uint256"
        }
      ],
      "stateMutability": "view",
      "type": "function"
    },
    {
      "stateMutability": "payable",
      "type": "receive"
    }
  ],
  "bytecode": "0x608060405234801561001057600080fd5b50610a53806100206000396000f3fe6080604052600436106100385760003560e01c80632e7700f01461033f578063add6415d14610362578063ebff361b14610384576101b7565b366101b757600160008082825461004f91906105e9565b90915550506040805160a08101825233815230602080830191825234838501908152845180860190955260138552722234b932b1ba1022aa24103a3930b739b332b960691b91850191909152606083019384524260808401526001805480820182556000919091528351600590910260008051602061099e833981519152810180546001600160a01b039384166001600160a01b031991821617825594516000805160206109be8339815191528301805491909416951694909417909155905160008051602061097e8339815191528201559251919290916000805160206109de8339815191529091019061014490826106b1565b5060809182015160049091015560408051338152306020820152349181019190915260a060608201819052601390820152722234b932b1ba1022aa24103a3930b739b332b960691b60c082015242918101919091526000805160206109fe8339815191529060e0015b60405180910390a1005b60016000808282546101c991906105e9565b90915550506040805160a081018252338152306020808301918252348385019081528451808601909552601d85527f46616c6c6261636b3a2044697265637420455448207472616e7366657200000091850191909152606083019384524260808401526001805480820182556000919091528351600590910260008051602061099e833981519152810180546001600160a01b039384166001600160a01b031991821617825594516000805160206109be8339815191528301805491909416951694909417909155905160008051602061097e8339815191528201559251919290916000805160206109de833981519152909101906102c890826106b1565b5060809182015160049091015560408051338152306020820152349181019190915260a060608201819052601d908201527f46616c6c6261636b3a2044697265637420455448207472616e7366657200000060c082015242918101919091526000805160206109fe8339815191529060e0016101ad565b34801561034b57600080fd5b506000546040519081526020015b60405180910390f35b34801561036e57600080fd5b506103776103a6565b60405161035991906107b7565b34801561039057600080fd5b506103a461039f36600461085f565b6104cf565b005b60606001805480602002602001604051908101604052809291908181526020016000905b828210156104c65760008481526020908190206040805160a0810182526005860290920180546001600160a01b0390811684526001820154169383019390935260028301549082015260038201805491929160608401919061042b90610626565b80601f016020809104026020016040519081016040528092919081815260200182805461045790610626565b80156104a45780601f10610479576101008083540402835291602001916104a4565b820191906000526020600020905b81548152906001019060200180831161048757829003601f168201915b50505050508152602001600482015481525050815260200190600101906103ca565b50505050905090565b60016000808282546104e191906105e9565b90915550506040805160a0810182523381526001600160a01b0385811660208301908152928201858152606083018581524260808501526001805480820182556000919091528451600590910260008051602061099e833981519152810180549286166001600160a01b031993841617815596516000805160206109be8339815191528201805491909616921691909117909355905160008051602061097e833981519152830155519192916000805160206109de833981519152909101906105aa90826106b1565b506080820151816004015550506000805160206109fe83398151915233848484426040516105dc959493929190610938565b60405180910390a1505050565b8082018082111561060a57634e487b7160e01b600052601160045260246000fd5b92915050565b634e487b7160e01b600052604160045260246000fd5b600181811c9082168061063a57607f821691505b60208210810361065a57634e487b7160e01b600052602260045260246000fd5b50919050565b601f8211156106ac576000816000526020600020601f850160051c810160208610156106895750805b601f850160051c820191505b818110156106a857828155600101610695565b5050505b505050565b815167ffffffffffffffff8111156106cb576106cb610610565b6106df816106d98454610626565b84610660565b602080601f83116001811461071457600084156106fc5750858301515b600019600386901b1c1916600185901b1785556106a8565b600085815260208120601f198616915b8281101561074357888601518255948401946001909101908401610724565b50858210156107615787850151600019600388901b60f8161c191681555b5050505050600190811b01905550565b6000815180845260005b818110156107975760208185018101518683018201520161077b565b506000602082860101526020601f19601f83011685010191505092915050565b600060208083018184528085518083526040925060408601915060408160051b87010184880160005b8381101561085157888303603f19018552815180516001600160a01b039081168552888201511688850152868101518785015260608082015160a0828701819052919061082f83880182610771565b60809485015197909401969096525050948701949250908601906001016107e0565b509098975050505050505050565b60008060006060848603121561087457600080fd5b83356001600160a01b038116811461088b57600080fd5b925060208401359150604084013567ffffffffffffffff808211156108af57600080fd5b818601915086601f8301126108c357600080fd5b8135818111156108d5576108d5610610565b604051601f8201601f19908116603f011681019083821181831017156108fd576108fd610610565b8160405282815289602084870101111561091657600080fd5b8260208601602083013760006020848301015280955050505050509250925092565b6001600160a01b038681168252851660208201526040810184905260a06060820181905260009061096b90830185610771565b9050826080830152969550505050505056feb10e2d527612073b26eecdfd717e6a320cf44b4afac2b0732d9fcbe2b7fa0cf8b10e2d527612073b26eecdfd717e6a320cf44b4afac2b0732d9fcbe2b7fa0cf6b10e2d527612073b26eecdfd717e6a320cf44b4afac2b0732d9fcbe2b7fa0cf7b10e2d527612073b26eecdfd717e6a320cf44b4afac2b0732d9fcbe2b7fa0cf93cf6265a3418fd153ac0fad02c457db25dda3d9006869d68880a17c525b626b3a264697066735822122083d69c1c13e7e695a8588c57211b73bab128f97cf10fe003cd615ae6d541bc2264736f6c63430008180033",
  "linkReferences": {},
  "deployedLinkReferences": {}
}