{
  "_format": "hh-sol-artifact-1",
  "contractName": "NFT",
  "sourceName": "contracts/NFT.sol",
  "abi": [
    {
      "inputs": [],
      "stateMutability": "nonpayable",
      "type": "constructor"
    },
    {
      "anonymous": false,
      "inputs": [
        {
          "indexed": true,
          "internalType": "address",
          "name": "owner",
          "type": "address"
        },
        {
          "indexed": true,
          "internalType": "address",
          "name": "approved",
          "type": "address"
        },
        {
          "indexed": true,
          "internalType": "uint256",
          "name": "tokenId",
          "type": "uint256"
        }
      ],
      "name": "Approval",
      "type": "event"
    },
    {
      "anonymous": false,
      "inputs": [
        {
          "indexed": true,
          "internalType": "address",
          "name": "owner",
          "type": "address"
        },
        {
          "indexed": true,
          "internalType": "address",
          "name": "operator",
          "type": "address"
        },
        {
          "indexed": false,
          "internalType": "bool",
          "name": "approved",
          "type": "bool"
        }
      ],
      "name": "ApprovalForAll",
      "type": "event"
    },
    {
      "anonymous": false,
      "inputs": [
        {
          "indexed": false,
          "internalType": "uint256",
          "name": "_fromTokenId",
          "type": "uint256"
        },
        {
          "indexed": false,
          "internalType": "uint256",
          "name": "_toTokenId",
          "type": "uint256"
        }
      ],
      "name": "BatchMetadataUpdate",
      "type": "event"
    },
    {
      "anonymous": false,
      "inputs": [
        {
          "indexed": false,
          "internalType": "uint256",
          "name": "_tokenId",
          "type": "uint256"
        }
      ],
      "name": "MetadataUpdate",
      "type": "event"
    },
    {
      "anonymous": false,
      "inputs": [
        {
          "indexed": true,
          "internalType": "address",
          "name": "from",
          "type": "address"
        },
        {
          "indexed": true,
          "internalType": "address",
          "name": "to",
          "type": "address"
        },
        {
          "indexed": true,
          "internalType": "uint256",
          "name": "tokenId",
          "type": "uint256"
        }
      ],
      "name": "Transfer",
      "type": "event"
    },
    {
      "inputs": [
        {
          "internalType": "address",
          "name": "to",
          "type": "address"
        },
        {
          "internalType": "uint256",
          "name": "tokenId",
          "type": "uint256"
        }
      ],
      "name": "approve",
      "outputs": [],
      "stateMutability": "nonpayable",
      "type": "function"
    },
    {
      "inputs": [
        {
          "internalType": "address",
          "name": "owner",
          "type": "address"
        }
      ],
      "name": "balanceOf",
      "outputs": [
        {
          "internalType": "uint256",
          "name": "",
          "type": "uint256"
        }
      ],
      "stateMutability": "view",
      "type": "function"
    },
    {
      "inputs": [
        {
          "internalType": "string",
          "name": "tokenURI",
          "type": "string"
        }
      ],
      "name": "createToken",
      "outputs": [
        {
          "internalType": "uint256",
          "name": "",
          "type": "uint256"
        }
      ],
      "stateMutability": "nonpayable",
      "type": "function"
    },
    {
      "inputs": [
        {
          "internalType": "uint256",
          "name": "tokenId",
          "type": "uint256"
        }
      ],
      "name": "getApproved",
      "outputs": [
        {
          "internalType": "address",
          "name": "",
          "type": "address"
        }
      ],
      "stateMutability": "view",
      "type": "function"
    },
    {
      "inputs": [],
      "name": "getTokenCount",
      "outputs": [
        {
          "internalType": "uint256",
          "name": "",
          "type": "uint256"
        }
      ],
      "stateMutability": "view",
      "type": "function"
    },
    {
      "inputs": [
        {
          "internalType": "address",
          "name": "owner",
          "type": "address"
        },
        {
          "internalType": "address",
          "name": "operator",
          "type": "address"
        }
      ],
      "name": "isApprovedForAll",
      "outputs": [
        {
          "internalType": "bool",
          "name": "",
          "type": "bool"
        }
      ],
      "stateMutability": "view",
      "type": "function"
    },
    {
      "inputs": [],
      "name": "name",
      "outputs": [
        {
          "internalType": "string",
          "name": "",
          "type": "string"
        }
      ],
      "stateMutability": "view",
      "type": "function"
    },
    {
      "inputs": [
        {
          "internalType": "uint256",
          "name": "tokenId",
          "type": "uint256"
        }
      ],
      "name": "ownerOf",
      "outputs": [
        {
          "internalType": "address",
          "name": "",
          "type": "address"
        }
      ],
      "stateMutability": "view",
      "type": "function"
    },
    {
      "inputs": [
        {
          "internalType": "address",
          "name": "from",
          "type": "address"
        },
        {
          "internalType": "address",
          "name": "to",
          "type": "address"
        },
        {
          "internalType": "uint256",
          "name": "tokenId",
          "type": "uint256"
        }
      ],
      "name": "safeTransferFrom",
      "outputs": [],
      "stateMutability": "nonpayable",
      "type": "function"
    },
    {
      "inputs": [
        {
          "internalType": "address",
          "name": "from",
          "type": "address"
        },
        {
          "internalType": "address",
          "name": "to",
          "type": "address"
        },
        {
          "internalType": "uint256",
          "name": "tokenId",
          "type": "uint256"
        },
        {
          "internalType": "bytes",
          "name": "data",
          "type": "bytes"
        }
      ],
      "name": "safeTransferFrom",
      "outputs": [],
      "stateMutability": "nonpayable",
      "type": "function"
    },
    {
      "inputs": [
        {
          "internalType": "address",
          "name": "operator",
          "type": "address"
        },
        {
          "internalType": "bool",
          "name": "approved",
          "type": "bool"
        }
      ],
      "name": "setApprovalForAll",
      "outputs": [],
      "stateMutability": "nonpayable",
      "type": "function"
    },
    {
      "inputs": [
        {
          "internalType": "bytes4",
          "name": "interfaceId",
          "type": "bytes4"
        }
      ],
      "name": "supportsInterface",
      "outputs": [
        {
          "internalType": "bool",
          "name": "",
          "type": "bool"
        }
      ],
      "stateMutability": "view",
      "type": "function"
    },
    {
      "inputs": [],
      "name": "symbol",
      "outputs": [
        {
          "internalType": "string",
          "name": "",
          "type": "string"
        }
      ],
      "stateMutability": "view",
      "type": "function"
    },
    {
      "inputs": [
        {
          "internalType": "uint256",
          "name": "tokenId",
          "type": "uint256"
        }
      ],
      "name": "tokenURI",
      "outputs": [
        {
          "internalType": "string",
          "name": "",
          "type": "string"
        }
      ],
      "stateMutability": "view",
      "type": "function"
    },
    {
      "inputs": [
        {
          "internalType": "address",
          "name": "from",
          "type": "address"
        },
        {
          "internalType": "address",
          "name": "to",
          "type": "address"
        },
        {
          "internalType": "uint256",
          "name": "tokenId",
          "type": "uint256"
        }
      ],
      "name": "transferFrom",
      "outputs": [],
      "stateMutability": "nonpayable",
      "type": "function"
    }
  ],
  "bytecode": "0x60806040523480156200001157600080fd5b506040518060400160405280601081526020017f4d657461766572736520546f6b656e73000000000000000000000000000000008152506040518060400160405280600481526020017f4d4554540000000000000000000000000000000000000000000000000000000081525081600090816200008f919062000324565b508060019081620000a1919062000324565b5050506200040b565b600081519050919050565b7f4e487b7100000000000000000000000000000000000000000000000000000000600052604160045260246000fd5b7f4e487b7100000000000000000000000000000000000000000000000000000000600052602260045260246000fd5b600060028204905060018216806200012c57607f821691505b602082108103620001425762000141620000e4565b5b50919050565b60008190508160005260206000209050919050565b60006020601f8301049050919050565b600082821b905092915050565b600060088302620001ac7fffffffffffffffffffffffffffffffffffffffffffffffffffffffffffffffff826200016d565b620001b886836200016d565b95508019841693508086168417925050509392505050565b6000819050919050565b6000819050919050565b600062000205620001ff620001f984620001d0565b620001da565b620001d0565b9050919050565b6000819050919050565b6200022183620001e4565b6200023962000230826200020c565b8484546200017a565b825550505050565b600090565b6200025062000241565b6200025d81848462000216565b505050565b5b8181101562000285576200027960008262000246565b60018101905062000263565b5050565b601f821115620002d4576200029e8162000148565b620002a9846200015d565b81016020851015620002b9578190505b620002d1620002c8856200015d565b83018262000262565b50505b505050565b600082821c905092915050565b6000620002f960001984600802620002d9565b1980831691505092915050565b6000620003148383620002e6565b9150826002028217905092915050565b6200032f82620000aa565b67ffffffffffffffff8111156200034b576200034a620000b5565b5b62000357825462000113565b6200036482828562000289565b600060209050601f8311600181146200039c576000841562000387578287015190505b62000393858262000306565b86555062000403565b601f198416620003ac8662000148565b60005b82811015620003d657848901518255600182019150602085019450602081019050620003af565b86831015620003f65784890151620003f2601f891682620002e6565b8355505b6001600288020188555050505b505050505050565b612b06806200041b6000396000f3fe608060405234801561001057600080fd5b50600436106100f55760003560e01c80636352211e11610097578063a22cb46511610066578063a22cb46514610298578063b88d4fde146102b4578063c87b56dd146102d0578063e985e9c514610300576100f5565b80636352211e146101fc57806370a082311461022c57806378a895671461025c57806395d89b411461027a576100f5565b8063095ea7b3116100d3578063095ea7b31461017857806323b872dd1461019457806342842e0e146101b057806345576f94146101cc576100f5565b806301ffc9a7146100fa57806306fdde031461012a578063081812fc14610148575b600080fd5b610114600480360381019061010f9190611a08565b610330565b6040516101219190611a50565b60405180910390f35b610132610391565b60405161013f9190611afb565b60405180910390f35b610162600480360381019061015d9190611b53565b610423565b60405161016f9190611bc1565b60405180910390f35b610192600480360381019061018d9190611c08565b610469565b005b6101ae60048036038101906101a99190611c48565b610580565b005b6101ca60048036038101906101c59190611c48565b6105e0565b005b6101e660048036038101906101e19190611dd0565b610600565b6040516101f39190611e28565b60405180910390f35b61021660048036038101906102119190611b53565b610637565b6040516102239190611bc1565b60405180910390f35b61024660048036038101906102419190611e43565b6106bd565b6040516102539190611e28565b60405180910390f35b610264610774565b6040516102719190611e28565b60405180910390f35b610282610785565b60405161028f9190611afb565b60405180910390f35b6102b260048036038101906102ad9190611e9c565b610817565b005b6102ce60048036038101906102c99190611f7d565b61082d565b005b6102ea60048036038101906102e59190611b53565b61088f565b6040516102f79190611afb565b60405180910390f35b61031a60048036038101906103159190612000565b6109a1565b6040516103279190611a50565b60405180910390f35b6000634906490660e01b7bffffffffffffffffffffffffffffffffffffffffffffffffffffffff1916827bffffffffffffffffffffffffffffffffffffffffffffffffffffffff1916148061038a575061038982610a35565b5b9050919050565b6060600080546103a09061206f565b80601f01602080910402602001604051908101604052809291908181526020018280546103cc9061206f565b80156104195780601f106103ee57610100808354040283529160200191610419565b820191906000526020600020905b8154815290600101906020018083116103fc57829003601f168201915b5050505050905090565b600061042e82610b17565b6004600083815260200190815260200160002060009054906101000a900473ffffffffffffffffffffffffffffffffffffffff169050919050565b600061047482610637565b90508073ffffffffffffffffffffffffffffffffffffffff168373ffffffffffffffffffffffffffffffffffffffff16036104e4576040517f08c379a00000000000000000000000000000000000000000000000000000000081526004016104db90612112565b60405180910390fd5b8073ffffffffffffffffffffffffffffffffffffffff16610503610b62565b73ffffffffffffffffffffffffffffffffffffffff16148061053257506105318161052c610b62565b6109a1565b5b610571576040517f08c379a0000000000000000000000000000000000000000000000000000000008152600401610568906121a4565b60405180910390fd5b61057b8383610b6a565b505050565b61059161058b610b62565b82610c23565b6105d0576040517f08c379a00000000000000000000000000000000000000000000000000000000081526004016105c790612236565b60405180910390fd5b6105db838383610cb8565b505050565b6105fb8383836040518060200160405280600081525061082d565b505050565b600061060c6007610fb1565b60006106186007610fc7565b90506106243382610fd5565b61062e81846111f2565b80915050919050565b60008061064383611296565b9050600073ffffffffffffffffffffffffffffffffffffffff168173ffffffffffffffffffffffffffffffffffffffff16036106b4576040517f08c379a00000000000000000000000000000000000000000000000000000000081526004016106ab906122a2565b60405180910390fd5b80915050919050565b60008073ffffffffffffffffffffffffffffffffffffffff168273ffffffffffffffffffffffffffffffffffffffff160361072d576040517f08c379a000000000000000000000000000000000000000000000000000000000815260040161072490612334565b60405180910390fd5b600360008373ffffffffffffffffffffffffffffffffffffffff1673ffffffffffffffffffffffffffffffffffffffff168152602001908152602001600020549050919050565b60006107806007610fc7565b905090565b6060600180546107949061206f565b80601f01602080910402602001604051908101604052809291908181526020018280546107c09061206f565b801561080d5780601f106107e25761010080835404028352916020019161080d565b820191906000526020600020905b8154815290600101906020018083116107f057829003601f168201915b5050505050905090565b610829610822610b62565b83836112d3565b5050565b61083e610838610b62565b83610c23565b61087d576040517f08c379a000000000000000000000000000000000000000000000000000000000815260040161087490612236565b60405180910390fd5b6108898484848461143f565b50505050565b606061089a82610b17565b60006006600084815260200190815260200160002080546108ba9061206f565b80601f01602080910402602001604051908101604052809291908181526020018280546108e69061206f565b80156109335780601f1061090857610100808354040283529160200191610933565b820191906000526020600020905b81548152906001019060200180831161091657829003601f168201915b50505050509050600061094461149b565b9050600081510361095957819250505061099c565b60008251111561098e578082604051602001610976929190612390565b6040516020818303038152906040529250505061099c565b610997846114b2565b925050505b919050565b6000600560008473ffffffffffffffffffffffffffffffffffffffff1673ffffffffffffffffffffffffffffffffffffffff16815260200190815260200160002060008373ffffffffffffffffffffffffffffffffffffffff1673ffffffffffffffffffffffffffffffffffffffff16815260200190815260200160002060009054906101000a900460ff16905092915050565b60007f80ac58cd000000000000000000000000000000000000000000000000000000007bffffffffffffffffffffffffffffffffffffffffffffffffffffffff1916827bffffffffffffffffffffffffffffffffffffffffffffffffffffffff19161480610b0057507f5b5e139f000000000000000000000000000000000000000000000000000000007bffffffffffffffffffffffffffffffffffffffffffffffffffffffff1916827bffffffffffffffffffffffffffffffffffffffffffffffffffffffff1916145b80610b105750610b0f8261151a565b5b9050919050565b610b2081611584565b610b5f576040517f08c379a0000000000000000000000000000000000000000000000000000000008152600401610b56906122a2565b60405180910390fd5b50565b600033905090565b816004600083815260200190815260200160002060006101000a81548173ffffffffffffffffffffffffffffffffffffffff021916908373ffffffffffffffffffffffffffffffffffffffff160217905550808273ffffffffffffffffffffffffffffffffffffffff16610bdd83610637565b73ffffffffffffffffffffffffffffffffffffffff167f8c5be1e5ebec7d5bd14f71427d1e84f3dd0314c0f7b2291e5b200ac8c7c3b92560405160405180910390a45050565b600080610c2f83610637565b90508073ffffffffffffffffffffffffffffffffffffffff168473ffffffffffffffffffffffffffffffffffffffff161480610c715750610c7081856109a1565b5b80610caf57508373ffffffffffffffffffffffffffffffffffffffff16610c9784610423565b73ffffffffffffffffffffffffffffffffffffffff16145b91505092915050565b8273ffffffffffffffffffffffffffffffffffffffff16610cd882610637565b73ffffffffffffffffffffffffffffffffffffffff1614610d2e576040517f08c379a0000000000000000000000000000000000000000000000000000000008152600401610d2590612426565b60405180910390fd5b600073ffffffffffffffffffffffffffffffffffffffff168273ffffffffffffffffffffffffffffffffffffffff1603610d9d576040517f08c379a0000000000000000000000000000000000000000000000000000000008152600401610d94906124b8565b60405180910390fd5b610daa83838360016115c5565b8273ffffffffffffffffffffffffffffffffffffffff16610dca82610637565b73ffffffffffffffffffffffffffffffffffffffff1614610e20576040517f08c379a0000000000000000000000000000000000000000000000000000000008152600401610e1790612426565b60405180910390fd5b6004600082815260200190815260200160002060006101000a81549073ffffffffffffffffffffffffffffffffffffffff02191690556001600360008573ffffffffffffffffffffffffffffffffffffffff1673ffffffffffffffffffffffffffffffffffffffff168152602001908152602001600020600082825403925050819055506001600360008473ffffffffffffffffffffffffffffffffffffffff1673ffffffffffffffffffffffffffffffffffffffff16815260200190815260200160002060008282540192505081905550816002600083815260200190815260200160002060006101000a81548173ffffffffffffffffffffffffffffffffffffffff021916908373ffffffffffffffffffffffffffffffffffffffff160217905550808273ffffffffffffffffffffffffffffffffffffffff168473ffffffffffffffffffffffffffffffffffffffff167fddf252ad1be2c89b69c2b068fc378daa952ba7f163c4a11628f55a4df523b3ef60405160405180910390a4610fac83838360016115cb565b505050565b6001816000016000828254019250508190555050565b600081600001549050919050565b600073ffffffffffffffffffffffffffffffffffffffff168273ffffffffffffffffffffffffffffffffffffffff1603611044576040517f08c379a000000000000000000000000000000000000000000000000000000000815260040161103b90612524565b60405180910390fd5b61104d81611584565b1561108d576040517f08c379a000000000000000000000000000000000000000000000000000000000815260040161108490612590565b60405180910390fd5b61109b6000838360016115c5565b6110a481611584565b156110e4576040517f08c379a00000000000000000000000000000000000000000000000000000000081526004016110db90612590565b60405180910390fd5b6001600360008473ffffffffffffffffffffffffffffffffffffffff1673ffffffffffffffffffffffffffffffffffffffff16815260200190815260200160002060008282540192505081905550816002600083815260200190815260200160002060006101000a81548173ffffffffffffffffffffffffffffffffffffffff021916908373ffffffffffffffffffffffffffffffffffffffff160217905550808273ffffffffffffffffffffffffffffffffffffffff16600073ffffffffffffffffffffffffffffffffffffffff167fddf252ad1be2c89b69c2b068fc378daa952ba7f163c4a11628f55a4df523b3ef60405160405180910390a46111ee6000838360016115cb565b5050565b6111fb82611584565b61123a576040517f08c379a000000000000000000000000000000000000000000000000000000000815260040161123190612622565b60405180910390fd5b8060066000848152602001908152602001600020908161125a91906127ee565b507ff8e1a15aba9398e019f0b49df1a4fde98ee17ae345cb5f6b5e2c27f5033e8ce78260405161128a9190611e28565b60405180910390a15050565b60006002600083815260200190815260200160002060009054906101000a900473ffffffffffffffffffffffffffffffffffffffff169050919050565b8173ffffffffffffffffffffffffffffffffffffffff168373ffffffffffffffffffffffffffffffffffffffff1603611341576040517f08c379a00000000000000000000000000000000000000000000000000000000081526004016113389061290c565b60405180910390fd5b80600560008573ffffffffffffffffffffffffffffffffffffffff1673ffffffffffffffffffffffffffffffffffffffff16815260200190815260200160002060008473ffffffffffffffffffffffffffffffffffffffff1673ffffffffffffffffffffffffffffffffffffffff16815260200190815260200160002060006101000a81548160ff0219169083151502179055508173ffffffffffffffffffffffffffffffffffffffff168373ffffffffffffffffffffffffffffffffffffffff167f17307eab39ab6107e8899845ad3d59bd9653f200f220920489ca2b5937696c31836040516114329190611a50565b60405180910390a3505050565b61144a848484610cb8565b611456848484846115d1565b611495576040517f08c379a000000000000000000000000000000000000000000000000000000000815260040161148c9061299e565b60405180910390fd5b50505050565b606060405180602001604052806000815250905090565b60606114bd82610b17565b60006114c761149b565b905060008151116114e75760405180602001604052806000815250611512565b806114f184611758565b604051602001611502929190612390565b6040516020818303038152906040525b915050919050565b60007f01ffc9a7000000000000000000000000000000000000000000000000000000007bffffffffffffffffffffffffffffffffffffffffffffffffffffffff1916827bffffffffffffffffffffffffffffffffffffffffffffffffffffffff1916149050919050565b60008073ffffffffffffffffffffffffffffffffffffffff166115a683611296565b73ffffffffffffffffffffffffffffffffffffffff1614159050919050565b50505050565b50505050565b60006115f28473ffffffffffffffffffffffffffffffffffffffff16611826565b1561174b578373ffffffffffffffffffffffffffffffffffffffff1663150b7a0261161b610b62565b8786866040518563ffffffff1660e01b815260040161163d9493929190612a13565b6020604051808303816000875af192505050801561167957506040513d601f19601f820116820180604052508101906116769190612a74565b60015b6116fb573d80600081146116a9576040519150601f19603f3d011682016040523d82523d6000602084013e6116ae565b606091505b5060008151036116f3576040517f08c379a00000000000000000000000000000000000000000000000000000000081526004016116ea9061299e565b60405180910390fd5b805181602001fd5b63150b7a0260e01b7bffffffffffffffffffffffffffffffffffffffffffffffffffffffff1916817bffffffffffffffffffffffffffffffffffffffffffffffffffffffff191614915050611750565b600190505b949350505050565b60606000600161176784611849565b01905060008167ffffffffffffffff81111561178657611785611ca5565b5b6040519080825280601f01601f1916602001820160405280156117b85781602001600182028036833780820191505090505b509050600082602001820190505b60011561181b578080600190039150507f3031323334353637383961626364656600000000000000000000000000000000600a86061a8153600a858161180f5761180e612aa1565b5b049450600085036117c6575b819350505050919050565b6000808273ffffffffffffffffffffffffffffffffffffffff163b119050919050565b600080600090507a184f03e93ff9f4daa797ed6e38ed64bf6a1f01000000000000000083106118a7577a184f03e93ff9f4daa797ed6e38ed64bf6a1f010000000000000000838161189d5761189c612aa1565b5b0492506040810190505b6d04ee2d6d415b85acef810000000083106118e4576d04ee2d6d415b85acef810000000083816118da576118d9612aa1565b5b0492506020810190505b662386f26fc10000831061191357662386f26fc10000838161190957611908612aa1565b5b0492506010810190505b6305f5e100831061193c576305f5e100838161193257611931612aa1565b5b0492506008810190505b612710831061196157612710838161195757611956612aa1565b5b0492506004810190505b60648310611984576064838161197a57611979612aa1565b5b0492506002810190505b600a8310611993576001810190505b80915050919050565b6000604051905090565b600080fd5b600080fd5b60007fffffffff0000000000000000000000000000000000000000000000000000000082169050919050565b6119e5816119b0565b81146119f057600080fd5b50565b600081359050611a02816119dc565b92915050565b600060208284031215611a1e57611a1d6119a6565b5b6000611a2c848285016119f3565b91505092915050565b60008115159050919050565b611a4a81611a35565b82525050565b6000602082019050611a656000830184611a41565b92915050565b600081519050919050565b600082825260208201905092915050565b60005b83811015611aa5578082015181840152602081019050611a8a565b60008484015250505050565b6000601f19601f8301169050919050565b6000611acd82611a6b565b611ad78185611a76565b9350611ae7818560208601611a87565b611af081611ab1565b840191505092915050565b60006020820190508181036000830152611b158184611ac2565b905092915050565b6000819050919050565b611b3081611b1d565b8114611b3b57600080fd5b50565b600081359050611b4d81611b27565b92915050565b600060208284031215611b6957611b686119a6565b5b6000611b7784828501611b3e565b91505092915050565b600073ffffffffffffffffffffffffffffffffffffffff82169050919050565b6000611bab82611b80565b9050919050565b611bbb81611ba0565b82525050565b6000602082019050611bd66000830184611bb2565b92915050565b611be581611ba0565b8114611bf057600080fd5b50565b600081359050611c0281611bdc565b92915050565b60008060408385031215611c1f57611c1e6119a6565b5b6000611c2d85828601611bf3565b9250506020611c3e85828601611b3e565b9150509250929050565b600080600060608486031215611c6157611c606119a6565b5b6000611c6f86828701611bf3565b9350506020611c8086828701611bf3565b9250506040611c9186828701611b3e565b9150509250925092565b600080fd5b600080fd5b7f4e487b7100000000000000000000000000000000000000000000000000000000600052604160045260246000fd5b611cdd82611ab1565b810181811067ffffffffffffffff82111715611cfc57611cfb611ca5565b5b80604052505050565b6000611d0f61199c565b9050611d1b8282611cd4565b919050565b600067ffffffffffffffff821115611d3b57611d3a611ca5565b5b611d4482611ab1565b9050602081019050919050565b82818337600083830152505050565b6000611d73611d6e84611d20565b611d05565b905082815260208101848484011115611d8f57611d8e611ca0565b5b611d9a848285611d51565b509392505050565b600082601f830112611db757611db6611c9b565b5b8135611dc7848260208601611d60565b91505092915050565b600060208284031215611de657611de56119a6565b5b600082013567ffffffffffffffff811115611e0457611e036119ab565b5b611e1084828501611da2565b91505092915050565b611e2281611b1d565b82525050565b6000602082019050611e3d6000830184611e19565b92915050565b600060208284031215611e5957611e586119a6565b5b6000611e6784828501611bf3565b91505092915050565b611e7981611a35565b8114611e8457600080fd5b50565b600081359050611e9681611e70565b92915050565b60008060408385031215611eb357611eb26119a6565b5b6000611ec185828601611bf3565b9250506020611ed285828601611e87565b9150509250929050565b600067ffffffffffffffff821115611ef757611ef6611ca5565b5b611f0082611ab1565b9050602081019050919050565b6000611f20611f1b84611edc565b611d05565b905082815260208101848484011115611f3c57611f3b611ca0565b5b611f47848285611d51565b509392505050565b600082601f830112611f6457611f63611c9b565b5b8135611f74848260208601611f0d565b91505092915050565b60008060008060808587031215611f9757611f966119a6565b5b6000611fa587828801611bf3565b9450506020611fb687828801611bf3565b9350506040611fc787828801611b3e565b925050606085013567ffffffffffffffff811115611fe857611fe76119ab565b5b611ff487828801611f4f565b91505092959194509250565b60008060408385031215612017576120166119a6565b5b600061202585828601611bf3565b925050602061203685828601611bf3565b9150509250929050565b7f4e487b7100000000000000000000000000000000000000000000000000000000600052602260045260246000fd5b6000600282049050600182168061208757607f821691505b60208210810361209a57612099612040565b5b50919050565b7f4552433732313a20617070726f76616c20746f2063757272656e74206f776e6560008201527f7200000000000000000000000000000000000000000000000000000000000000602082015250565b60006120fc602183611a76565b9150612107826120a0565b604082019050919050565b6000602082019050818103600083015261212b816120ef565b9050919050565b7f4552433732313a20617070726f76652063616c6c6572206973206e6f7420746f60008201527f6b656e206f776e6572206f7220617070726f76656420666f7220616c6c000000602082015250565b600061218e603d83611a76565b915061219982612132565b604082019050919050565b600060208201905081810360008301526121bd81612181565b9050919050565b7f4552433732313a2063616c6c6572206973206e6f7420746f6b656e206f776e6560008201527f72206f7220617070726f76656400000000000000000000000000000000000000602082015250565b6000612220602d83611a76565b915061222b826121c4565b604082019050919050565b6000602082019050818103600083015261224f81612213565b9050919050565b7f4552433732313a20696e76616c696420746f6b656e2049440000000000000000600082015250565b600061228c601883611a76565b915061229782612256565b602082019050919050565b600060208201905081810360008301526122bb8161227f565b9050919050565b7f4552433732313a2061646472657373207a65726f206973206e6f74206120766160008201527f6c6964206f776e65720000000000000000000000000000000000000000000000602082015250565b600061231e602983611a76565b9150612329826122c2565b604082019050919050565b6000602082019050818103600083015261234d81612311565b9050919050565b600081905092915050565b600061236a82611a6b565b6123748185612354565b9350612384818560208601611a87565b80840191505092915050565b600061239c828561235f565b91506123a8828461235f565b91508190509392505050565b7f4552433732313a207472616e736665722066726f6d20696e636f72726563742060008201527f6f776e6572000000000000000000000000000000000000000000000000000000602082015250565b6000612410602583611a76565b915061241b826123b4565b604082019050919050565b6000602082019050818103600083015261243f81612403565b9050919050565b7f4552433732313a207472616e7366657220746f20746865207a65726f2061646460008201527f7265737300000000000000000000000000000000000000000000000000000000602082015250565b60006124a2602483611a76565b91506124ad82612446565b604082019050919050565b600060208201905081810360008301526124d181612495565b9050919050565b7f4552433732313a206d696e7420746f20746865207a65726f2061646472657373600082015250565b600061250e602083611a76565b9150612519826124d8565b602082019050919050565b6000602082019050818103600083015261253d81612501565b9050919050565b7f4552433732313a20746f6b656e20616c7265616479206d696e74656400000000600082015250565b600061257a601c83611a76565b915061258582612544565b602082019050919050565b600060208201905081810360008301526125a98161256d565b9050919050565b7f45524337323155524953746f726167653a2055524920736574206f66206e6f6e60008201527f6578697374656e7420746f6b656e000000000000000000000000000000000000602082015250565b600061260c602e83611a76565b9150612617826125b0565b604082019050919050565b6000602082019050818103600083015261263b816125ff565b9050919050565b60008190508160005260206000209050919050565b60006020601f8301049050919050565b600082821b905092915050565b6000600883026126a47fffffffffffffffffffffffffffffffffffffffffffffffffffffffffffffffff82612667565b6126ae8683612667565b95508019841693508086168417925050509392505050565b6000819050919050565b60006126eb6126e66126e184611b1d565b6126c6565b611b1d565b9050919050565b6000819050919050565b612705836126d0565b612719612711826126f2565b848454612674565b825550505050565b600090565b61272e612721565b6127398184846126fc565b505050565b5b8181101561275d57612752600082612726565b60018101905061273f565b5050565b601f8211156127a25761277381612642565b61277c84612657565b8101602085101561278b578190505b61279f61279785612657565b83018261273e565b50505b505050565b600082821c905092915050565b60006127c5600019846008026127a7565b1980831691505092915050565b60006127de83836127b4565b9150826002028217905092915050565b6127f782611a6b565b67ffffffffffffffff8111156128105761280f611ca5565b5b61281a825461206f565b612825828285612761565b600060209050601f8311600181146128585760008415612846578287015190505b61285085826127d2565b8655506128b8565b601f19841661286686612642565b60005b8281101561288e57848901518255600182019150602085019450602081019050612869565b868310156128ab57848901516128a7601f8916826127b4565b8355505b6001600288020188555050505b505050505050565b7f4552433732313a20617070726f766520746f2063616c6c657200000000000000600082015250565b60006128f6601983611a76565b9150612901826128c0565b602082019050919050565b60006020820190508181036000830152612925816128e9565b9050919050565b7f4552433732313a207472616e7366657220746f206e6f6e20455243373231526560008201527f63656976657220696d706c656d656e7465720000000000000000000000000000602082015250565b6000612988603283611a76565b91506129938261292c565b604082019050919050565b600060208201905081810360008301526129b78161297b565b9050919050565b600081519050919050565b600082825260208201905092915050565b60006129e5826129be565b6129ef81856129c9565b93506129ff818560208601611a87565b612a0881611ab1565b840191505092915050565b6000608082019050612a286000830187611bb2565b612a356020830186611bb2565b612a426040830185611e19565b8181036060830152612a5481846129da565b905095945050505050565b600081519050612a6e816119dc565b92915050565b600060208284031215612a8a57612a896119a6565b5b6000612a9884828501612a5f565b91505092915050565b7f4e487b7100000000000000000000000000000000000000000000000000000000600052601260045260246000fdfea2646970667358221220b57a9e62551de530b18008bf775c437c7069abbe460891735a8de00e7c228c6664736f6c63430008180033",
  "linkReferences": {},
  "deployedLinkReferences": {}
}