{
  "_format": "hh-sol-artifact-1",
  "contractName": "NFTAuction",
  "sourceName": "contracts/NFTAuction.sol",
  "abi": [
    {
      "anonymous": false,
      "inputs": [
        {
          "indexed": true,
          "internalType": "uint256",
          "name": "tokenId",
          "type": "uint256"
        },
        {
          "indexed": false,
          "internalType": "address",
          "name": "bidder",
          "type": "address"
        },
        {
          "indexed": false,
          "internalType": "uint256",
          "name": "price",
          "type": "uint256"
        }
      ],
      "name": "OfferAccepted",
      "type": "event"
    },
    {
      "anonymous": false,
      "inputs": [
        {
          "indexed": true,
          "internalType": "uint256",
          "name": "tokenId",
          "type": "uint256"
        },
        {
          "indexed": false,
          "internalType": "address",
          "name": "bidder",
          "type": "address"
        }
      ],
      "name": "OfferCanceled",
      "type": "event"
    },
    {
      "anonymous": false,
      "inputs": [
        {
          "indexed": true,
          "internalType": "uint256",
          "name": "tokenId",
          "type": "uint256"
        },
        {
          "indexed": false,
          "internalType": "address",
          "name": "bidder",
          "type": "address"
        },
        {
          "indexed": false,
          "internalType": "uint256",
          "name": "price",
          "type": "uint256"
        },
        {
          "indexed": false,
          "internalType": "uint256",
          "name": "timestamp",
          "type": "uint256"
        }
      ],
      "name": "OfferMade",
      "type": "event"
    },
    {
      "inputs": [
        {
          "internalType": "uint256",
          "name": "tokenId",
          "type": "uint256"
        }
      ],
      "name": "acceptOffer",
      "outputs": [],
      "stateMutability": "nonpayable",
      "type": "function"
    },
    {
      "inputs": [
        {
          "internalType": "uint256",
          "name": "tokenId",
          "type": "uint256"
        }
      ],
      "name": "cancelAllOffers",
      "outputs": [],
      "stateMutability": "nonpayable",
      "type": "function"
    },
    {
      "inputs": [
        {
          "internalType": "uint256",
          "name": "tokenId",
          "type": "uint256"
        }
      ],
      "name": "getHighestBidder",
      "outputs": [
        {
          "internalType": "address",
          "name": "",
          "type": "address"
        },
        {
          "internalType": "uint256",
          "name": "",
          "type": "uint256"
        }
      ],
      "stateMutability": "view",
      "type": "function"
    },
    {
      "inputs": [
        {
          "internalType": "uint256",
          "name": "tokenId",
          "type": "uint256"
        }
      ],
      "name": "getOffers",
      "outputs": [
        {
          "components": [
            {
              "internalType": "address payable",
              "name": "bidder",
              "type": "address"
            },
            {
              "internalType": "uint256",
              "name": "price",
              "type": "uint256"
            },
            {
              "internalType": "uint256",
              "name": "timestamp",
              "type": "uint256"
            },
            {
              "internalType": "bool",
              "name": "active",
              "type": "bool"
            }
          ],
          "internalType": "struct NFTAuction.Offer[]",
          "name": "",
          "type": "tuple[]"
        }
      ],
      "stateMutability": "view",
      "type": "function"
    },
    {
      "inputs": [
        {
          "internalType": "address payable",
          "name": "seller",
          "type": "address"
        },
        {
          "internalType": "uint256",
          "name": "highestPrice",
          "type": "uint256"
        }
      ],
      "name": "handleFundTransfer",
      "outputs": [],
      "stateMutability": "nonpayable",
      "type": "function"
    },
    {
      "inputs": [
        {
          "internalType": "uint256",
          "name": "tokenId",
          "type": "uint256"
        },
        {
          "internalType": "uint256",
          "name": "price",
          "type": "uint256"
        },
        {
          "internalType": "uint256",
          "name": "timestamp",
          "type": "uint256"
        }
      ],
      "name": "makeOffer",
      "outputs": [],
      "stateMutability": "payable",
      "type": "function"
    },
    {
      "inputs": [
        {
          "internalType": "uint256",
          "name": "",
          "type": "uint256"
        },
        {
          "internalType": "uint256",
          "name": "",
          "type": "uint256"
        }
      ],
      "name": "tokenIdToOffers",
      "outputs": [
        {
          "internalType": "address payable",
          "name": "bidder",
          "type": "address"
        },
        {
          "internalType": "uint256",
          "name": "price",
          "type": "uint256"
        },
        {
          "internalType": "uint256",
          "name": "timestamp",
          "type": "uint256"
        },
        {
          "internalType": "bool",
          "name": "active",
          "type": "bool"
        }
      ],
      "stateMutability": "view",
      "type": "function"
    },
    {
      "inputs": [
        {
          "internalType": "uint256",
          "name": "tokenId",
          "type": "uint256"
        }
      ],
      "name": "unmakeOffer",
      "outputs": [],
      "stateMutability": "nonpayable",
      "type": "function"
    }
  ],
  "bytecode": "0x608060405234801561001057600080fd5b5060016000819055506118b3806100286000396000f3fe60806040526004361061007b5760003560e01c8063c750cb791161004e578063c750cb791461013b578063c815729d14610179578063dfa49e6f146101a2578063e210a72d146101df5761007b565b80635be910a1146100805780636b50872b146100a95780637795960b146100e9578063c574f82414610112575b600080fd5b34801561008c57600080fd5b506100a760048036038101906100a291906110c2565b6101fb565b005b3480156100b557600080fd5b506100d060048036038101906100cb9190611102565b6102bc565b6040516100e0949392919061117b565b60405180910390f35b3480156100f557600080fd5b50610110600480360381019061010b91906111c0565b610336565b005b34801561011e57600080fd5b50610139600480360381019061013491906111c0565b6104a2565b005b34801561014757600080fd5b50610162600480360381019061015d91906111c0565b610692565b60405161017092919061120e565b60405180910390f35b34801561018557600080fd5b506101a0600480360381019061019b91906111c0565b6107af565b005b3480156101ae57600080fd5b506101c960048036038101906101c491906111c0565b610bb3565b6040516101d69190611368565b60405180910390f35b6101f960048036038101906101f4919061138a565b610caa565b005b610203610e3f565b60008273ffffffffffffffffffffffffffffffffffffffff16826040516102299061140e565b60006040518083038185875af1925050503d8060008114610266576040519150601f19603f3d011682016040523d82523d6000602084013e61026b565b606091505b50509050806102af576040517f08c379a00000000000000000000000000000000000000000000000000000000081526004016102a690611480565b60405180910390fd5b506102b8610e8e565b5050565b600160205281600052604060002081815481106102d857600080fd5b9060005260206000209060040201600091509150508060000160009054906101000a900473ffffffffffffffffffffffffffffffffffffffff16908060010154908060020154908060030160009054906101000a900460ff16905084565b61033e610e3f565b600060016000838152602001908152602001600020905060005b818054905081101561049557818181548110610377576103766114a0565b5b906000526020600020906004020160030160009054906101000a900460ff16156104885760008282815481106103b0576103af6114a0565b5b906000526020600020906004020160030160006101000a81548160ff0219169083151502179055508181815481106103eb576103ea6114a0565b5b906000526020600020906004020160000160009054906101000a900473ffffffffffffffffffffffffffffffffffffffff1673ffffffffffffffffffffffffffffffffffffffff166108fc838381548110610449576104486114a0565b5b9060005260206000209060040201600101549081150290604051600060405180830381858888f19350505050158015610486573d6000803e3d6000fd5b505b8080600101915050610358565b505061049f610e8e565b50565b6104aa610e3f565b60006001600083815260200190815260200160002090506000805b82805490508110156106445760008382815481106104e6576104e56114a0565b5b906000526020600020906004020190503373ffffffffffffffffffffffffffffffffffffffff168160000160009054906101000a900473ffffffffffffffffffffffffffffffffffffffff1673ffffffffffffffffffffffffffffffffffffffff1614801561056357508060030160009054906101000a900460ff165b156106365760008160030160006101000a81548160ff0219169083151502179055508060000160009054906101000a900473ffffffffffffffffffffffffffffffffffffffff1673ffffffffffffffffffffffffffffffffffffffff166108fc82600101549081150290604051600060405180830381858888f193505050501580156105f3573d6000803e3d6000fd5b50847f9a4dfa8787b349e9b45b60504f991c5c9f9cda8dadabdc8e4a3f4cb8608220a33360405161062491906114cf565b60405180910390a26001925050610644565b5080806001019150506104c5565b5080610685576040517f08c379a000000000000000000000000000000000000000000000000000000000815260040161067c90611536565b60405180910390fd5b505061068f610e8e565b50565b600080600060016000858152602001908152602001600020905060008060005b83805490508110156107a0578381815481106106d1576106d06114a0565b5b906000526020600020906004020160030160009054906101000a900460ff16801561071f57508284828154811061070b5761070a6114a0565b5b906000526020600020906004020160010154115b1561079357838181548110610737576107366114a0565b5b906000526020600020906004020160010154925083818154811061075e5761075d6114a0565b5b906000526020600020906004020160000160009054906101000a900473ffffffffffffffffffffffffffffffffffffffff1691505b80806001019150506106b2565b50808294509450505050915091565b6107b7610e3f565b60006001600083815260200190815260200160002090506000818054905011610815576040517f08c379a000000000000000000000000000000000000000000000000000000000815260040161080c906115a2565b60405180910390fd5b61081e82610e98565b60008060005b83805490508110156108ce57838181548110610843576108426114a0565b5b906000526020600020906004020160030160009054906101000a900460ff16801561089157508184828154811061087d5761087c6114a0565b5b906000526020600020906004020160010154115b156108c1578381815481106108a9576108a86114a0565b5b90600052602060002090600402016001015491508092505b8080600101915050610824565b5060008383815481106108e4576108e36114a0565b5b906000526020600020906004020190508060030160009054906101000a900460ff16610945576040517f08c379a000000000000000000000000000000000000000000000000000000000815260040161093c9061160e565b60405180910390fd5b600073ffffffffffffffffffffffffffffffffffffffff168160000160009054906101000a900473ffffffffffffffffffffffffffffffffffffffff1673ffffffffffffffffffffffffffffffffffffffff16036109d8576040517f08c379a00000000000000000000000000000000000000000000000000000000081526004016109cf906116a0565b60405180910390fd5b60008160030160006101000a81548160ff02191690831515021790555060005b8480549050811015610b4157838114158015610a425750848181548110610a2257610a216114a0565b5b906000526020600020906004020160030160009054906101000a900460ff165b15610b34576000858281548110610a5c57610a5b6114a0565b5b906000526020600020906004020160030160006101000a81548160ff021916908315150217905550848181548110610a9757610a966114a0565b5b906000526020600020906004020160000160009054906101000a900473ffffffffffffffffffffffffffffffffffffffff1673ffffffffffffffffffffffffffffffffffffffff166108fc868381548110610af557610af46114a0565b5b9060005260206000209060040201600101549081150290604051600060405180830381858888f19350505050158015610b32573d6000803e3d6000fd5b505b80806001019150506109f8565b50847fea555ab99331ceac5051c58f17cc7b411b30241b0e28cb93a7d3a24c77a7a9a98260000160009054906101000a900473ffffffffffffffffffffffffffffffffffffffff168360010154604051610b9c92919061171f565b60405180910390a250505050610bb0610e8e565b50565b606060016000838152602001908152602001600020805480602002602001604051908101604052809291908181526020016000905b82821015610c9f57838290600052602060002090600402016040518060800160405290816000820160009054906101000a900473ffffffffffffffffffffffffffffffffffffffff1673ffffffffffffffffffffffffffffffffffffffff1673ffffffffffffffffffffffffffffffffffffffff16815260200160018201548152602001600282015481526020016003820160009054906101000a900460ff16151515158152505081526020019060010190610be8565b505050509050919050565b610cb2610e3f565b813414610cf4576040517f08c379a0000000000000000000000000000000000000000000000000000000008152600401610ceb906117ba565b60405180910390fd5b610cfd83610e98565b600060405180608001604052803373ffffffffffffffffffffffffffffffffffffffff1681526020018481526020018381526020016001151581525090506001600085815260200190815260200160002081908060018154018082558091505060019003906000526020600020906004020160009091909190915060008201518160000160006101000a81548173ffffffffffffffffffffffffffffffffffffffff021916908373ffffffffffffffffffffffffffffffffffffffff160217905550602082015181600101556040820151816002015560608201518160030160006101000a81548160ff0219169083151502179055505050837fd7df0c72641d362ea57ecc9cab99c77f936e36bb826f096258c3404196b26d6a338585604051610e29939291906117da565b60405180910390a250610e3a610e8e565b505050565b600260005403610e84576040517f08c379a0000000000000000000000000000000000000000000000000000000008152600401610e7b9061185d565b60405180910390fd5b6002600081905550565b6001600081905550565b6000600160008381526020019081526020016000209050600042905060005b828054905081101561102357828181548110610ed657610ed56114a0565b5b906000526020600020906004020160030160009054906101000a900460ff168015610f24575081838281548110610f1057610f0f6114a0565b5b906000526020600020906004020160020154105b15611016576000838281548110610f3e57610f3d6114a0565b5b906000526020600020906004020160030160006101000a81548160ff021916908315150217905550828181548110610f7957610f786114a0565b5b906000526020600020906004020160000160009054906101000a900473ffffffffffffffffffffffffffffffffffffffff1673ffffffffffffffffffffffffffffffffffffffff166108fc848381548110610fd757610fd66114a0565b5b9060005260206000209060040201600101549081150290604051600060405180830381858888f19350505050158015611014573d6000803e3d6000fd5b505b8080600101915050610eb7565b50505050565b600080fd5b600073ffffffffffffffffffffffffffffffffffffffff82169050919050565b60006110598261102e565b9050919050565b6110698161104e565b811461107457600080fd5b50565b60008135905061108681611060565b92915050565b6000819050919050565b61109f8161108c565b81146110aa57600080fd5b50565b6000813590506110bc81611096565b92915050565b600080604083850312156110d9576110d8611029565b5b60006110e785828601611077565b92505060206110f8858286016110ad565b9150509250929050565b6000806040838503121561111957611118611029565b5b6000611127858286016110ad565b9250506020611138858286016110ad565b9150509250929050565b61114b8161104e565b82525050565b61115a8161108c565b82525050565b60008115159050919050565b61117581611160565b82525050565b60006080820190506111906000830187611142565b61119d6020830186611151565b6111aa6040830185611151565b6111b7606083018461116c565b95945050505050565b6000602082840312156111d6576111d5611029565b5b60006111e4848285016110ad565b91505092915050565b60006111f88261102e565b9050919050565b611208816111ed565b82525050565b600060408201905061122360008301856111ff565b6112306020830184611151565b9392505050565b600081519050919050565b600082825260208201905092915050565b6000819050602082019050919050565b61126c8161104e565b82525050565b61127b8161108c565b82525050565b61128a81611160565b82525050565b6080820160008201516112a66000850182611263565b5060208201516112b96020850182611272565b5060408201516112cc6040850182611272565b5060608201516112df6060850182611281565b50505050565b60006112f18383611290565b60808301905092915050565b6000602082019050919050565b600061131582611237565b61131f8185611242565b935061132a83611253565b8060005b8381101561135b57815161134288826112e5565b975061134d836112fd565b92505060018101905061132e565b5085935050505092915050565b60006020820190508181036000830152611382818461130a565b905092915050565b6000806000606084860312156113a3576113a2611029565b5b60006113b1868287016110ad565b93505060206113c2868287016110ad565b92505060406113d3868287016110ad565b9150509250925092565b600081905092915050565b50565b60006113f86000836113dd565b9150611403826113e8565b600082019050919050565b6000611419826113eb565b9150819050919050565b600082825260208201905092915050565b7f5472616e7366657220746f2073656c6c6572206661696c656400000000000000600082015250565b600061146a601983611423565b915061147582611434565b602082019050919050565b600060208201905081810360008301526114998161145d565b9050919050565b7f4e487b7100000000000000000000000000000000000000000000000000000000600052603260045260246000fd5b60006020820190506114e460008301846111ff565b92915050565b7f4e6f20616374697665206f6666657220666f756e6420666f722063616c6c6572600082015250565b6000611520602083611423565b915061152b826114ea565b602082019050919050565b6000602082019050818103600083015261154f81611513565b9050919050565b7f4e6f206f666665727320617661696c61626c6500000000000000000000000000600082015250565b600061158c601383611423565b915061159782611556565b602082019050919050565b600060208201905081810360008301526115bb8161157f565b9050919050565b7f48696768657374206f66666572206973206e6f74206163746976650000000000600082015250565b60006115f8601b83611423565b9150611603826115c2565b602082019050919050565b60006020820190508181036000830152611627816115eb565b9050919050565b7f48696768657374206f6666657220626964646572206973207a65726f2061646460008201527f7265737300000000000000000000000000000000000000000000000000000000602082015250565b600061168a602483611423565b91506116958261162e565b604082019050919050565b600060208201905081810360008301526116b98161167d565b9050919050565b6000819050919050565b60006116e56116e06116db8461102e565b6116c0565b61102e565b9050919050565b60006116f7826116ca565b9050919050565b6000611709826116ec565b9050919050565b611719816116fe565b82525050565b60006040820190506117346000830185611710565b6117416020830184611151565b9392505050565b7f45746865722073656e74206d75737420657175616c20746865206f666665722060008201527f7072696365000000000000000000000000000000000000000000000000000000602082015250565b60006117a4602583611423565b91506117af82611748565b604082019050919050565b600060208201905081810360008301526117d381611797565b9050919050565b60006060820190506117ef60008301866111ff565b6117fc6020830185611151565b6118096040830184611151565b949350505050565b7f5265656e7472616e637947756172643a207265656e7472616e742063616c6c00600082015250565b6000611847601f83611423565b915061185282611811565b602082019050919050565b600060208201905081810360008301526118768161183a565b905091905056fea264697066735822122080337c3ec1d9fae0079407a168828805a5067f31b78c5adf1fec816dbb25236164736f6c63430008180033",
  "linkReferences": {},
  "deployedLinkReferences": {}
}