{
  "_format": "hh-sol-artifact-1",
  "contractName": "NFTMarketplace",
  "sourceName": "contracts/NFTMarketplace.sol",
  "abi": [
    {
      "inputs": [
        {
          "internalType": "address",
          "name": "_auctionContractAddress",
          "type": "address"
        }
      ],
      "stateMutability": "nonpayable",
      "type": "constructor"
    },
    {
      "anonymous": false,
      "inputs": [
        {
          "indexed": true,
          "internalType": "address",
          "name": "owner",
          "type": "address"
        },
        {
          "indexed": true,
          "internalType": "address",
          "name": "approved",
          "type": "address"
        },
        {
          "indexed": true,
          "internalType": "uint256",
          "name": "tokenId",
          "type": "uint256"
        }
      ],
      "name": "Approval",
      "type": "event"
    },
    {
      "anonymous": false,
      "inputs": [
        {
          "indexed": true,
          "internalType": "address",
          "name": "owner",
          "type": "address"
        },
        {
          "indexed": true,
          "internalType": "address",
          "name": "operator",
          "type": "address"
        },
        {
          "indexed": false,
          "internalType": "bool",
          "name": "approved",
          "type": "bool"
        }
      ],
      "name": "ApprovalForAll",
      "type": "event"
    },
    {
      "anonymous": false,
      "inputs": [
        {
          "indexed": false,
          "internalType": "uint256",
          "name": "_fromTokenId",
          "type": "uint256"
        },
        {
          "indexed": false,
          "internalType": "uint256",
          "name": "_toTokenId",
          "type": "uint256"
        }
      ],
      "name": "BatchMetadataUpdate",
      "type": "event"
    },
    {
      "anonymous": false,
      "inputs": [
        {
          "indexed": true,
          "internalType": "uint256",
          "name": "tokenId",
          "type": "uint256"
        },
        {
          "indexed": false,
          "internalType": "address",
          "name": "seller",
          "type": "address"
        },
        {
          "indexed": false,
          "internalType": "address",
          "name": "owner",
          "type": "address"
        },
        {
          "indexed": false,
          "internalType": "uint256",
          "name": "price",
          "type": "uint256"
        },
        {
          "indexed": false,
          "internalType": "bool",
          "name": "sold",
          "type": "bool"
        },
        {
          "indexed": false,
          "internalType": "bool",
          "name": "canceled",
          "type": "bool"
        },
        {
          "indexed": false,
          "internalType": "uint256",
          "name": "timestamp",
          "type": "uint256"
        }
      ],
      "name": "MarketItemCreated",
      "type": "event"
    },
    {
      "anonymous": false,
      "inputs": [
        {
          "indexed": true,
          "internalType": "uint256",
          "name": "tokenId",
          "type": "uint256"
        },
        {
          "indexed": false,
          "internalType": "address",
          "name": "buyer",
          "type": "address"
        },
        {
          "indexed": false,
          "internalType": "uint256",
          "name": "price",
          "type": "uint256"
        }
      ],
      "name": "MarketItemSold",
      "type": "event"
    },
    {
      "anonymous": false,
      "inputs": [
        {
          "indexed": false,
          "internalType": "uint256",
          "name": "_tokenId",
          "type": "uint256"
        }
      ],
      "name": "MetadataUpdate",
      "type": "event"
    },
    {
      "anonymous": false,
      "inputs": [
        {
          "indexed": true,
          "internalType": "address",
          "name": "from",
          "type": "address"
        },
        {
          "indexed": true,
          "internalType": "address",
          "name": "to",
          "type": "address"
        },
        {
          "indexed": true,
          "internalType": "uint256",
          "name": "tokenId",
          "type": "uint256"
        }
      ],
      "name": "Transfer",
      "type": "event"
    },
    {
      "inputs": [
        {
          "internalType": "uint256",
          "name": "tokenId",
          "type": "uint256"
        }
      ],
      "name": "acceptOffer",
      "outputs": [],
      "stateMutability": "nonpayable",
      "type": "function"
    },
    {
      "inputs": [
        {
          "internalType": "address",
          "name": "to",
          "type": "address"
        },
        {
          "internalType": "uint256",
          "name": "tokenId",
          "type": "uint256"
        }
      ],
      "name": "approve",
      "outputs": [],
      "stateMutability": "nonpayable",
      "type": "function"
    },
    {
      "inputs": [
        {
          "internalType": "address",
          "name": "owner",
          "type": "address"
        }
      ],
      "name": "balanceOf",
      "outputs": [
        {
          "internalType": "uint256",
          "name": "",
          "type": "uint256"
        }
      ],
      "stateMutability": "view",
      "type": "function"
    },
    {
      "inputs": [],
      "name": "cancelExpiredMarketItems",
      "outputs": [],
      "stateMutability": "nonpayable",
      "type": "function"
    },
    {
      "inputs": [
        {
          "internalType": "uint256",
          "name": "tokenId",
          "type": "uint256"
        }
      ],
      "name": "cancelMarketItem",
      "outputs": [],
      "stateMutability": "nonpayable",
      "type": "function"
    },
    {
      "inputs": [
        {
          "internalType": "uint256",
          "name": "tokenId",
          "type": "uint256"
        }
      ],
      "name": "createMarketSale",
      "outputs": [],
      "stateMutability": "payable",
      "type": "function"
    },
    {
      "inputs": [
        {
          "internalType": "string",
          "name": "tokenURI",
          "type": "string"
        },
        {
          "internalType": "uint256",
          "name": "price",
          "type": "uint256"
        },
        {
          "internalType": "uint256",
          "name": "timesAuctions",
          "type": "uint256"
        }
      ],
      "name": "createToken",
      "outputs": [
        {
          "internalType": "uint256",
          "name": "",
          "type": "uint256"
        }
      ],
      "stateMutability": "payable",
      "type": "function"
    },
    {
      "inputs": [],
      "name": "fetchItemsListed",
      "outputs": [
        {
          "components": [
            {
              "internalType": "uint256",
              "name": "tokenId",
              "type": "uint256"
            },
            {
              "internalType": "address payable",
              "name": "seller",
              "type": "address"
            },
            {
              "internalType": "address payable",
              "name": "owner",
              "type": "address"
            },
            {
              "internalType": "uint256",
              "name": "price",
              "type": "uint256"
            },
            {
              "internalType": "bool",
              "name": "sold",
              "type": "bool"
            },
            {
              "internalType": "bool",
              "name": "canceled",
              "type": "bool"
            },
            {
              "internalType": "uint256",
              "name": "timestamp",
              "type": "uint256"
            }
          ],
          "internalType": "struct NFTMarketplace.MarketItem[]",
          "name": "",
          "type": "tuple[]"
        }
      ],
      "stateMutability": "view",
      "type": "function"
    },
    {
      "inputs": [],
      "name": "fetchMarketItem",
      "outputs": [
        {
          "components": [
            {
              "internalType": "uint256",
              "name": "tokenId",
              "type": "uint256"
            },
            {
              "internalType": "address payable",
              "name": "seller",
              "type": "address"
            },
            {
              "internalType": "address payable",
              "name": "owner",
              "type": "address"
            },
            {
              "internalType": "uint256",
              "name": "price",
              "type": "uint256"
            },
            {
              "internalType": "bool",
              "name": "sold",
              "type": "bool"
            },
            {
              "internalType": "bool",
              "name": "canceled",
              "type": "bool"
            },
            {
              "internalType": "uint256",
              "name": "timestamp",
              "type": "uint256"
            }
          ],
          "internalType": "struct NFTMarketplace.MarketItem[]",
          "name": "",
          "type": "tuple[]"
        }
      ],
      "stateMutability": "view",
      "type": "function"
    },
    {
      "inputs": [],
      "name": "fetchMyNFTs",
      "outputs": [
        {
          "components": [
            {
              "internalType": "uint256",
              "name": "tokenId",
              "type": "uint256"
            },
            {
              "internalType": "address payable",
              "name": "seller",
              "type": "address"
            },
            {
              "internalType": "address payable",
              "name": "owner",
              "type": "address"
            },
            {
              "internalType": "uint256",
              "name": "price",
              "type": "uint256"
            },
            {
              "internalType": "bool",
              "name": "sold",
              "type": "bool"
            },
            {
              "internalType": "bool",
              "name": "canceled",
              "type": "bool"
            },
            {
              "internalType": "uint256",
              "name": "timestamp",
              "type": "uint256"
            }
          ],
          "internalType": "struct NFTMarketplace.MarketItem[]",
          "name": "",
          "type": "tuple[]"
        }
      ],
      "stateMutability": "view",
      "type": "function"
    },
    {
      "inputs": [
        {
          "internalType": "uint256",
          "name": "tokenId",
          "type": "uint256"
        }
      ],
      "name": "getApproved",
      "outputs": [
        {
          "internalType": "address",
          "name": "",
          "type": "address"
        }
      ],
      "stateMutability": "view",
      "type": "function"
    },
    {
      "inputs": [],
      "name": "getListingPrice",
      "outputs": [
        {
          "internalType": "uint256",
          "name": "",
          "type": "uint256"
        }
      ],
      "stateMutability": "view",
      "type": "function"
    },
    {
      "inputs": [
        {
          "internalType": "address",
          "name": "owner",
          "type": "address"
        },
        {
          "internalType": "address",
          "name": "operator",
          "type": "address"
        }
      ],
      "name": "isApprovedForAll",
      "outputs": [
        {
          "internalType": "bool",
          "name": "",
          "type": "bool"
        }
      ],
      "stateMutability": "view",
      "type": "function"
    },
    {
      "inputs": [],
      "name": "name",
      "outputs": [
        {
          "internalType": "string",
          "name": "",
          "type": "string"
        }
      ],
      "stateMutability": "view",
      "type": "function"
    },
    {
      "inputs": [
        {
          "internalType": "uint256",
          "name": "tokenId",
          "type": "uint256"
        }
      ],
      "name": "ownerOf",
      "outputs": [
        {
          "internalType": "address",
          "name": "",
          "type": "address"
        }
      ],
      "stateMutability": "view",
      "type": "function"
    },
    {
      "inputs": [
        {
          "internalType": "uint256",
          "name": "tokenId",
          "type": "uint256"
        },
        {
          "internalType": "uint256",
          "name": "price",
          "type": "uint256"
        },
        {
          "internalType": "uint256",
          "name": "timeActions",
          "type": "uint256"
        }
      ],
      "name": "resellToken",
      "outputs": [],
      "stateMutability": "payable",
      "type": "function"
    },
    {
      "inputs": [
        {
          "internalType": "address",
          "name": "from",
          "type": "address"
        },
        {
          "internalType": "address",
          "name": "to",
          "type": "address"
        },
        {
          "internalType": "uint256",
          "name": "tokenId",
          "type": "uint256"
        }
      ],
      "name": "safeTransferFrom",
      "outputs": [],
      "stateMutability": "nonpayable",
      "type": "function"
    },
    {
      "inputs": [
        {
          "internalType": "address",
          "name": "from",
          "type": "address"
        },
        {
          "internalType": "address",
          "name": "to",
          "type": "address"
        },
        {
          "internalType": "uint256",
          "name": "tokenId",
          "type": "uint256"
        },
        {
          "internalType": "bytes",
          "name": "data",
          "type": "bytes"
        }
      ],
      "name": "safeTransferFrom",
      "outputs": [],
      "stateMutability": "nonpayable",
      "type": "function"
    },
    {
      "inputs": [
        {
          "internalType": "address",
          "name": "operator",
          "type": "address"
        },
        {
          "internalType": "bool",
          "name": "approved",
          "type": "bool"
        }
      ],
      "name": "setApprovalForAll",
      "outputs": [],
      "stateMutability": "nonpayable",
      "type": "function"
    },
    {
      "inputs": [
        {
          "internalType": "bytes4",
          "name": "interfaceId",
          "type": "bytes4"
        }
      ],
      "name": "supportsInterface",
      "outputs": [
        {
          "internalType": "bool",
          "name": "",
          "type": "bool"
        }
      ],
      "stateMutability": "view",
      "type": "function"
    },
    {
      "inputs": [],
      "name": "symbol",
      "outputs": [
        {
          "internalType": "string",
          "name": "",
          "type": "string"
        }
      ],
      "stateMutability": "view",
      "type": "function"
    },
    {
      "inputs": [
        {
          "internalType": "uint256",
          "name": "tokenId",
          "type": "uint256"
        }
      ],
      "name": "tokenURI",
      "outputs": [
        {
          "internalType": "string",
          "name": "",
          "type": "string"
        }
      ],
      "stateMutability": "view",
      "type": "function"
    },
    {
      "inputs": [
        {
          "internalType": "address",
          "name": "from",
          "type": "address"
        },
        {
          "internalType": "address",
          "name": "to",
          "type": "address"
        },
        {
          "internalType": "uint256",
          "name": "tokenId",
          "type": "uint256"
        }
      ],
      "name": "transferFrom",
      "outputs": [],
      "stateMutability": "nonpayable",
      "type": "function"
    },
    {
      "inputs": [
        {
          "internalType": "uint256",
          "name": "tokenId",
          "type": "uint256"
        },
        {
          "internalType": "address",
          "name": "to",
          "type": "address"
        }
      ],
      "name": "transferNFT",
      "outputs": [],
      "stateMutability": "nonpayable",
      "type": "function"
    },
    {
      "inputs": [
        {
          "internalType": "uint256",
          "name": "_listingPrice",
          "type": "uint256"
        }
      ],
      "name": "updateListingPrice",
      "outputs": [],
      "stateMutability": "nonpayable",
      "type": "function"
    }
  ],
  "bytecode": "0x6080604052650da475abf000600a553480156200001b57600080fd5b5060405162005a3f38038062005a3f8339818101604052810190620000419190620001ce565b6040518060400160405280601081526020017f4d657461766572736520546f6b656e73000000000000000000000000000000008152506040518060400160405280600481526020017f4d455454000000000000000000000000000000000000000000000000000000008152508160009081620000be91906200047a565b508060019081620000d091906200047a565b505050600160078190555033600b60006101000a81548173ffffffffffffffffffffffffffffffffffffffff021916908373ffffffffffffffffffffffffffffffffffffffff16021790555080600d60006101000a81548173ffffffffffffffffffffffffffffffffffffffff021916908373ffffffffffffffffffffffffffffffffffffffff1602179055505062000561565b600080fd5b600073ffffffffffffffffffffffffffffffffffffffff82169050919050565b6000620001968262000169565b9050919050565b620001a88162000189565b8114620001b457600080fd5b50565b600081519050620001c8816200019d565b92915050565b600060208284031215620001e757620001e662000164565b5b6000620001f784828501620001b7565b91505092915050565b600081519050919050565b7f4e487b7100000000000000000000000000000000000000000000000000000000600052604160045260246000fd5b7f4e487b7100000000000000000000000000000000000000000000000000000000600052602260045260246000fd5b600060028204905060018216806200028257607f821691505b6020821081036200029857620002976200023a565b5b50919050565b60008190508160005260206000209050919050565b60006020601f8301049050919050565b600082821b905092915050565b600060088302620003027fffffffffffffffffffffffffffffffffffffffffffffffffffffffffffffffff82620002c3565b6200030e8683620002c3565b95508019841693508086168417925050509392505050565b6000819050919050565b6000819050919050565b60006200035b620003556200034f8462000326565b62000330565b62000326565b9050919050565b6000819050919050565b62000377836200033a565b6200038f620003868262000362565b848454620002d0565b825550505050565b600090565b620003a662000397565b620003b38184846200036c565b505050565b5b81811015620003db57620003cf6000826200039c565b600181019050620003b9565b5050565b601f8211156200042a57620003f4816200029e565b620003ff84620002b3565b810160208510156200040f578190505b620004276200041e85620002b3565b830182620003b8565b50505b505050565b600082821c905092915050565b60006200044f600019846008026200042f565b1980831691505092915050565b60006200046a83836200043c565b9150826002028217905092915050565b620004858262000200565b67ffffffffffffffff811115620004a157620004a06200020b565b5b620004ad825462000269565b620004ba828285620003df565b600060209050601f831160018114620004f25760008415620004dd578287015190505b620004e985826200045c565b86555062000559565b601f19841662000502866200029e565b60005b828110156200052c5784890151825560018201915060208501945060208101905062000505565b868310156200054c578489015162000548601f8916826200043c565b8355505b6001600288020188555050505b505050505050565b6154ce80620005716000396000f3fe6080604052600436106101665760003560e01c80639036c050116100d1578063be9af5361161008a578063c87b56dd11610064578063c87b56dd1461051e578063e985e9c51461055b578063ea31247a14610598578063ec7fac70146105b457610166565b8063be9af536146104a9578063bec2a7c5146104c5578063c815729d146104f557610166565b80639036c050146103b157806395d89b41146103da578063a22cb46514610405578063a6e22b021461042e578063ae677aa314610457578063b88d4fde1461048057610166565b806323b872dd1161012357806323b872dd1461028f57806342842e0e146102b857806345f8fa80146102e15780636352211e1461030c57806370a08231146103495780638fafd0211461038657610166565b806301ffc9a71461016b57806306fdde03146101a8578063081812fc146101d3578063095ea7b31461021057806312e8558514610239578063202e374014610264575b600080fd5b34801561017757600080fd5b50610192600480360381019061018d91906138c7565b6105cb565b60405161019f919061390f565b60405180910390f35b3480156101b457600080fd5b506101bd61062c565b6040516101ca91906139ba565b60405180910390f35b3480156101df57600080fd5b506101fa60048036038101906101f59190613a12565b6106be565b6040516102079190613a80565b60405180910390f35b34801561021c57600080fd5b5061023760048036038101906102329190613ac7565b610704565b005b34801561024557600080fd5b5061024e61081b565b60405161025b9190613b16565b60405180910390f35b34801561027057600080fd5b50610279610825565b6040516102869190613cad565b60405180910390f35b34801561029b57600080fd5b506102b660048036038101906102b19190613ccf565b610b24565b005b3480156102c457600080fd5b506102df60048036038101906102da9190613ccf565b610b84565b005b3480156102ed57600080fd5b506102f6610ba4565b6040516103039190613cad565b60405180910390f35b34801561031857600080fd5b50610333600480360381019061032e9190613a12565b610ea9565b6040516103409190613a80565b60405180910390f35b34801561035557600080fd5b50610370600480360381019061036b9190613d22565b610f2f565b60405161037d9190613b16565b60405180910390f35b34801561039257600080fd5b5061039b610fe6565b6040516103a89190613cad565b60405180910390f35b3480156103bd57600080fd5b506103d860048036038101906103d39190613d4f565b611359565b005b3480156103e657600080fd5b506103ef61154a565b6040516103fc91906139ba565b60405180910390f35b34801561041157600080fd5b5061042c60048036038101906104279190613dbb565b6115dc565b005b34801561043a57600080fd5b5061045560048036038101906104509190613a12565b6115f2565b005b34801561046357600080fd5b5061047e60048036038101906104799190613a12565b61188e565b005b34801561048c57600080fd5b506104a760048036038101906104a29190613f30565b611898565b005b6104c360048036038101906104be9190613a12565b6118fa565b005b6104df60048036038101906104da9190614054565b611b50565b6040516104ec9190613b16565b60405180910390f35b34801561050157600080fd5b5061051c60048036038101906105179190613a12565b611be8565b005b34801561052a57600080fd5b5061054560048036038101906105409190613a12565b61205d565b60405161055291906139ba565b60405180910390f35b34801561056757600080fd5b50610582600480360381019061057d91906140c3565b61216f565b60405161058f919061390f565b60405180910390f35b6105b260048036038101906105ad9190614103565b612203565b005b3480156105c057600080fd5b506105c9612466565b005b6000634906490660e01b7bffffffffffffffffffffffffffffffffffffffffffffffffffffffff1916827bffffffffffffffffffffffffffffffffffffffffffffffffffffffff191614806106255750610624826125d5565b5b9050919050565b60606000805461063b90614185565b80601f016020809104026020016040519081016040528092919081815260200182805461066790614185565b80156106b45780601f10610689576101008083540402835291602001916106b4565b820191906000526020600020905b81548152906001019060200180831161069757829003601f168201915b5050505050905090565b60006106c9826126b7565b6004600083815260200190815260200160002060009054906101000a900473ffffffffffffffffffffffffffffffffffffffff169050919050565b600061070f82610ea9565b90508073ffffffffffffffffffffffffffffffffffffffff168373ffffffffffffffffffffffffffffffffffffffff160361077f576040517f08c379a000000000000000000000000000000000000000000000000000000000815260040161077690614228565b60405180910390fd5b8073ffffffffffffffffffffffffffffffffffffffff1661079e612702565b73ffffffffffffffffffffffffffffffffffffffff1614806107cd57506107cc816107c7612702565b61216f565b5b61080c576040517f08c379a0000000000000000000000000000000000000000000000000000000008152600401610803906142ba565b60405180910390fd5b610816838361270a565b505050565b6000600a54905090565b6060600061083360086127c3565b9050600080606060005b848110156108d7573373ffffffffffffffffffffffffffffffffffffffff16600c600060018461086d9190614309565b815260200190815260200160002060020160009054906101000a900473ffffffffffffffffffffffffffffffffffffffff1673ffffffffffffffffffffffffffffffffffffffff16036108ca576001846108c79190614309565b93505b808060010191505061083d565b508267ffffffffffffffff8111156108f2576108f1613e05565b5b60405190808252806020026020018201604052801561092b57816020015b6109186137ee565b8152602001906001900390816109105790505b50905060005b84811015610b19573373ffffffffffffffffffffffffffffffffffffffff16600c60006001846109619190614309565b815260200190815260200160002060020160009054906101000a900473ffffffffffffffffffffffffffffffffffffffff1673ffffffffffffffffffffffffffffffffffffffff1603610b0c5760006001826109bd9190614309565b9050600c60008281526020019081526020016000206040518060e0016040529081600082015481526020016001820160009054906101000a900473ffffffffffffffffffffffffffffffffffffffff1673ffffffffffffffffffffffffffffffffffffffff1673ffffffffffffffffffffffffffffffffffffffff1681526020016002820160009054906101000a900473ffffffffffffffffffffffffffffffffffffffff1673ffffffffffffffffffffffffffffffffffffffff1673ffffffffffffffffffffffffffffffffffffffff168152602001600382015481526020016004820160009054906101000a900460ff161515151581526020016004820160019054906101000a900460ff16151515158152602001600582015481525050838581518110610af057610aef61433d565b5b6020026020010181905250600184610b089190614309565b9350505b8080600101915050610931565b508094505050505090565b610b35610b2f612702565b826127d1565b610b74576040517f08c379a0000000000000000000000000000000000000000000000000000000008152600401610b6b906143de565b60405180910390fd5b610b7f838383612866565b505050565b610b9f83838360405180602001604052806000815250611898565b505050565b60606000610bb260086127c3565b905060008060005b83811015610c54573373ffffffffffffffffffffffffffffffffffffffff16600c6000600184610bea9190614309565b815260200190815260200160002060010160009054906101000a900473ffffffffffffffffffffffffffffffffffffffff1673ffffffffffffffffffffffffffffffffffffffff1603610c4757600183610c449190614309565b92505b8080600101915050610bba565b5060008267ffffffffffffffff811115610c7157610c70613e05565b5b604051908082528060200260200182016040528015610caa57816020015b610c976137ee565b815260200190600190039081610c8f5790505b50905060005b84811015610e9e573373ffffffffffffffffffffffffffffffffffffffff16600c6000600184610ce09190614309565b815260200190815260200160002060010160009054906101000a900473ffffffffffffffffffffffffffffffffffffffff1673ffffffffffffffffffffffffffffffffffffffff1603610e91576000600182610d3c9190614309565b90506000600c60008381526020019081526020016000209050806040518060e0016040529081600082015481526020016001820160009054906101000a900473ffffffffffffffffffffffffffffffffffffffff1673ffffffffffffffffffffffffffffffffffffffff1673ffffffffffffffffffffffffffffffffffffffff1681526020016002820160009054906101000a900473ffffffffffffffffffffffffffffffffffffffff1673ffffffffffffffffffffffffffffffffffffffff1673ffffffffffffffffffffffffffffffffffffffff168152602001600382015481526020016004820160009054906101000a900460ff161515151581526020016004820160019054906101000a900460ff16151515158152602001600582015481525050848681518110610e7457610e7361433d565b5b6020026020010181905250600185610e8c9190614309565b945050505b8080600101915050610cb0565b508094505050505090565b600080610eb583612b5f565b9050600073ffffffffffffffffffffffffffffffffffffffff168173ffffffffffffffffffffffffffffffffffffffff1603610f26576040517f08c379a0000000000000000000000000000000000000000000000000000000008152600401610f1d9061444a565b60405180910390fd5b80915050919050565b60008073ffffffffffffffffffffffffffffffffffffffff168273ffffffffffffffffffffffffffffffffffffffff1603610f9f576040517f08c379a0000000000000000000000000000000000000000000000000000000008152600401610f96906144dc565b60405180910390fd5b600360008373ffffffffffffffffffffffffffffffffffffffff1673ffffffffffffffffffffffffffffffffffffffff168152602001908152602001600020549050919050565b60606000610ff460086127c3565b9050600080606060005b848110156110d2573073ffffffffffffffffffffffffffffffffffffffff16600c600060018461102e9190614309565b815260200190815260200160002060020160009054906101000a900473ffffffffffffffffffffffffffffffffffffffff1673ffffffffffffffffffffffffffffffffffffffff161480156110b05750600c600060018361108f9190614309565b815260200190815260200160002060040160019054906101000a900460ff16155b156110c5576001846110c29190614309565b93505b8080600101915050610ffe565b508267ffffffffffffffff8111156110ed576110ec613e05565b5b60405190808252806020026020018201604052801561112657816020015b6111136137ee565b81526020019060019003908161110b5790505b50905060005b8481101561134e573073ffffffffffffffffffffffffffffffffffffffff16600c600060018461115c9190614309565b815260200190815260200160002060020160009054906101000a900473ffffffffffffffffffffffffffffffffffffffff1673ffffffffffffffffffffffffffffffffffffffff161480156111de5750600c60006001836111bd9190614309565b815260200190815260200160002060040160019054906101000a900460ff16155b156113415760006001826111f29190614309565b9050600c60008281526020019081526020016000206040518060e0016040529081600082015481526020016001820160009054906101000a900473ffffffffffffffffffffffffffffffffffffffff1673ffffffffffffffffffffffffffffffffffffffff1673ffffffffffffffffffffffffffffffffffffffff1681526020016002820160009054906101000a900473ffffffffffffffffffffffffffffffffffffffff1673ffffffffffffffffffffffffffffffffffffffff1673ffffffffffffffffffffffffffffffffffffffff168152602001600382015481526020016004820160009054906101000a900460ff161515151581526020016004820160019054906101000a900460ff161515151581526020016005820154815250508385815181106113255761132461433d565b5b602002602001018190525060018461133d9190614309565b9350505b808060010191505061112c565b508094505050505090565b611361612b9c565b3373ffffffffffffffffffffffffffffffffffffffff16600c600084815260200190815260200160002060020160009054906101000a900473ffffffffffffffffffffffffffffffffffffffff1673ffffffffffffffffffffffffffffffffffffffff1614611405576040517f08c379a00000000000000000000000000000000000000000000000000000000081526004016113fc9061456e565b60405180910390fd5b600073ffffffffffffffffffffffffffffffffffffffff168173ffffffffffffffffffffffffffffffffffffffff1603611474576040517f08c379a000000000000000000000000000000000000000000000000000000000815260040161146b90614600565b60405180910390fd5b61147f338284612866565b3373ffffffffffffffffffffffffffffffffffffffff16600c600084815260200190815260200160002060020160009054906101000a900473ffffffffffffffffffffffffffffffffffffffff1673ffffffffffffffffffffffffffffffffffffffff160361153e5780600c600084815260200190815260200160002060020160006101000a81548173ffffffffffffffffffffffffffffffffffffffff021916908373ffffffffffffffffffffffffffffffffffffffff1602179055505b611546612beb565b5050565b60606001805461155990614185565b80601f016020809104026020016040519081016040528092919081815260200182805461158590614185565b80156115d25780601f106115a7576101008083540402835291602001916115d2565b820191906000526020600020905b8154815290600101906020018083116115b557829003601f168201915b5050505050905090565b6115ee6115e7612702565b8383612bf5565b5050565b6115fa612b9c565b6000600c600083815260200190815260200160002090503373ffffffffffffffffffffffffffffffffffffffff168160010160009054906101000a900473ffffffffffffffffffffffffffffffffffffffff1673ffffffffffffffffffffffffffffffffffffffff16146116a3576040517f08c379a000000000000000000000000000000000000000000000000000000000815260040161169a90614692565b60405180910390fd5b600015158160040160009054906101000a900460ff161515146116fb576040517f08c379a00000000000000000000000000000000000000000000000000000000081526004016116f2906146fe565b60405180910390fd5b600d60009054906101000a900473ffffffffffffffffffffffffffffffffffffffff1673ffffffffffffffffffffffffffffffffffffffff16637795960b836040518263ffffffff1660e01b81526004016117569190613b16565b600060405180830381600087803b15801561177057600080fd5b505af1158015611784573d6000803e3d6000fd5b505050506117926009612d61565b8060010160009054906101000a900473ffffffffffffffffffffffffffffffffffffffff168160020160006101000a81548173ffffffffffffffffffffffffffffffffffffffff021916908373ffffffffffffffffffffffffffffffffffffffff16021790555060008160010160006101000a81548173ffffffffffffffffffffffffffffffffffffffff021916908373ffffffffffffffffffffffffffffffffffffffff16021790555060008160040160006101000a81548160ff02191690831515021790555060018160040160016101000a81548160ff021916908315150217905550611882303384612866565b5061188b612beb565b50565b80600a8190555050565b6118a96118a3612702565b836127d1565b6118e8576040517f08c379a00000000000000000000000000000000000000000000000000000000081526004016118df906143de565b60405180910390fd5b6118f484848484612d77565b50505050565b611902612b9c565b61190a612466565b6000600c60008381526020019081526020016000206003015490506000600c600084815260200190815260200160002060010160009054906101000a900473ffffffffffffffffffffffffffffffffffffffff1690508134146119a2576040517f08c379a000000000000000000000000000000000000000000000000000000000815260040161199990614790565b60405180910390fd5b33600c600085815260200190815260200160002060020160006101000a81548173ffffffffffffffffffffffffffffffffffffffff021916908373ffffffffffffffffffffffffffffffffffffffff1602179055506001600c600085815260200190815260200160002060040160006101000a81548160ff021916908315150217905550611a306009612d61565b611a3b303385612866565b600b60009054906101000a900473ffffffffffffffffffffffffffffffffffffffff1673ffffffffffffffffffffffffffffffffffffffff166108fc600a549081150290604051600060405180830381858888f19350505050158015611aa5573d6000803e3d6000fd5b508073ffffffffffffffffffffffffffffffffffffffff166108fc349081150290604051600060405180830381858888f19350505050158015611aec573d6000803e3d6000fd5b506000600c600085815260200190815260200160002060010160006101000a81548173ffffffffffffffffffffffffffffffffffffffff021916908373ffffffffffffffffffffffffffffffffffffffff1602179055505050611b4d612beb565b50565b6000611b5a612b9c565b600a543414611b9e576040517f08c379a0000000000000000000000000000000000000000000000000000000008152600401611b9590614822565b60405180910390fd5b611ba86008612d61565b6000611bb460086127c3565b9050611bc03382612dd3565b611bca8186612ff0565b611bd5818585613094565b80915050611be1612beb565b9392505050565b611bf0612b9c565b6000600c600083815260200190815260200160002090503373ffffffffffffffffffffffffffffffffffffffff168160010160009054906101000a900473ffffffffffffffffffffffffffffffffffffffff1673ffffffffffffffffffffffffffffffffffffffff1614611c99576040517f08c379a0000000000000000000000000000000000000000000000000000000008152600401611c90906148b4565b60405180910390fd5b600080600d60009054906101000a900473ffffffffffffffffffffffffffffffffffffffff1673ffffffffffffffffffffffffffffffffffffffff1663c750cb79856040518263ffffffff1660e01b8152600401611cf79190613b16565b6040805180830381865afa158015611d13573d6000803e3d6000fd5b505050506040513d601f19601f82011682018060405250810190611d3791906148fe565b91509150600073ffffffffffffffffffffffffffffffffffffffff168273ffffffffffffffffffffffffffffffffffffffff1603611daa576040517f08c379a0000000000000000000000000000000000000000000000000000000008152600401611da19061498a565b60405180910390fd5b80600d60009054906101000a900473ffffffffffffffffffffffffffffffffffffffff1673ffffffffffffffffffffffffffffffffffffffff16311015611e26576040517f08c379a0000000000000000000000000000000000000000000000000000000008152600401611e1d90614a1c565b60405180910390fd5b600d60009054906101000a900473ffffffffffffffffffffffffffffffffffffffff1673ffffffffffffffffffffffffffffffffffffffff1663c815729d856040518263ffffffff1660e01b8152600401611e819190613b16565b600060405180830381600087803b158015611e9b57600080fd5b505af1158015611eaf573d6000803e3d6000fd5b50505050611ebe308386612866565b600d60009054906101000a900473ffffffffffffffffffffffffffffffffffffffff1673ffffffffffffffffffffffffffffffffffffffff16635be910a18460010160009054906101000a900473ffffffffffffffffffffffffffffffffffffffff16836040518363ffffffff1660e01b8152600401611f3f929190614a4b565b600060405180830381600087803b158015611f5957600080fd5b505af1158015611f6d573d6000803e3d6000fd5b50505050818360020160006101000a81548173ffffffffffffffffffffffffffffffffffffffff021916908373ffffffffffffffffffffffffffffffffffffffff16021790555060018360040160006101000a81548160ff02191690831515021790555060008360010160006101000a81548173ffffffffffffffffffffffffffffffffffffffff021916908373ffffffffffffffffffffffffffffffffffffffff160217905550837f79705a7faf0849ec33d9f436aa88d50146d23806527cf13010abf315cbfe76008383604051612047929190614a74565b60405180910390a250505061205a612beb565b50565b6060612068826126b7565b600060066000848152602001908152602001600020805461208890614185565b80601f01602080910402602001604051908101604052809291908181526020018280546120b490614185565b80156121015780601f106120d657610100808354040283529160200191612101565b820191906000526020600020905b8154815290600101906020018083116120e457829003601f168201915b505050505090506000612112613291565b9050600081510361212757819250505061216a565b60008251111561215c578082604051602001612144929190614ad9565b6040516020818303038152906040529250505061216a565b612165846132a8565b925050505b919050565b6000600560008473ffffffffffffffffffffffffffffffffffffffff1673ffffffffffffffffffffffffffffffffffffffff16815260200190815260200160002060008373ffffffffffffffffffffffffffffffffffffffff1673ffffffffffffffffffffffffffffffffffffffff16815260200190815260200160002060009054906101000a900460ff16905092915050565b61220b612b9c565b3373ffffffffffffffffffffffffffffffffffffffff16600c600085815260200190815260200160002060020160009054906101000a900473ffffffffffffffffffffffffffffffffffffffff1673ffffffffffffffffffffffffffffffffffffffff16146122af576040517f08c379a00000000000000000000000000000000000000000000000000000000081526004016122a690614b6f565b60405180910390fd5b600a5434146122f3576040517f08c379a00000000000000000000000000000000000000000000000000000000081526004016122ea90614822565b60405180910390fd5b80600c6000858152602001908152602001600020600501819055506000600c600085815260200190815260200160002060040160006101000a81548160ff0219169083151502179055506000600c600085815260200190815260200160002060040160016101000a81548160ff02191690831515021790555081600c60008581526020019081526020016000206003018190555033600c600085815260200190815260200160002060010160006101000a81548173ffffffffffffffffffffffffffffffffffffffff021916908373ffffffffffffffffffffffffffffffffffffffff16021790555030600c600085815260200190815260200160002060020160006101000a81548173ffffffffffffffffffffffffffffffffffffffff021916908373ffffffffffffffffffffffffffffffffffffffff160217905550600061243d60096127c3565b111561244e5761244d6009613310565b5b612459333085612866565b612461612beb565b505050565b600061247260086127c3565b90506000600190505b8181116125d1573073ffffffffffffffffffffffffffffffffffffffff16600c600083815260200190815260200160002060020160009054906101000a900473ffffffffffffffffffffffffffffffffffffffff1673ffffffffffffffffffffffffffffffffffffffff161480156125145750600c600082815260200190815260200160002060040160019054906101000a900460ff16155b156125be57600c60008281526020019081526020016000206005015442106125bd576001600c600083815260200190815260200160002060040160016101000a81548160ff0219169083151502179055506125bc30600c600084815260200190815260200160002060010160009054906101000a900473ffffffffffffffffffffffffffffffffffffffff16600c600085815260200190815260200160002060000154612866565b5b5b80806125c990614b8f565b91505061247b565b5050565b60007f80ac58cd000000000000000000000000000000000000000000000000000000007bffffffffffffffffffffffffffffffffffffffffffffffffffffffff1916827bffffffffffffffffffffffffffffffffffffffffffffffffffffffff191614806126a057507f5b5e139f000000000000000000000000000000000000000000000000000000007bffffffffffffffffffffffffffffffffffffffffffffffffffffffff1916827bffffffffffffffffffffffffffffffffffffffffffffffffffffffff1916145b806126b057506126af8261336c565b5b9050919050565b6126c0816133d6565b6126ff576040517f08c379a00000000000000000000000000000000000000000000000000000000081526004016126f69061444a565b60405180910390fd5b50565b600033905090565b816004600083815260200190815260200160002060006101000a81548173ffffffffffffffffffffffffffffffffffffffff021916908373ffffffffffffffffffffffffffffffffffffffff160217905550808273ffffffffffffffffffffffffffffffffffffffff1661277d83610ea9565b73ffffffffffffffffffffffffffffffffffffffff167f8c5be1e5ebec7d5bd14f71427d1e84f3dd0314c0f7b2291e5b200ac8c7c3b92560405160405180910390a45050565b600081600001549050919050565b6000806127dd83610ea9565b90508073ffffffffffffffffffffffffffffffffffffffff168473ffffffffffffffffffffffffffffffffffffffff16148061281f575061281e818561216f565b5b8061285d57508373ffffffffffffffffffffffffffffffffffffffff16612845846106be565b73ffffffffffffffffffffffffffffffffffffffff16145b91505092915050565b8273ffffffffffffffffffffffffffffffffffffffff1661288682610ea9565b73ffffffffffffffffffffffffffffffffffffffff16146128dc576040517f08c379a00000000000000000000000000000000000000000000000000000000081526004016128d390614c49565b60405180910390fd5b600073ffffffffffffffffffffffffffffffffffffffff168273ffffffffffffffffffffffffffffffffffffffff160361294b576040517f08c379a000000000000000000000000000000000000000000000000000000000815260040161294290614cdb565b60405180910390fd5b6129588383836001613417565b8273ffffffffffffffffffffffffffffffffffffffff1661297882610ea9565b73ffffffffffffffffffffffffffffffffffffffff16146129ce576040517f08c379a00000000000000000000000000000000000000000000000000000000081526004016129c590614c49565b60405180910390fd5b6004600082815260200190815260200160002060006101000a81549073ffffffffffffffffffffffffffffffffffffffff02191690556001600360008573ffffffffffffffffffffffffffffffffffffffff1673ffffffffffffffffffffffffffffffffffffffff168152602001908152602001600020600082825403925050819055506001600360008473ffffffffffffffffffffffffffffffffffffffff1673ffffffffffffffffffffffffffffffffffffffff16815260200190815260200160002060008282540192505081905550816002600083815260200190815260200160002060006101000a81548173ffffffffffffffffffffffffffffffffffffffff021916908373ffffffffffffffffffffffffffffffffffffffff160217905550808273ffffffffffffffffffffffffffffffffffffffff168473ffffffffffffffffffffffffffffffffffffffff167fddf252ad1be2c89b69c2b068fc378daa952ba7f163c4a11628f55a4df523b3ef60405160405180910390a4612b5a838383600161341d565b505050565b60006002600083815260200190815260200160002060009054906101000a900473ffffffffffffffffffffffffffffffffffffffff169050919050565b600260075403612be1576040517f08c379a0000000000000000000000000000000000000000000000000000000008152600401612bd890614d47565b60405180910390fd5b6002600781905550565b6001600781905550565b8173ffffffffffffffffffffffffffffffffffffffff168373ffffffffffffffffffffffffffffffffffffffff1603612c63576040517f08c379a0000000000000000000000000000000000000000000000000000000008152600401612c5a90614db3565b60405180910390fd5b80600560008573ffffffffffffffffffffffffffffffffffffffff1673ffffffffffffffffffffffffffffffffffffffff16815260200190815260200160002060008473ffffffffffffffffffffffffffffffffffffffff1673ffffffffffffffffffffffffffffffffffffffff16815260200190815260200160002060006101000a81548160ff0219169083151502179055508173ffffffffffffffffffffffffffffffffffffffff168373ffffffffffffffffffffffffffffffffffffffff167f17307eab39ab6107e8899845ad3d59bd9653f200f220920489ca2b5937696c3183604051612d54919061390f565b60405180910390a3505050565b6001816000016000828254019250508190555050565b612d82848484612866565b612d8e84848484613423565b612dcd576040517f08c379a0000000000000000000000000000000000000000000000000000000008152600401612dc490614e45565b60405180910390fd5b50505050565b600073ffffffffffffffffffffffffffffffffffffffff168273ffffffffffffffffffffffffffffffffffffffff1603612e42576040517f08c379a0000000000000000000000000000000000000000000000000000000008152600401612e3990614eb1565b60405180910390fd5b612e4b816133d6565b15612e8b576040517f08c379a0000000000000000000000000000000000000000000000000000000008152600401612e8290614f1d565b60405180910390fd5b612e99600083836001613417565b612ea2816133d6565b15612ee2576040517f08c379a0000000000000000000000000000000000000000000000000000000008152600401612ed990614f1d565b60405180910390fd5b6001600360008473ffffffffffffffffffffffffffffffffffffffff1673ffffffffffffffffffffffffffffffffffffffff16815260200190815260200160002060008282540192505081905550816002600083815260200190815260200160002060006101000a81548173ffffffffffffffffffffffffffffffffffffffff021916908373ffffffffffffffffffffffffffffffffffffffff160217905550808273ffffffffffffffffffffffffffffffffffffffff16600073ffffffffffffffffffffffffffffffffffffffff167fddf252ad1be2c89b69c2b068fc378daa952ba7f163c4a11628f55a4df523b3ef60405160405180910390a4612fec60008383600161341d565b5050565b612ff9826133d6565b613038576040517f08c379a000000000000000000000000000000000000000000000000000000000815260040161302f90614faf565b60405180910390fd5b80600660008481526020019081526020016000209081613058919061517b565b507ff8e1a15aba9398e019f0b49df1a4fde98ee17ae345cb5f6b5e2c27f5033e8ce7826040516130889190613b16565b60405180910390a15050565b600082116130d7576040517f08c379a00000000000000000000000000000000000000000000000000000000081526004016130ce90615299565b60405180910390fd5b6040518060e001604052808481526020013373ffffffffffffffffffffffffffffffffffffffff1681526020013073ffffffffffffffffffffffffffffffffffffffff16815260200183815260200160001515815260200160001515815260200182815250600c60008581526020019081526020016000206000820151816000015560208201518160010160006101000a81548173ffffffffffffffffffffffffffffffffffffffff021916908373ffffffffffffffffffffffffffffffffffffffff16021790555060408201518160020160006101000a81548173ffffffffffffffffffffffffffffffffffffffff021916908373ffffffffffffffffffffffffffffffffffffffff1602179055506060820151816003015560808201518160040160006101000a81548160ff02191690831515021790555060a08201518160040160016101000a81548160ff02191690831515021790555060c08201518160050155905050613249333085612866565b827f670c95344b8444ea43755857108274f6858ca0429c6f00e44ada8ce0677eb18133308560008087604051613284969594939291906152b9565b60405180910390a2505050565b606060405180602001604052806000815250905090565b60606132b3826126b7565b60006132bd613291565b905060008151116132dd5760405180602001604052806000815250613308565b806132e7846135aa565b6040516020016132f8929190614ad9565b6040516020818303038152906040525b915050919050565b6000816000015490506000811161335c576040517f08c379a000000000000000000000000000000000000000000000000000000000815260040161335390615366565b60405180910390fd5b6001810382600001819055505050565b60007f01ffc9a7000000000000000000000000000000000000000000000000000000007bffffffffffffffffffffffffffffffffffffffffffffffffffffffff1916827bffffffffffffffffffffffffffffffffffffffffffffffffffffffff1916149050919050565b60008073ffffffffffffffffffffffffffffffffffffffff166133f883612b5f565b73ffffffffffffffffffffffffffffffffffffffff1614159050919050565b50505050565b50505050565b60006134448473ffffffffffffffffffffffffffffffffffffffff16613678565b1561359d578373ffffffffffffffffffffffffffffffffffffffff1663150b7a0261346d612702565b8786866040518563ffffffff1660e01b815260040161348f94939291906153db565b6020604051808303816000875af19250505080156134cb57506040513d601f19601f820116820180604052508101906134c8919061543c565b60015b61354d573d80600081146134fb576040519150601f19603f3d011682016040523d82523d6000602084013e613500565b606091505b506000815103613545576040517f08c379a000000000000000000000000000000000000000000000000000000000815260040161353c90614e45565b60405180910390fd5b805181602001fd5b63150b7a0260e01b7bffffffffffffffffffffffffffffffffffffffffffffffffffffffff1916817bffffffffffffffffffffffffffffffffffffffffffffffffffffffff1916149150506135a2565b600190505b949350505050565b6060600060016135b98461369b565b01905060008167ffffffffffffffff8111156135d8576135d7613e05565b5b6040519080825280601f01601f19166020018201604052801561360a5781602001600182028036833780820191505090505b509050600082602001820190505b60011561366d578080600190039150507f3031323334353637383961626364656600000000000000000000000000000000600a86061a8153600a858161366157613660615469565b5b04945060008503613618575b819350505050919050565b6000808273ffffffffffffffffffffffffffffffffffffffff163b119050919050565b600080600090507a184f03e93ff9f4daa797ed6e38ed64bf6a1f01000000000000000083106136f9577a184f03e93ff9f4daa797ed6e38ed64bf6a1f01000000000000000083816136ef576136ee615469565b5b0492506040810190505b6d04ee2d6d415b85acef81000000008310613736576d04ee2d6d415b85acef8100000000838161372c5761372b615469565b5b0492506020810190505b662386f26fc10000831061376557662386f26fc10000838161375b5761375a615469565b5b0492506010810190505b6305f5e100831061378e576305f5e100838161378457613783615469565b5b0492506008810190505b61271083106137b35761271083816137a9576137a8615469565b5b0492506004810190505b606483106137d657606483816137cc576137cb615469565b5b0492506002810190505b600a83106137e5576001810190505b80915050919050565b6040518060e0016040528060008152602001600073ffffffffffffffffffffffffffffffffffffffff168152602001600073ffffffffffffffffffffffffffffffffffffffff16815260200160008152602001600015158152602001600015158152602001600081525090565b6000604051905090565b600080fd5b600080fd5b60007fffffffff0000000000000000000000000000000000000000000000000000000082169050919050565b6138a48161386f565b81146138af57600080fd5b50565b6000813590506138c18161389b565b92915050565b6000602082840312156138dd576138dc613865565b5b60006138eb848285016138b2565b91505092915050565b60008115159050919050565b613909816138f4565b82525050565b60006020820190506139246000830184613900565b92915050565b600081519050919050565b600082825260208201905092915050565b60005b83811015613964578082015181840152602081019050613949565b60008484015250505050565b6000601f19601f8301169050919050565b600061398c8261392a565b6139968185613935565b93506139a6818560208601613946565b6139af81613970565b840191505092915050565b600060208201905081810360008301526139d48184613981565b905092915050565b6000819050919050565b6139ef816139dc565b81146139fa57600080fd5b50565b600081359050613a0c816139e6565b92915050565b600060208284031215613a2857613a27613865565b5b6000613a36848285016139fd565b91505092915050565b600073ffffffffffffffffffffffffffffffffffffffff82169050919050565b6000613a6a82613a3f565b9050919050565b613a7a81613a5f565b82525050565b6000602082019050613a956000830184613a71565b92915050565b613aa481613a5f565b8114613aaf57600080fd5b50565b600081359050613ac181613a9b565b92915050565b60008060408385031215613ade57613add613865565b5b6000613aec85828601613ab2565b9250506020613afd858286016139fd565b9150509250929050565b613b10816139dc565b82525050565b6000602082019050613b2b6000830184613b07565b92915050565b600081519050919050565b600082825260208201905092915050565b6000819050602082019050919050565b613b66816139dc565b82525050565b6000613b7782613a3f565b9050919050565b613b8781613b6c565b82525050565b613b96816138f4565b82525050565b60e082016000820151613bb26000850182613b5d565b506020820151613bc56020850182613b7e565b506040820151613bd86040850182613b7e565b506060820151613beb6060850182613b5d565b506080820151613bfe6080850182613b8d565b5060a0820151613c1160a0850182613b8d565b5060c0820151613c2460c0850182613b5d565b50505050565b6000613c368383613b9c565b60e08301905092915050565b6000602082019050919050565b6000613c5a82613b31565b613c648185613b3c565b9350613c6f83613b4d565b8060005b83811015613ca0578151613c878882613c2a565b9750613c9283613c42565b925050600181019050613c73565b5085935050505092915050565b60006020820190508181036000830152613cc78184613c4f565b905092915050565b600080600060608486031215613ce857613ce7613865565b5b6000613cf686828701613ab2565b9350506020613d0786828701613ab2565b9250506040613d18868287016139fd565b9150509250925092565b600060208284031215613d3857613d37613865565b5b6000613d4684828501613ab2565b91505092915050565b60008060408385031215613d6657613d65613865565b5b6000613d74858286016139fd565b9250506020613d8585828601613ab2565b9150509250929050565b613d98816138f4565b8114613da357600080fd5b50565b600081359050613db581613d8f565b92915050565b60008060408385031215613dd257613dd1613865565b5b6000613de085828601613ab2565b9250506020613df185828601613da6565b9150509250929050565b600080fd5b600080fd5b7f4e487b7100000000000000000000000000000000000000000000000000000000600052604160045260246000fd5b613e3d82613970565b810181811067ffffffffffffffff82111715613e5c57613e5b613e05565b5b80604052505050565b6000613e6f61385b565b9050613e7b8282613e34565b919050565b600067ffffffffffffffff821115613e9b57613e9a613e05565b5b613ea482613970565b9050602081019050919050565b82818337600083830152505050565b6000613ed3613ece84613e80565b613e65565b905082815260208101848484011115613eef57613eee613e00565b5b613efa848285613eb1565b509392505050565b600082601f830112613f1757613f16613dfb565b5b8135613f27848260208601613ec0565b91505092915050565b60008060008060808587031215613f4a57613f49613865565b5b6000613f5887828801613ab2565b9450506020613f6987828801613ab2565b9350506040613f7a878288016139fd565b925050606085013567ffffffffffffffff811115613f9b57613f9a61386a565b5b613fa787828801613f02565b91505092959194509250565b600067ffffffffffffffff821115613fce57613fcd613e05565b5b613fd782613970565b9050602081019050919050565b6000613ff7613ff284613fb3565b613e65565b90508281526020810184848401111561401357614012613e00565b5b61401e848285613eb1565b509392505050565b600082601f83011261403b5761403a613dfb565b5b813561404b848260208601613fe4565b91505092915050565b60008060006060848603121561406d5761406c613865565b5b600084013567ffffffffffffffff81111561408b5761408a61386a565b5b61409786828701614026565b93505060206140a8868287016139fd565b92505060406140b9868287016139fd565b9150509250925092565b600080604083850312156140da576140d9613865565b5b60006140e885828601613ab2565b92505060206140f985828601613ab2565b9150509250929050565b60008060006060848603121561411c5761411b613865565b5b600061412a868287016139fd565b935050602061413b868287016139fd565b925050604061414c868287016139fd565b9150509250925092565b7f4e487b7100000000000000000000000000000000000000000000000000000000600052602260045260246000fd5b6000600282049050600182168061419d57607f821691505b6020821081036141b0576141af614156565b5b50919050565b7f4552433732313a20617070726f76616c20746f2063757272656e74206f776e6560008201527f7200000000000000000000000000000000000000000000000000000000000000602082015250565b6000614212602183613935565b915061421d826141b6565b604082019050919050565b6000602082019050818103600083015261424181614205565b9050919050565b7f4552433732313a20617070726f76652063616c6c6572206973206e6f7420746f60008201527f6b656e206f776e6572206f7220617070726f76656420666f7220616c6c000000602082015250565b60006142a4603d83613935565b91506142af82614248565b604082019050919050565b600060208201905081810360008301526142d381614297565b9050919050565b7f4e487b7100000000000000000000000000000000000000000000000000000000600052601160045260246000fd5b6000614314826139dc565b915061431f836139dc565b9250828201905080821115614337576143366142da565b5b92915050565b7f4e487b7100000000000000000000000000000000000000000000000000000000600052603260045260246000fd5b7f4552433732313a2063616c6c6572206973206e6f7420746f6b656e206f776e6560008201527f72206f7220617070726f76656400000000000000000000000000000000000000602082015250565b60006143c8602d83613935565b91506143d38261436c565b604082019050919050565b600060208201905081810360008301526143f7816143bb565b9050919050565b7f4552433732313a20696e76616c696420746f6b656e2049440000000000000000600082015250565b6000614434601883613935565b915061443f826143fe565b602082019050919050565b6000602082019050818103600083015261446381614427565b9050919050565b7f4552433732313a2061646472657373207a65726f206973206e6f74206120766160008201527f6c6964206f776e65720000000000000000000000000000000000000000000000602082015250565b60006144c6602983613935565b91506144d18261446a565b604082019050919050565b600060208201905081810360008301526144f5816144b9565b9050919050565b7f4f6e6c7920746865206f776e6572206f6620746865204e46542063616e20747260008201527f616e736665722069740000000000000000000000000000000000000000000000602082015250565b6000614558602983613935565b9150614563826144fc565b604082019050919050565b600060208201905081810360008301526145878161454b565b9050919050565b7f43616e6e6f74207472616e7366657220746f20746865207a65726f206164647260008201527f6573730000000000000000000000000000000000000000000000000000000000602082015250565b60006145ea602383613935565b91506145f58261458e565b604082019050919050565b60006020820190508181036000830152614619816145dd565b9050919050565b7f4f6e6c79206974656d2073656c6c65722063616e20706572666f726d2074686960008201527f73206f7065726174696f6e000000000000000000000000000000000000000000602082015250565b600061467c602b83613935565b915061468782614620565b604082019050919050565b600060208201905081810360008301526146ab8161466f565b9050919050565b7f43616e6e6f742063616e63656c206120736f6c64206974656d00000000000000600082015250565b60006146e8601983613935565b91506146f3826146b2565b602082019050919050565b60006020820190508181036000830152614717816146db565b9050919050565b7f506c65617365207375626d6974207468652061736b696e67207072696365206960008201527f6e206f7264657220746f20636f6d706c65746520746865207075726368617365602082015250565b600061477a604083613935565b91506147858261471e565b604082019050919050565b600060208201905081810360008301526147a98161476d565b9050919050565b7f5072696365206d75737420626520657175616c20746f206c697374696e67207060008201527f7269636500000000000000000000000000000000000000000000000000000000602082015250565b600061480c602483613935565b9150614817826147b0565b604082019050919050565b6000602082019050818103600083015261483b816147ff565b9050919050565b7f4f6e6c79206974656d2073656c6c65722063616e20616363657074206f66666560008201527f7273000000000000000000000000000000000000000000000000000000000000602082015250565b600061489e602283613935565b91506148a982614842565b604082019050919050565b600060208201905081810360008301526148cd81614891565b9050919050565b6000815190506148e381613a9b565b92915050565b6000815190506148f8816139e6565b92915050565b6000806040838503121561491557614914613865565b5b6000614923858286016148d4565b9250506020614934858286016148e9565b9150509250929050565b7f4869676865737420626964646572206973207a65726f20616464726573730000600082015250565b6000614974601e83613935565b915061497f8261493e565b602082019050919050565b600060208201905081810360008301526149a381614967565b9050919050565b7f496e73756666696369656e742062616c616e636520696e2061756374696f6e2060008201527f636f6e7472616374000000000000000000000000000000000000000000000000602082015250565b6000614a06602883613935565b9150614a11826149aa565b604082019050919050565b60006020820190508181036000830152614a35816149f9565b9050919050565b614a4581613b6c565b82525050565b6000604082019050614a606000830185614a3c565b614a6d6020830184613b07565b9392505050565b6000604082019050614a896000830185613a71565b614a966020830184613b07565b9392505050565b600081905092915050565b6000614ab38261392a565b614abd8185614a9d565b9350614acd818560208601613946565b80840191505092915050565b6000614ae58285614aa8565b9150614af18284614aa8565b91508190509392505050565b7f4f6e6c79206974656d206f776e65722063616e20706572666f726d207468697360008201527f206f7065726174696f6e00000000000000000000000000000000000000000000602082015250565b6000614b59602a83613935565b9150614b6482614afd565b604082019050919050565b60006020820190508181036000830152614b8881614b4c565b9050919050565b6000614b9a826139dc565b91507fffffffffffffffffffffffffffffffffffffffffffffffffffffffffffffffff8203614bcc57614bcb6142da565b5b600182019050919050565b7f4552433732313a207472616e736665722066726f6d20696e636f72726563742060008201527f6f776e6572000000000000000000000000000000000000000000000000000000602082015250565b6000614c33602583613935565b9150614c3e82614bd7565b604082019050919050565b60006020820190508181036000830152614c6281614c26565b9050919050565b7f4552433732313a207472616e7366657220746f20746865207a65726f2061646460008201527f7265737300000000000000000000000000000000000000000000000000000000602082015250565b6000614cc5602483613935565b9150614cd082614c69565b604082019050919050565b60006020820190508181036000830152614cf481614cb8565b9050919050565b7f5265656e7472616e637947756172643a207265656e7472616e742063616c6c00600082015250565b6000614d31601f83613935565b9150614d3c82614cfb565b602082019050919050565b60006020820190508181036000830152614d6081614d24565b9050919050565b7f4552433732313a20617070726f766520746f2063616c6c657200000000000000600082015250565b6000614d9d601983613935565b9150614da882614d67565b602082019050919050565b60006020820190508181036000830152614dcc81614d90565b9050919050565b7f4552433732313a207472616e7366657220746f206e6f6e20455243373231526560008201527f63656976657220696d706c656d656e7465720000000000000000000000000000602082015250565b6000614e2f603283613935565b9150614e3a82614dd3565b604082019050919050565b60006020820190508181036000830152614e5e81614e22565b9050919050565b7f4552433732313a206d696e7420746f20746865207a65726f2061646472657373600082015250565b6000614e9b602083613935565b9150614ea682614e65565b602082019050919050565b60006020820190508181036000830152614eca81614e8e565b9050919050565b7f4552433732313a20746f6b656e20616c7265616479206d696e74656400000000600082015250565b6000614f07601c83613935565b9150614f1282614ed1565b602082019050919050565b60006020820190508181036000830152614f3681614efa565b9050919050565b7f45524337323155524953746f726167653a2055524920736574206f66206e6f6e60008201527f6578697374656e7420746f6b656e000000000000000000000000000000000000602082015250565b6000614f99602e83613935565b9150614fa482614f3d565b604082019050919050565b60006020820190508181036000830152614fc881614f8c565b9050919050565b60008190508160005260206000209050919050565b60006020601f8301049050919050565b600082821b905092915050565b6000600883026150317fffffffffffffffffffffffffffffffffffffffffffffffffffffffffffffffff82614ff4565b61503b8683614ff4565b95508019841693508086168417925050509392505050565b6000819050919050565b600061507861507361506e846139dc565b615053565b6139dc565b9050919050565b6000819050919050565b6150928361505d565b6150a661509e8261507f565b848454615001565b825550505050565b600090565b6150bb6150ae565b6150c6818484615089565b505050565b5b818110156150ea576150df6000826150b3565b6001810190506150cc565b5050565b601f82111561512f5761510081614fcf565b61510984614fe4565b81016020851015615118578190505b61512c61512485614fe4565b8301826150cb565b50505b505050565b600082821c905092915050565b600061515260001984600802615134565b1980831691505092915050565b600061516b8383615141565b9150826002028217905092915050565b6151848261392a565b67ffffffffffffffff81111561519d5761519c613e05565b5b6151a78254614185565b6151b28282856150ee565b600060209050601f8311600181146151e557600084156151d3578287015190505b6151dd858261515f565b865550615245565b601f1984166151f386614fcf565b60005b8281101561521b578489015182556001820191506020850194506020810190506151f6565b868310156152385784890151615234601f891682615141565b8355505b6001600288020188555050505b505050505050565b7f5072696365206d7573742062652067726561746572207468616e203000000000600082015250565b6000615283601c83613935565b915061528e8261524d565b602082019050919050565b600060208201905081810360008301526152b281615276565b9050919050565b600060c0820190506152ce6000830189613a71565b6152db6020830188613a71565b6152e86040830187613b07565b6152f56060830186613900565b6153026080830185613900565b61530f60a0830184613b07565b979650505050505050565b7f436f756e7465723a2064656372656d656e74206f766572666c6f770000000000600082015250565b6000615350601b83613935565b915061535b8261531a565b602082019050919050565b6000602082019050818103600083015261537f81615343565b9050919050565b600081519050919050565b600082825260208201905092915050565b60006153ad82615386565b6153b78185615391565b93506153c7818560208601613946565b6153d081613970565b840191505092915050565b60006080820190506153f06000830187613a71565b6153fd6020830186613a71565b61540a6040830185613b07565b818103606083015261541c81846153a2565b905095945050505050565b6000815190506154368161389b565b92915050565b60006020828403121561545257615451613865565b5b600061546084828501615427565b91505092915050565b7f4e487b7100000000000000000000000000000000000000000000000000000000600052601260045260246000fdfea2646970667358221220eddd8048f3fb00f571c3a2304e46a5589072b791a93000f7fa887dabf0facf3464736f6c63430008180033",
  "linkReferences": {},
  "deployedLinkReferences": {}
}