{
  "_format": "hh-sol-artifact-1",
  "contractName": "NFTMarketplace",
  "sourceName": "contracts/NFTMarketplace.sol",
  "abi": [
    {
      "inputs": [
        {
          "internalType": "address",
          "name": "_auctionContractAddress",
          "type": "address"
        },
        {
          "internalType": "address",
          "name": "_transferFundsAddress",
          "type": "address"
        }
      ],
      "stateMutability": "nonpayable",
      "type": "constructor"
    },
    {
      "anonymous": false,
      "inputs": [
        {
          "indexed": true,
          "internalType": "address",
          "name": "owner",
          "type": "address"
        },
        {
          "indexed": true,
          "internalType": "address",
          "name": "approved",
          "type": "address"
        },
        {
          "indexed": true,
          "internalType": "uint256",
          "name": "tokenId",
          "type": "uint256"
        }
      ],
      "name": "Approval",
      "type": "event"
    },
    {
      "anonymous": false,
      "inputs": [
        {
          "indexed": true,
          "internalType": "address",
          "name": "owner",
          "type": "address"
        },
        {
          "indexed": true,
          "internalType": "address",
          "name": "operator",
          "type": "address"
        },
        {
          "indexed": false,
          "internalType": "bool",
          "name": "approved",
          "type": "bool"
        }
      ],
      "name": "ApprovalForAll",
      "type": "event"
    },
    {
      "anonymous": false,
      "inputs": [
        {
          "indexed": false,
          "internalType": "uint256",
          "name": "_fromTokenId",
          "type": "uint256"
        },
        {
          "indexed": false,
          "internalType": "uint256",
          "name": "_toTokenId",
          "type": "uint256"
        }
      ],
      "name": "BatchMetadataUpdate",
      "type": "event"
    },
    {
      "anonymous": false,
      "inputs": [
        {
          "indexed": true,
          "internalType": "uint256",
          "name": "tokenId",
          "type": "uint256"
        },
        {
          "indexed": false,
          "internalType": "address",
          "name": "seller",
          "type": "address"
        },
        {
          "indexed": false,
          "internalType": "address",
          "name": "owner",
          "type": "address"
        },
        {
          "indexed": false,
          "internalType": "uint256",
          "name": "price",
          "type": "uint256"
        },
        {
          "indexed": false,
          "internalType": "bool",
          "name": "sold",
          "type": "bool"
        },
        {
          "indexed": false,
          "internalType": "bool",
          "name": "canceled",
          "type": "bool"
        },
        {
          "indexed": false,
          "internalType": "uint256",
          "name": "timestamp",
          "type": "uint256"
        }
      ],
      "name": "MarketItemCreated",
      "type": "event"
    },
    {
      "anonymous": false,
      "inputs": [
        {
          "indexed": true,
          "internalType": "uint256",
          "name": "tokenId",
          "type": "uint256"
        },
        {
          "indexed": false,
          "internalType": "address",
          "name": "buyer",
          "type": "address"
        },
        {
          "indexed": false,
          "internalType": "uint256",
          "name": "price",
          "type": "uint256"
        }
      ],
      "name": "MarketItemSold",
      "type": "event"
    },
    {
      "anonymous": false,
      "inputs": [
        {
          "indexed": false,
          "internalType": "uint256",
          "name": "_tokenId",
          "type": "uint256"
        }
      ],
      "name": "MetadataUpdate",
      "type": "event"
    },
    {
      "anonymous": false,
      "inputs": [
        {
          "indexed": true,
          "internalType": "address",
          "name": "from",
          "type": "address"
        },
        {
          "indexed": true,
          "internalType": "address",
          "name": "to",
          "type": "address"
        },
        {
          "indexed": true,
          "internalType": "uint256",
          "name": "tokenId",
          "type": "uint256"
        }
      ],
      "name": "Transfer",
      "type": "event"
    },
    {
      "stateMutability": "payable",
      "type": "fallback"
    },
    {
      "inputs": [
        {
          "internalType": "uint256",
          "name": "tokenId",
          "type": "uint256"
        }
      ],
      "name": "acceptOffer",
      "outputs": [],
      "stateMutability": "nonpayable",
      "type": "function"
    },
    {
      "inputs": [
        {
          "internalType": "address",
          "name": "to",
          "type": "address"
        },
        {
          "internalType": "uint256",
          "name": "tokenId",
          "type": "uint256"
        }
      ],
      "name": "approve",
      "outputs": [],
      "stateMutability": "nonpayable",
      "type": "function"
    },
    {
      "inputs": [
        {
          "internalType": "address",
          "name": "owner",
          "type": "address"
        }
      ],
      "name": "balanceOf",
      "outputs": [
        {
          "internalType": "uint256",
          "name": "",
          "type": "uint256"
        }
      ],
      "stateMutability": "view",
      "type": "function"
    },
    {
      "inputs": [],
      "name": "cancelExpiredMarketItems",
      "outputs": [],
      "stateMutability": "nonpayable",
      "type": "function"
    },
    {
      "inputs": [
        {
          "internalType": "uint256",
          "name": "tokenId",
          "type": "uint256"
        }
      ],
      "name": "cancelMarketItem",
      "outputs": [],
      "stateMutability": "nonpayable",
      "type": "function"
    },
    {
      "inputs": [
        {
          "internalType": "uint256",
          "name": "tokenId",
          "type": "uint256"
        }
      ],
      "name": "createMarketSale",
      "outputs": [],
      "stateMutability": "payable",
      "type": "function"
    },
    {
      "inputs": [
        {
          "internalType": "string",
          "name": "tokenURI",
          "type": "string"
        },
        {
          "internalType": "uint256",
          "name": "price",
          "type": "uint256"
        },
        {
          "internalType": "uint256",
          "name": "timesAuctions",
          "type": "uint256"
        }
      ],
      "name": "createToken",
      "outputs": [
        {
          "internalType": "uint256",
          "name": "",
          "type": "uint256"
        }
      ],
      "stateMutability": "payable",
      "type": "function"
    },
    {
      "inputs": [],
      "name": "fetchItemsListed",
      "outputs": [
        {
          "components": [
            {
              "internalType": "uint256",
              "name": "tokenId",
              "type": "uint256"
            },
            {
              "internalType": "address payable",
              "name": "seller",
              "type": "address"
            },
            {
              "internalType": "address payable",
              "name": "owner",
              "type": "address"
            },
            {
              "internalType": "uint256",
              "name": "price",
              "type": "uint256"
            },
            {
              "internalType": "bool",
              "name": "sold",
              "type": "bool"
            },
            {
              "internalType": "bool",
              "name": "canceled",
              "type": "bool"
            },
            {
              "internalType": "uint256",
              "name": "timestamp",
              "type": "uint256"
            }
          ],
          "internalType": "struct NFTMarketplace.MarketItem[]",
          "name": "",
          "type": "tuple[]"
        }
      ],
      "stateMutability": "view",
      "type": "function"
    },
    {
      "inputs": [],
      "name": "fetchMarketItem",
      "outputs": [
        {
          "components": [
            {
              "internalType": "uint256",
              "name": "tokenId",
              "type": "uint256"
            },
            {
              "internalType": "address payable",
              "name": "seller",
              "type": "address"
            },
            {
              "internalType": "address payable",
              "name": "owner",
              "type": "address"
            },
            {
              "internalType": "uint256",
              "name": "price",
              "type": "uint256"
            },
            {
              "internalType": "bool",
              "name": "sold",
              "type": "bool"
            },
            {
              "internalType": "bool",
              "name": "canceled",
              "type": "bool"
            },
            {
              "internalType": "uint256",
              "name": "timestamp",
              "type": "uint256"
            }
          ],
          "internalType": "struct NFTMarketplace.MarketItem[]",
          "name": "",
          "type": "tuple[]"
        }
      ],
      "stateMutability": "view",
      "type": "function"
    },
    {
      "inputs": [],
      "name": "fetchMyNFTs",
      "outputs": [
        {
          "components": [
            {
              "internalType": "uint256",
              "name": "tokenId",
              "type": "uint256"
            },
            {
              "internalType": "address payable",
              "name": "seller",
              "type": "address"
            },
            {
              "internalType": "address payable",
              "name": "owner",
              "type": "address"
            },
            {
              "internalType": "uint256",
              "name": "price",
              "type": "uint256"
            },
            {
              "internalType": "bool",
              "name": "sold",
              "type": "bool"
            },
            {
              "internalType": "bool",
              "name": "canceled",
              "type": "bool"
            },
            {
              "internalType": "uint256",
              "name": "timestamp",
              "type": "uint256"
            }
          ],
          "internalType": "struct NFTMarketplace.MarketItem[]",
          "name": "",
          "type": "tuple[]"
        }
      ],
      "stateMutability": "view",
      "type": "function"
    },
    {
      "inputs": [
        {
          "internalType": "uint256",
          "name": "tokenId",
          "type": "uint256"
        }
      ],
      "name": "getApproved",
      "outputs": [
        {
          "internalType": "address",
          "name": "",
          "type": "address"
        }
      ],
      "stateMutability": "view",
      "type": "function"
    },
    {
      "inputs": [],
      "name": "getListingPrice",
      "outputs": [
        {
          "internalType": "uint256",
          "name": "",
          "type": "uint256"
        }
      ],
      "stateMutability": "view",
      "type": "function"
    },
    {
      "inputs": [
        {
          "internalType": "address",
          "name": "owner",
          "type": "address"
        },
        {
          "internalType": "address",
          "name": "operator",
          "type": "address"
        }
      ],
      "name": "isApprovedForAll",
      "outputs": [
        {
          "internalType": "bool",
          "name": "",
          "type": "bool"
        }
      ],
      "stateMutability": "view",
      "type": "function"
    },
    {
      "inputs": [],
      "name": "name",
      "outputs": [
        {
          "internalType": "string",
          "name": "",
          "type": "string"
        }
      ],
      "stateMutability": "view",
      "type": "function"
    },
    {
      "inputs": [
        {
          "internalType": "uint256",
          "name": "tokenId",
          "type": "uint256"
        }
      ],
      "name": "ownerOf",
      "outputs": [
        {
          "internalType": "address",
          "name": "",
          "type": "address"
        }
      ],
      "stateMutability": "view",
      "type": "function"
    },
    {
      "inputs": [
        {
          "internalType": "uint256",
          "name": "tokenId",
          "type": "uint256"
        },
        {
          "internalType": "uint256",
          "name": "price",
          "type": "uint256"
        },
        {
          "internalType": "uint256",
          "name": "timeActions",
          "type": "uint256"
        }
      ],
      "name": "resellToken",
      "outputs": [],
      "stateMutability": "payable",
      "type": "function"
    },
    {
      "inputs": [
        {
          "internalType": "address",
          "name": "from",
          "type": "address"
        },
        {
          "internalType": "address",
          "name": "to",
          "type": "address"
        },
        {
          "internalType": "uint256",
          "name": "tokenId",
          "type": "uint256"
        }
      ],
      "name": "safeTransferFrom",
      "outputs": [],
      "stateMutability": "nonpayable",
      "type": "function"
    },
    {
      "inputs": [
        {
          "internalType": "address",
          "name": "from",
          "type": "address"
        },
        {
          "internalType": "address",
          "name": "to",
          "type": "address"
        },
        {
          "internalType": "uint256",
          "name": "tokenId",
          "type": "uint256"
        },
        {
          "internalType": "bytes",
          "name": "data",
          "type": "bytes"
        }
      ],
      "name": "safeTransferFrom",
      "outputs": [],
      "stateMutability": "nonpayable",
      "type": "function"
    },
    {
      "inputs": [
        {
          "internalType": "address",
          "name": "operator",
          "type": "address"
        },
        {
          "internalType": "bool",
          "name": "approved",
          "type": "bool"
        }
      ],
      "name": "setApprovalForAll",
      "outputs": [],
      "stateMutability": "nonpayable",
      "type": "function"
    },
    {
      "inputs": [
        {
          "internalType": "bytes4",
          "name": "interfaceId",
          "type": "bytes4"
        }
      ],
      "name": "supportsInterface",
      "outputs": [
        {
          "internalType": "bool",
          "name": "",
          "type": "bool"
        }
      ],
      "stateMutability": "view",
      "type": "function"
    },
    {
      "inputs": [],
      "name": "symbol",
      "outputs": [
        {
          "internalType": "string",
          "name": "",
          "type": "string"
        }
      ],
      "stateMutability": "view",
      "type": "function"
    },
    {
      "inputs": [
        {
          "internalType": "uint256",
          "name": "tokenId",
          "type": "uint256"
        }
      ],
      "name": "tokenURI",
      "outputs": [
        {
          "internalType": "string",
          "name": "",
          "type": "string"
        }
      ],
      "stateMutability": "view",
      "type": "function"
    },
    {
      "inputs": [
        {
          "internalType": "address",
          "name": "from",
          "type": "address"
        },
        {
          "internalType": "address",
          "name": "to",
          "type": "address"
        },
        {
          "internalType": "uint256",
          "name": "tokenId",
          "type": "uint256"
        }
      ],
      "name": "transferFrom",
      "outputs": [],
      "stateMutability": "nonpayable",
      "type": "function"
    },
    {
      "inputs": [
        {
          "internalType": "uint256",
          "name": "tokenId",
          "type": "uint256"
        },
        {
          "internalType": "address",
          "name": "to",
          "type": "address"
        }
      ],
      "name": "transferNFT",
      "outputs": [],
      "stateMutability": "nonpayable",
      "type": "function"
    },
    {
      "inputs": [
        {
          "internalType": "uint256",
          "name": "_listingPrice",
          "type": "uint256"
        }
      ],
      "name": "updateListingPrice",
      "outputs": [],
      "stateMutability": "nonpayable",
      "type": "function"
    },
    {
      "stateMutability": "payable",
      "type": "receive"
    }
  ],
  "bytecode": "0x6080604052650da475abf000600a553480156200001b57600080fd5b50604051620035fe380380620035fe8339810160408190526200003e9162000106565b6040518060400160405280601081526020016f4d657461766572736520546f6b656e7360801b815250604051806040016040528060048152602001631351551560e21b8152508160009081620000959190620001e5565b506001620000a48282620001e5565b5050600160075550600b80546001600160a01b03199081163317909155600d80546001600160a01b03948516908316179055600e8054929093169116179055620002b1565b80516001600160a01b03811681146200010157600080fd5b919050565b600080604083850312156200011a57600080fd5b6200012583620000e9565b91506200013560208401620000e9565b90509250929050565b634e487b7160e01b600052604160045260246000fd5b600181811c908216806200016957607f821691505b6020821081036200018a57634e487b7160e01b600052602260045260246000fd5b50919050565b601f821115620001e0576000816000526020600020601f850160051c81016020861015620001bb5750805b601f850160051c820191505b81811015620001dc57828155600101620001c7565b5050505b505050565b81516001600160401b038111156200020157620002016200013e565b620002198162000212845462000154565b8462000190565b602080601f831160018114620002515760008415620002385750858301515b600019600386901b1c1916600185901b178555620001dc565b600085815260208120601f198616915b82811015620002825788860151825594840194600190910190840162000261565b5085821015620002a15787850151600019600388901b60f8161c191681555b5050505050600190811b01905550565b61333d80620002c16000396000f3fe60806040526004361061013a5760003560e01c80639036c050116100b15780639036c050146103f957806395d89b4114610419578063a22cb4651461042e578063a6e22b021461044e578063ae677aa31461046e578063b88d4fde1461048e578063be9af536146104ae578063bec2a7c5146104c1578063c815729d146104d4578063c87b56dd146104f4578063e985e9c514610514578063ea31247a14610534578063ec7fac7014610547576101e0565b806301ffc9a71461025f57806306fdde0314610294578063081812fc146102b6578063095ea7b3146102ee57806312e855851461030e578063202e37401461032d57806323b872dd1461034f57806342842e0e1461036f57806345f8fa801461038f5780636352211e146103a457806370a08231146103c45780638fafd021146103e4576101e0565b366101e057600e5460405163ebff361b60e01b815233600482015234602482015260606044820152602260648201527f44697265637420455448207472616e7366657220746f206d61726b6574706c61608482015261636560f01b60a48201526001600160a01b039091169063ebff361b9060c4015b600060405180830381600087803b1580156101ca57600080fd5b505af11580156101de573d6000803e3d6000fd5b005b600e5460405163ebff361b60e01b815233600482015234602482015260606044820152602c60648201527f46616c6c6261636b3a2044697265637420455448207472616e7366657220746f60848201526b206d61726b6574706c61636560a01b60a48201526001600160a01b039091169063ebff361b9060c4016101b0565b34801561026b57600080fd5b5061027f61027a366004612931565b61055c565b60405190151581526020015b60405180910390f35b3480156102a057600080fd5b506102a9610587565b60405161028b919061299e565b3480156102c257600080fd5b506102d66102d13660046129b1565b610619565b6040516001600160a01b03909116815260200161028b565b3480156102fa57600080fd5b506101de6103093660046129df565b610640565b34801561031a57600080fd5b50600a545b60405190815260200161028b565b34801561033957600080fd5b5061034261075a565b60405161028b9190612a0b565b34801561035b57600080fd5b506101de61036a366004612a9d565b61091b565b34801561037b57600080fd5b506101de61038a366004612a9d565b61094c565b34801561039b57600080fd5b50610342610967565b3480156103b057600080fd5b506102d66103bf3660046129b1565b610b20565b3480156103d057600080fd5b5061031f6103df366004612ade565b610b54565b3480156103f057600080fd5b50610342610bda565b34801561040557600080fd5b506101de610414366004612afb565b610dfc565b34801561042557600080fd5b506102a9610f48565b34801561043a57600080fd5b506101de610449366004612b2b565b610f57565b34801561045a57600080fd5b506101de6104693660046129b1565b610f62565b34801561047a57600080fd5b506101de6104893660046129b1565b600a55565b34801561049a57600080fd5b506101de6104a9366004612be9565b6110f8565b6101de6104bc3660046129b1565b611130565b61031f6104cf366004612c68565b611440565b3480156104e057600080fd5b506101de6104ef3660046129b1565b611538565b34801561050057600080fd5b506102a961050f3660046129b1565b611918565b34801561052057600080fd5b5061027f61052f366004612cc9565b611a28565b6101de610542366004612cf7565b611a56565b34801561055357600080fd5b506101de611c09565b60006001600160e01b03198216632483248360e11b1480610581575061058182611d3e565b92915050565b60606000805461059690612d23565b80601f01602080910402602001604051908101604052809291908181526020018280546105c290612d23565b801561060f5780601f106105e45761010080835404028352916020019161060f565b820191906000526020600020905b8154815290600101906020018083116105f257829003601f168201915b5050505050905090565b600061062482611d8e565b506000908152600460205260409020546001600160a01b031690565b600061064b82610b20565b9050806001600160a01b0316836001600160a01b0316036106bd5760405162461bcd60e51b815260206004820152602160248201527f4552433732313a20617070726f76616c20746f2063757272656e74206f776e656044820152603960f91b60648201526084015b60405180910390fd5b336001600160a01b03821614806106d957506106d98133611a28565b61074b5760405162461bcd60e51b815260206004820152603d60248201527f4552433732313a20617070726f76652063616c6c6572206973206e6f7420746f60448201527f6b656e206f776e6572206f7220617070726f76656420666f7220616c6c00000060648201526084016106b4565b6107558383611db3565b505050565b6060600061076760085490565b9050600080606060005b848110156107c15733600c6000610789846001612d73565b81526020810191909152604001600020600201546001600160a01b0316036107b9576107b6600185612d73565b93505b600101610771565b50826001600160401b038111156107da576107da612b5e565b60405190808252806020026020018201604052801561081357816020015b6108006128df565b8152602001906001900390816107f85790505b50905060005b848110156109125733600c6000610831846001612d73565b81526020810191909152604001600020600201546001600160a01b03160361090a576000610860826001612d73565b6000818152600c6020908152604091829020825160e0810184528154815260018201546001600160a01b039081169382019390935260028201549092169282019290925260038201546060820152600482015460ff8082161515608084015261010090910416151560a082015260059091015460c08201528451919250908490869081106108f0576108f0612d86565b6020908102919091010152610906600185612d73565b9350505b600101610819565b50949350505050565b6109253382611e21565b6109415760405162461bcd60e51b81526004016106b490612d9c565b610755838383611e7f565b610755838383604051806020016040528060008152506110f8565b6060600061097460085490565b905060008060005b838110156109cc5733600c6000610994846001612d73565b81526020810191909152604001600020600101546001600160a01b0316036109c4576109c1600184612d73565b92505b60010161097c565b506000826001600160401b038111156109e7576109e7612b5e565b604051908082528060200260200182016040528015610a2057816020015b610a0d6128df565b815260200190600190039081610a055790505b50905060005b848110156109125733600c6000610a3e846001612d73565b81526020810191909152604001600020600101546001600160a01b031603610b18576000610a6d826001612d73565b6000818152600c6020908152604091829020825160e0810184528154815260018201546001600160a01b039081169382019390935260028201549092169282019290925260038201546060820152600482015460ff8082161515608084015261010090910416151560a0820152600582015460c082015285519293509091859087908110610afd57610afd612d86565b6020908102919091010152610b13600186612d73565b945050505b600101610a26565b600080610b2c83611fe3565b90506001600160a01b0381166105815760405162461bcd60e51b81526004016106b490612de9565b60006001600160a01b038216610bbe5760405162461bcd60e51b815260206004820152602960248201527f4552433732313a2061646472657373207a65726f206973206e6f7420612076616044820152683634b21037bbb732b960b91b60648201526084016106b4565b506001600160a01b031660009081526003602052604090205490565b60606000610be760085490565b9050600080606060005b84811015610c765730600c6000610c09846001612d73565b81526020810191909152604001600020600201546001600160a01b0316148015610c5b5750600c6000610c3d836001612d73565b8152602081019190915260400160002060040154610100900460ff16155b15610c6e57610c6b600185612d73565b93505b600101610bf1565b50826001600160401b03811115610c8f57610c8f612b5e565b604051908082528060200260200182016040528015610cc857816020015b610cb56128df565b815260200190600190039081610cad5790505b50905060005b848110156109125730600c6000610ce6846001612d73565b81526020810191909152604001600020600201546001600160a01b0316148015610d385750600c6000610d1a836001612d73565b8152602081019190915260400160002060040154610100900460ff16155b15610df4576000610d4a826001612d73565b6000818152600c6020908152604091829020825160e0810184528154815260018201546001600160a01b039081169382019390935260028201549092169282019290925260038201546060820152600482015460ff8082161515608084015261010090910416151560a082015260059091015460c0820152845191925090849086908110610dda57610dda612d86565b6020908102919091010152610df0600185612d73565b9350505b600101610cce565b610e04611ffe565b6000828152600c60205260409020600201546001600160a01b03163314610e7f5760405162461bcd60e51b815260206004820152602960248201527f4f6e6c7920746865206f776e6572206f6620746865204e46542063616e207472604482015268185b9cd9995c881a5d60ba1b60648201526084016106b4565b6001600160a01b038116610ee15760405162461bcd60e51b815260206004820152602360248201527f43616e6e6f74207472616e7366657220746f20746865207a65726f206164647260448201526265737360e81b60648201526084016106b4565b610eec338284611e7f565b6000828152600c6020526040902060020154336001600160a01b0390911603610f3a576000828152600c6020526040902060020180546001600160a01b0319166001600160a01b0383161790555b610f446001600755565b5050565b60606001805461059690612d23565b610f44338383612057565b610f6a611ffe565b6000818152600c6020526040902060018101546001600160a01b03163314610fe85760405162461bcd60e51b815260206004820152602b60248201527f4f6e6c79206974656d2073656c6c65722063616e20706572666f726d2074686960448201526a399037b832b930ba34b7b760a91b60648201526084016106b4565b600481015460ff16156110395760405162461bcd60e51b815260206004820152601960248201527843616e6e6f742063616e63656c206120736f6c64206974656d60381b60448201526064016106b4565b600d54604051637795960b60e01b8152600481018490526001600160a01b0390911690637795960b90602401600060405180830381600087803b15801561107f57600080fd5b505af1158015611093573d6000803e3d6000fd5b505050506110a5600980546001019055565b6001810180546002830180546001600160a01b03199081166001600160a01b0384161790915516905560048101805461ffff19166101001790556110ea303384611e7f565b506110f56001600755565b50565b6111023383611e21565b61111e5760405162461bcd60e51b81526004016106b490612d9c565b61112a84848484612121565b50505050565b611138611ffe565b611140611c09565b6000818152600c6020526040902060038101546001909101546001600160a01b03163482146111d9576040805162461bcd60e51b81526020600482015260248101919091527f506c65617365207375626d6974207468652061736b696e67207072696365206960448201527f6e206f7264657220746f20636f6d706c6574652074686520707572636861736560648201526084016106b4565b6000838152600c602052604090206002810180546001600160a01b03191633179055600401805460ff19166001179055611217600980546001019055565b611222303385611e7f565b600e54600b54600a546001600160a01b039283169263ebff361b92169061124887612154565b6040516020016112589190612e1b565b6040516020818303038152906040526040518463ffffffff1660e01b815260040161128593929190612e5c565b600060405180830381600087803b15801561129f57600080fd5b505af11580156112b3573d6000803e3d6000fd5b5050600b54600a546040516001600160a01b03909216935080156108fc029250906000818181858888f193505050501580156112f3573d6000803e3d6000fd5b50600e546001600160a01b031663ebff361b823461131087612154565b6040516020016113209190612e8c565b6040516020818303038152906040526040518463ffffffff1660e01b815260040161134d93929190612e5c565b600060405180830381600087803b15801561136757600080fd5b505af115801561137b573d6000803e3d6000fd5b50506040516001600160a01b03841692503480156108fc029250906000818181858888f193505050501580156113b5573d6000803e3d6000fd5b506000838152600c60205260409081902060010180546001600160a01b0319169055600d549051637795960b60e01b8152600481018590526001600160a01b0390911690637795960b90602401600060405180830381600087803b15801561141c57600080fd5b505af1158015611430573d6000803e3d6000fd5b5050505050506110f56001600755565b6000600a5434146114635760405162461bcd60e51b81526004016106b490612ed4565b611471600880546001019055565b600061147c60085490565b90506114883382612254565b6114928186612361565b61149d81858561241d565b600e54600a546001600160a01b039091169063ebff361b9030906114c085612154565b6040516020016114d09190612f18565b6040516020818303038152906040526040518463ffffffff1660e01b81526004016114fd93929190612e5c565b600060405180830381600087803b15801561151757600080fd5b505af115801561152b573d6000803e3d6000fd5b5092979650505050505050565b611540611ffe565b6000818152600c6020526040902060018101546001600160a01b031633146115b55760405162461bcd60e51b815260206004820152602260248201527f4f6e6c79206974656d2073656c6c65722063616e20616363657074206f666665604482015261727360f01b60648201526084016106b4565b600d5460405163c750cb7960e01b81526004810184905260009182916001600160a01b039091169063c750cb79906024016040805180830381865afa158015611602573d6000803e3d6000fd5b505050506040513d601f19601f820116820180604052508101906116269190612f55565b90925090506001600160a01b0382166116815760405162461bcd60e51b815260206004820152601e60248201527f4869676865737420626964646572206973207a65726f2061646472657373000060448201526064016106b4565b600d546001600160a01b0316318111156116ee5760405162461bcd60e51b815260206004820152602860248201527f496e73756666696369656e742062616c616e636520696e2061756374696f6e2060448201526718dbdb9d1c9858dd60c21b60648201526084016106b4565b600d5460405163c815729d60e01b8152600481018690526001600160a01b039091169063c815729d90602401600060405180830381600087803b15801561173457600080fd5b505af1158015611748573d6000803e3d6000fd5b50505050611757308386611e7f565b600d546001840154604051635be910a160e01b81526001600160a01b0392831692635be910a19261178f929116908590600401612f83565b600060405180830381600087803b1580156117a957600080fd5b505af11580156117bd573d6000803e3d6000fd5b5050600e54600b54600a546001600160a01b03928316945063ebff361b93509116906117e888612154565b6040516020016117f89190612f9c565b6040516020818303038152906040526040518463ffffffff1660e01b815260040161182593929190612e5c565b600060405180830381600087803b15801561183f57600080fd5b505af1158015611853573d6000803e3d6000fd5b5050600b54600a546040516001600160a01b03909216935080156108fc029250906000818181858888f19350505050158015611893573d6000803e3d6000fd5b506002830180546001600160a01b0384166001600160a01b03199182161790915560048401805460ff1916600190811790915584018054909116905560405184907f79705a7faf0849ec33d9f436aa88d50146d23806527cf13010abf315cbfe7600906119039085908590612f83565b60405180910390a25050506110f56001600755565b606061192382611d8e565b6000828152600660205260408120805461193c90612d23565b80601f016020809104026020016040519081016040528092919081815260200182805461196890612d23565b80156119b55780601f1061198a576101008083540402835291602001916119b5565b820191906000526020600020905b81548152906001019060200180831161199857829003601f168201915b5050505050905060006119d360408051602081019091526000815290565b905080516000036119e5575092915050565b815115611a175780826040516020016119ff929190612ff8565b60405160208183030381529060405292505050919050565b611a2084612590565b949350505050565b6001600160a01b03918216600090815260056020908152604080832093909416825291909152205460ff1690565b611a5e611ffe565b6000838152600c60205260409020600201546001600160a01b03163314611ada5760405162461bcd60e51b815260206004820152602a60248201527f4f6e6c79206974656d206f776e65722063616e20706572666f726d20746869736044820152691037b832b930ba34b7b760b11b60648201526084016106b4565b600a543414611afb5760405162461bcd60e51b81526004016106b490612ed4565b6000838152600c602052604081206005810183905560048101805461ffff19169055600381018490556001810180546001600160a01b031990811633179091556002909101805490911630179055611b5260095490565b1115611b6257611b626009612604565b611b6d333085611e7f565b600e54600a546001600160a01b039091169063ebff361b903090611b9087612154565b604051602001611ba09190613027565b6040516020818303038152906040526040518463ffffffff1660e01b8152600401611bcd93929190612e5c565b600060405180830381600087803b158015611be757600080fd5b505af1158015611bfb573d6000803e3d6000fd5b505050506107556001600755565b6000611c1460085490565b905060015b818111610f44576000818152600c60205260409020600201546001600160a01b031630148015611c6057506000818152600c6020526040902060040154610100900460ff16155b15611d2c576000818152600c60205260409020600501544210611d2c576000818152600c6020526040908190206004908101805461ff001916610100179055600d549151637795960b60e01b81526001600160a01b0390921691637795960b91611cd09185910190815260200190565b600060405180830381600087803b158015611cea57600080fd5b505af1158015611cfe573d6000803e3d6000fd5b5050506000828152600c6020526040902060018101549054611d2c925030916001600160a01b031690611e7f565b80611d3681613066565b915050611c19565b60006001600160e01b031982166380ac58cd60e01b1480611d6f57506001600160e01b03198216635b5e139f60e01b145b8061058157506301ffc9a760e01b6001600160e01b0319831614610581565b611d9781612659565b6110f55760405162461bcd60e51b81526004016106b490612de9565b600081815260046020526040902080546001600160a01b0319166001600160a01b0384169081179091558190611de882610b20565b6001600160a01b03167f8c5be1e5ebec7d5bd14f71427d1e84f3dd0314c0f7b2291e5b200ac8c7c3b92560405160405180910390a45050565b600080611e2d83610b20565b9050806001600160a01b0316846001600160a01b03161480611e545750611e548185611a28565b80611a205750836001600160a01b0316611e6d84610619565b6001600160a01b031614949350505050565b826001600160a01b0316611e9282610b20565b6001600160a01b031614611eb85760405162461bcd60e51b81526004016106b49061307f565b6001600160a01b038216611f1a5760405162461bcd60e51b8152602060048201526024808201527f4552433732313a207472616e7366657220746f20746865207a65726f206164646044820152637265737360e01b60648201526084016106b4565b826001600160a01b0316611f2d82610b20565b6001600160a01b031614611f535760405162461bcd60e51b81526004016106b49061307f565b600081815260046020908152604080832080546001600160a01b03199081169091556001600160a01b0387811680865260038552838620805460001901905590871680865283862080546001019055868652600290945282852080549092168417909155905184937fddf252ad1be2c89b69c2b068fc378daa952ba7f163c4a11628f55a4df523b3ef91a4505050565b6000908152600260205260409020546001600160a01b031690565b6002600754036120505760405162461bcd60e51b815260206004820152601f60248201527f5265656e7472616e637947756172643a207265656e7472616e742063616c6c0060448201526064016106b4565b6002600755565b816001600160a01b0316836001600160a01b0316036120b45760405162461bcd60e51b815260206004820152601960248201527822a9219b99189d1030b8383937bb32903a379031b0b63632b960391b60448201526064016106b4565b6001600160a01b03838116600081815260056020908152604080832094871680845294825291829020805460ff191686151590811790915591519182527f17307eab39ab6107e8899845ad3d59bd9653f200f220920489ca2b5937696c31910160405180910390a3505050565b61212c848484611e7f565b61213884848484612676565b61112a5760405162461bcd60e51b81526004016106b4906130c4565b60608160000361217b5750506040805180820190915260018152600360fc1b602082015290565b8160005b81156121a5578061218f81613066565b915061219e9050600a8361312c565b915061217f565b6000816001600160401b038111156121bf576121bf612b5e565b6040519080825280601f01601f1916602001820160405280156121e9576020820181803683370190505b5090505b8415611a20576121fe600183613140565b915061220b600a86613153565b612216906030612d73565b60f81b81838151811061222b5761222b612d86565b60200101906001600160f81b031916908160001a90535061224d600a8661312c565b94506121ed565b6001600160a01b0382166122aa5760405162461bcd60e51b815260206004820181905260248201527f4552433732313a206d696e7420746f20746865207a65726f206164647265737360448201526064016106b4565b6122b381612659565b156122d05760405162461bcd60e51b81526004016106b490613167565b6122d981612659565b156122f65760405162461bcd60e51b81526004016106b490613167565b6001600160a01b038216600081815260036020908152604080832080546001019055848352600290915280822080546001600160a01b0319168417905551839291907fddf252ad1be2c89b69c2b068fc378daa952ba7f163c4a11628f55a4df523b3ef908290a45050565b61236a82612659565b6123cd5760405162461bcd60e51b815260206004820152602e60248201527f45524337323155524953746f726167653a2055524920736574206f66206e6f6e60448201526d32bc34b9ba32b73a103a37b5b2b760911b60648201526084016106b4565b60008281526006602052604090206123e582826131ee565b506040518281527ff8e1a15aba9398e019f0b49df1a4fde98ee17ae345cb5f6b5e2c27f5033e8ce79060200160405180910390a15050565b6000821161246d5760405162461bcd60e51b815260206004820152601c60248201527f5072696365206d7573742062652067726561746572207468616e20300000000060448201526064016106b4565b6040805160e081018252848152336020808301828152308486018181526060860189815260006080880181815260a0890182815260c08a018c81528e8452600c909852999091209751885593516001880180546001600160a01b039283166001600160a01b0319918216179091559251600289018054919092169316929092179091555160038601559051600485018054965115156101000261ff00199215159290921661ffff199097169690961717909455516005909201919091556125349185611e7f565b60408051338152306020820152908101839052600060608201819052608082015260a0810182905283907f670c95344b8444ea43755857108274f6858ca0429c6f00e44ada8ce0677eb1819060c00160405180910390a2505050565b606061259b82611d8e565b60006125b260408051602081019091526000815290565b905060008151116125d257604051806020016040528060008152506125fd565b806125dc84612777565b6040516020016125ed929190612ff8565b6040516020818303038152906040525b9392505050565b8054806126515760405162461bcd60e51b815260206004820152601b60248201527a436f756e7465723a2064656372656d656e74206f766572666c6f7760281b60448201526064016106b4565b600019019055565b60008061266583611fe3565b6001600160a01b0316141592915050565b60006001600160a01b0384163b1561276c57604051630a85bd0160e11b81526001600160a01b0385169063150b7a02906126ba9033908990889088906004016132ad565b6020604051808303816000875af19250505080156126f5575060408051601f3d908101601f191682019092526126f2918101906132ea565b60015b612752573d808015612723576040519150601f19603f3d011682016040523d82523d6000602084013e612728565b606091505b50805160000361274a5760405162461bcd60e51b81526004016106b4906130c4565b805181602001fd5b6001600160e01b031916630a85bd0160e11b149050611a20565b506001949350505050565b6060600061278483612809565b60010190506000816001600160401b038111156127a3576127a3612b5e565b6040519080825280601f01601f1916602001820160405280156127cd576020820181803683370190505b5090508181016020015b600019016f181899199a1a9b1b9c1cb0b131b232b360811b600a86061a8153600a85049450846127d757509392505050565b60008072184f03e93ff9f4daa797ed6e38ed64bf6a1f0160401b83106128485772184f03e93ff9f4daa797ed6e38ed64bf6a1f0160401b830492506040015b6904ee2d6d415b85acef8160201b8310612872576904ee2d6d415b85acef8160201b830492506020015b662386f26fc10000831061289057662386f26fc10000830492506010015b6305f5e10083106128a8576305f5e100830492506008015b61271083106128bc57612710830492506004015b606483106128ce576064830492506002015b600a83106105815760010192915050565b6040805160e081018252600080825260208201819052918101829052606081018290526080810182905260a0810182905260c081019190915290565b6001600160e01b0319811681146110f557600080fd5b60006020828403121561294357600080fd5b81356125fd8161291b565b60005b83811015612969578181015183820152602001612951565b50506000910152565b6000815180845261298a81602086016020860161294e565b601f01601f19169290920160200192915050565b6020815260006125fd6020830184612972565b6000602082840312156129c357600080fd5b5035919050565b6001600160a01b03811681146110f557600080fd5b600080604083850312156129f257600080fd5b82356129fd816129ca565b946020939093013593505050565b602080825282518282018190526000919060409081850190868401855b82811015612a9057815180518552868101516001600160a01b03908116888701528682015116868601526060808201519086015260808082015115159086015260a08082015115159086015260c0908101519085015260e09093019290850190600101612a28565b5091979650505050505050565b600080600060608486031215612ab257600080fd5b8335612abd816129ca565b92506020840135612acd816129ca565b929592945050506040919091013590565b600060208284031215612af057600080fd5b81356125fd816129ca565b60008060408385031215612b0e57600080fd5b823591506020830135612b20816129ca565b809150509250929050565b60008060408385031215612b3e57600080fd5b8235612b49816129ca565b915060208301358015158114612b2057600080fd5b634e487b7160e01b600052604160045260246000fd5b60006001600160401b0380841115612b8e57612b8e612b5e565b604051601f8501601f19908116603f01168101908282118183101715612bb657612bb6612b5e565b81604052809350858152868686011115612bcf57600080fd5b858560208301376000602087830101525050509392505050565b60008060008060808587031215612bff57600080fd5b8435612c0a816129ca565b93506020850135612c1a816129ca565b92506040850135915060608501356001600160401b03811115612c3c57600080fd5b8501601f81018713612c4d57600080fd5b612c5c87823560208401612b74565b91505092959194509250565b600080600060608486031215612c7d57600080fd5b83356001600160401b03811115612c9357600080fd5b8401601f81018613612ca457600080fd5b612cb386823560208401612b74565b9660208601359650604090950135949350505050565b60008060408385031215612cdc57600080fd5b8235612ce7816129ca565b91506020830135612b20816129ca565b600080600060608486031215612d0c57600080fd5b505081359360208301359350604090920135919050565b600181811c90821680612d3757607f821691505b602082108103612d5757634e487b7160e01b600052602260045260246000fd5b50919050565b634e487b7160e01b600052601160045260246000fd5b8082018082111561058157610581612d5d565b634e487b7160e01b600052603260045260246000fd5b6020808252602d908201527f4552433732313a2063616c6c6572206973206e6f7420746f6b656e206f776e6560408201526c1c881bdc88185c1c1c9bdd9959609a1b606082015260800190565b602080825260189082015277115490cdcc8c4e881a5b9d985b1a59081d1bdad95b88125160421b604082015260600190565b784d61726b6574706c6163652066656520666f72204e4654202360381b815260008251612e4f81601985016020870161294e565b9190910160190192915050565b60018060a01b0384168152826020820152606060408201526000612e836060830184612972565b95945050505050565b705061796d656e7420666f72204e4654202360781b815260008251612eb881601185016020870161294e565b642073616c6560d81b6011939091019283015250601601919050565b60208082526024908201527f5072696365206d75737420626520657175616c20746f206c697374696e6720706040820152637269636560e01b606082015260800190565b744c697374696e672066656520666f72204e4654202360581b815260008251612f4881601585016020870161294e565b9190910160150192915050565b60008060408385031215612f6857600080fd5b8251612f73816129ca565b6020939093015192949293505050565b6001600160a01b03929092168252602082015260400190565b784d61726b6574706c6163652066656520666f72204e4654202360381b815260008251612fd081601985016020870161294e565b70206f6666657220616363657074616e636560781b6019939091019283015250602a01919050565b6000835161300a81846020880161294e565b83519083019061301e81836020880161294e565b01949350505050565b7652656c697374696e672066656520666f72204e4654202360481b81526000825161305981601785016020870161294e565b9190910160170192915050565b60006001820161307857613078612d5d565b5060010190565b60208082526025908201527f4552433732313a207472616e736665722066726f6d20696e636f72726563742060408201526437bbb732b960d91b606082015260800190565b60208082526032908201527f4552433732313a207472616e7366657220746f206e6f6e20455243373231526560408201527131b2b4bb32b91034b6b83632b6b2b73a32b960711b606082015260800190565b634e487b7160e01b600052601260045260246000fd5b60008261313b5761313b613116565b500490565b8181038181111561058157610581612d5d565b60008261316257613162613116565b500690565b6020808252601c908201527f4552433732313a20746f6b656e20616c7265616479206d696e74656400000000604082015260600190565b601f821115610755576000816000526020600020601f850160051c810160208610156131c75750805b601f850160051c820191505b818110156131e6578281556001016131d3565b505050505050565b81516001600160401b0381111561320757613207612b5e565b61321b816132158454612d23565b8461319e565b602080601f83116001811461325057600084156132385750858301515b600019600386901b1c1916600185901b1785556131e6565b600085815260208120601f198616915b8281101561327f57888601518255948401946001909101908401613260565b508582101561329d5787850151600019600388901b60f8161c191681555b5050505050600190811b01905550565b6001600160a01b03858116825284166020820152604081018390526080606082018190526000906132e090830184612972565b9695505050505050565b6000602082840312156132fc57600080fd5b81516125fd8161291b56fea264697066735822122096cf07837fa186edae72a1edceefee1e25358c02f7c2baabea022222cdddda9964736f6c63430008180033",
  "linkReferences": {},
  "deployedLinkReferences": {}
}