{
  "_format": "hh-sol-artifact-1",
  "contractName": "NFTAuction",
  "sourceName": "contracts/NFTAuction.sol",
  "abi": [
    {
      "inputs": [
        {
          "internalType": "address",
          "name": "transferFundsAddress",
          "type": "address"
        }
      ],
      "stateMutability": "nonpayable",
      "type": "constructor"
    },
    {
      "anonymous": false,
      "inputs": [
        {
          "indexed": true,
          "internalType": "uint256",
          "name": "tokenId",
          "type": "uint256"
        },
        {
          "indexed": false,
          "internalType": "address",
          "name": "bidder",
          "type": "address"
        },
        {
          "indexed": false,
          "internalType": "uint256",
          "name": "price",
          "type": "uint256"
        }
      ],
      "name": "OfferAccepted",
      "type": "event"
    },
    {
      "anonymous": false,
      "inputs": [
        {
          "indexed": true,
          "internalType": "uint256",
          "name": "tokenId",
          "type": "uint256"
        },
        {
          "indexed": false,
          "internalType": "address",
          "name": "bidder",
          "type": "address"
        }
      ],
      "name": "OfferCanceled",
      "type": "event"
    },
    {
      "anonymous": false,
      "inputs": [
        {
          "indexed": true,
          "internalType": "uint256",
          "name": "tokenId",
          "type": "uint256"
        },
        {
          "indexed": false,
          "internalType": "address",
          "name": "bidder",
          "type": "address"
        },
        {
          "indexed": false,
          "internalType": "uint256",
          "name": "price",
          "type": "uint256"
        },
        {
          "indexed": false,
          "internalType": "uint256",
          "name": "timestamp",
          "type": "uint256"
        }
      ],
      "name": "OfferMade",
      "type": "event"
    },
    {
      "anonymous": false,
      "inputs": [
        {
          "indexed": true,
          "internalType": "uint256",
          "name": "tokenId",
          "type": "uint256"
        },
        {
          "indexed": false,
          "internalType": "uint256",
          "name": "count",
          "type": "uint256"
        }
      ],
      "name": "OffersExpired",
      "type": "event"
    },
    {
      "stateMutability": "payable",
      "type": "fallback"
    },
    {
      "inputs": [
        {
          "internalType": "uint256",
          "name": "tokenId",
          "type": "uint256"
        }
      ],
      "name": "acceptOffer",
      "outputs": [],
      "stateMutability": "nonpayable",
      "type": "function"
    },
    {
      "inputs": [
        {
          "internalType": "uint256",
          "name": "tokenId",
          "type": "uint256"
        }
      ],
      "name": "cancelAllOffers",
      "outputs": [],
      "stateMutability": "nonpayable",
      "type": "function"
    },
    {
      "inputs": [
        {
          "internalType": "uint256",
          "name": "tokenId",
          "type": "uint256"
        }
      ],
      "name": "getHighestBidder",
      "outputs": [
        {
          "internalType": "address",
          "name": "",
          "type": "address"
        },
        {
          "internalType": "uint256",
          "name": "",
          "type": "uint256"
        }
      ],
      "stateMutability": "view",
      "type": "function"
    },
    {
      "inputs": [
        {
          "internalType": "uint256",
          "name": "tokenId",
          "type": "uint256"
        }
      ],
      "name": "getOffers",
      "outputs": [
        {
          "components": [
            {
              "internalType": "address payable",
              "name": "bidder",
              "type": "address"
            },
            {
              "internalType": "uint256",
              "name": "price",
              "type": "uint256"
            },
            {
              "internalType": "uint256",
              "name": "timestamp",
              "type": "uint256"
            },
            {
              "internalType": "bool",
              "name": "active",
              "type": "bool"
            }
          ],
          "internalType": "struct NFTAuction.Offer[]",
          "name": "",
          "type": "tuple[]"
        }
      ],
      "stateMutability": "view",
      "type": "function"
    },
    {
      "inputs": [
        {
          "internalType": "address payable",
          "name": "seller",
          "type": "address"
        },
        {
          "internalType": "uint256",
          "name": "highestPrice",
          "type": "uint256"
        }
      ],
      "name": "handleFundTransfer",
      "outputs": [],
      "stateMutability": "nonpayable",
      "type": "function"
    },
    {
      "inputs": [
        {
          "internalType": "uint256",
          "name": "tokenId",
          "type": "uint256"
        },
        {
          "internalType": "uint256",
          "name": "price",
          "type": "uint256"
        },
        {
          "internalType": "uint256",
          "name": "timestamp",
          "type": "uint256"
        }
      ],
      "name": "makeOffer",
      "outputs": [],
      "stateMutability": "payable",
      "type": "function"
    },
    {
      "inputs": [
        {
          "internalType": "uint256",
          "name": "",
          "type": "uint256"
        },
        {
          "internalType": "uint256",
          "name": "",
          "type": "uint256"
        }
      ],
      "name": "tokenIdToOffers",
      "outputs": [
        {
          "internalType": "address payable",
          "name": "bidder",
          "type": "address"
        },
        {
          "internalType": "uint256",
          "name": "price",
          "type": "uint256"
        },
        {
          "internalType": "uint256",
          "name": "timestamp",
          "type": "uint256"
        },
        {
          "internalType": "bool",
          "name": "active",
          "type": "bool"
        }
      ],
      "stateMutability": "view",
      "type": "function"
    },
    {
      "inputs": [
        {
          "internalType": "uint256",
          "name": "tokenId",
          "type": "uint256"
        }
      ],
      "name": "unmakeOffer",
      "outputs": [],
      "stateMutability": "nonpayable",
      "type": "function"
    },
    {
      "stateMutability": "payable",
      "type": "receive"
    }
  ],
  "bytecode": "0x608060405234801561001057600080fd5b5060405161190638038061190683398101604081905261002f91610059565b6001600055600380546001600160a01b0319166001600160a01b0392909216919091179055610089565b60006020828403121561006b57600080fd5b81516001600160a01b038116811461008257600080fd5b9392505050565b61186e806100986000396000f3fe60806040526004361061006f5760003560e01c80635be910a11461019e5780636b50872b146101be5780637795960b1461020f578063c574f8241461022f578063c750cb791461024f578063c815729d1461027d578063dfa49e6f1461029d578063e210a72d146102ca5761011a565b3661011a5760035460405163ebff361b60e01b815230600482015234602482015260606044820152602760648201527f44697265637420455448207472616e7366657220746f2061756374696f6e20636084820152661bdb9d1c9858dd60ca1b60a48201526001600160a01b039091169063ebff361b9060c4015b600060405180830381600087803b15801561010457600080fd5b505af1158015610118573d6000803e3d6000fd5b005b60035460405163ebff361b60e01b815230600482015234602482015260606044820152603160648201527f46616c6c6261636b3a2044697265637420455448207472616e7366657220746f60848201527008185d58dd1a5bdb8818dbdb9d1c9858dd607a1b60a48201526001600160a01b039091169063ebff361b9060c4016100ea565b3480156101aa57600080fd5b506101186101b936600461147a565b6102dd565b3480156101ca57600080fd5b506101de6101d93660046114b2565b61042d565b604080516001600160a01b039095168552602085019390935291830152151560608201526080015b60405180910390f35b34801561021b57600080fd5b5061011861022a3660046114d4565b610480565b34801561023b57600080fd5b5061011861024a3660046114d4565b6106d0565b34801561025b57600080fd5b5061026f61026a3660046114d4565b6108be565b6040516102069291906114ed565b34801561028957600080fd5b506101186102983660046114d4565b61099f565b3480156102a957600080fd5b506102bd6102b83660046114d4565b610dd1565b6040516102069190611506565b6101186102d8366004611575565b610e73565b6102e5611039565b60035460408051735061796d656e7420666f72204e46542073616c6560601b602082015281516014818303018152603482019283905263ebff361b60e01b9092526001600160a01b039092169163ebff361b9161034891869186916038016115c5565b600060405180830381600087803b15801561036257600080fd5b505af1158015610376573d6000803e3d6000fd5b505050506000826001600160a01b03168260405160006040518083038185875af1925050503d80600081146103c7576040519150601f19603f3d011682016040523d82523d6000602084013e6103cc565b606091505b505090508061041e5760405162461bcd60e51b8152602060048201526019602482015278151c985b9cd9995c881d1bc81cd95b1b195c8819985a5b1959603a1b60448201526064015b60405180910390fd5b506104296001600055565b5050565b6001602052816000526040600020818154811061044957600080fd5b600091825260209091206004909102018054600182015460028301546003909301546001600160a01b039092169450925060ff1684565b610488611039565b600081815260016020526040812090805b8254811015610686578281815481106104b4576104b461160e565b600091825260209091206003600490920201015460ff161561067e5760008382815481106104e4576104e461160e565b600091825260209091206004909102016003908101805460ff1916921515929092179091555483546001600160a01b039091169063ebff361b908590849081106105305761053061160e565b600091825260209091206004909102015485546001600160a01b03909116908690859081106105615761056161160e565b90600052602060002090600402016001015461057c88611092565b60405160200161058c9190611624565b6040516020818303038152906040526040518463ffffffff1660e01b81526004016105b9939291906115c5565b600060405180830381600087803b1580156105d357600080fd5b505af11580156105e7573d6000803e3d6000fd5b505050508281815481106105fd576105fd61160e565b600091825260209091206004909102015483546001600160a01b03909116906108fc908590849081106106325761063261160e565b9060005260206000209060040201600101549081150290604051600060405180830381858888f1935050505015801561066f573d6000803e3d6000fd5b508161067a81611694565b9250505b600101610499565b50827fbef7792bfc8beaecc64e4fdedb074eec4c2d2bfcfe36c9b05085f8ac8359d9e0826040516106b991815260200190565b60405180910390a250506106cd6001600055565b50565b6106d8611039565b60008181526001602052604081209080805b83548110156108635760008482815481106107075761070761160e565b6000918252602090912060049091020180549091506001600160a01b0316331480156107375750600381015460ff165b1561085a576003808201805460ff191690556001820154905482549194506001600160a01b039081169163ebff361b9116856107728a611092565b60405160200161078291906116ad565b6040516020818303038152906040526040518463ffffffff1660e01b81526004016107af939291906115c5565b600060405180830381600087803b1580156107c957600080fd5b505af11580156107dd573d6000803e3d6000fd5b505082546040516001600160a01b03909116925085156108fc02915085906000818181858888f1935050505015801561081a573d6000803e3d6000fd5b5060405133815286907f9a4dfa8787b349e9b45b60504f991c5c9f9cda8dadabdc8e4a3f4cb8608220a39060200160405180910390a26001935050610863565b506001016106ea565b50816108b15760405162461bcd60e51b815260206004820181905260248201527f4e6f20616374697665206f6666657220666f756e6420666f722063616c6c65726044820152606401610415565b5050506106cd6001600055565b600081815260016020526040812081908180805b8354811015610994578381815481106108ed576108ed61160e565b600091825260209091206003600490920201015460ff16801561093257508284828154811061091e5761091e61160e565b906000526020600020906004020160010154115b1561098c578381815481106109495761094961160e565b906000526020600020906004020160010154925083818154811061096f5761096f61160e565b60009182526020909120600490910201546001600160a01b031691505b6001016108d2565b509590945092505050565b6109a7611039565b600081815260016020526040902080546109f95760405162461bcd60e51b81526020600482015260136024820152724e6f206f666665727320617661696c61626c6560681b6044820152606401610415565b610a028261119b565b60008060005b8354811015610a9f57838181548110610a2357610a2361160e565b600091825260209091206003600490920201015460ff168015610a68575081848281548110610a5457610a5461160e565b906000526020600020906004020160010154115b15610a9757838181548110610a7f57610a7f61160e565b90600052602060002090600402016001015491508092505b600101610a08565b506000838381548110610ab457610ab461160e565b60009182526020909120600490910201600381015490915060ff16610b195760405162461bcd60e51b815260206004820152601b60248201527a48696768657374206f66666572206973206e6f742061637469766560281b6044820152606401610415565b80546001600160a01b0316610b7c5760405162461bcd60e51b8152602060048201526024808201527f48696768657374206f6666657220626964646572206973207a65726f206164646044820152637265737360e01b6064820152608401610415565b60038101805460ff1916905560005b8454811015610d7757838114158015610bc95750848181548110610bb157610bb161160e565b600091825260209091206003600490920201015460ff165b15610d6f576000858281548110610be257610be261160e565b600091825260209091206004909102016003908101805460ff1916921515929092179091555485546001600160a01b039091169063ebff361b90879084908110610c2e57610c2e61160e565b600091825260209091206004909102015487546001600160a01b0390911690889085908110610c5f57610c5f61160e565b906000526020600020906004020160010154610c7a8a611092565b604051602001610c8a91906116ee565b6040516020818303038152906040526040518463ffffffff1660e01b8152600401610cb7939291906115c5565b600060405180830381600087803b158015610cd157600080fd5b505af1158015610ce5573d6000803e3d6000fd5b50505050848181548110610cfb57610cfb61160e565b600091825260209091206004909102015485546001600160a01b03909116906108fc90879084908110610d3057610d3061160e565b9060005260206000209060040201600101549081150290604051600060405180830381858888f19350505050158015610d6d573d6000803e3d6000fd5b505b600101610b8b565b508054600182015460405187927fea555ab99331ceac5051c58f17cc7b411b30241b0e28cb93a7d3a24c77a7a9a992610dbb926001600160a01b03909216916114ed565b60405180910390a2505050506106cd6001600055565b606060016000838152602001908152602001600020805480602002602001604051908101604052809291908181526020016000905b82821015610e68576000848152602090819020604080516080810182526004860290920180546001600160a01b03168352600180820154848601526002820154928401929092526003015460ff16151560608301529083529092019101610e06565b505050509050919050565b610e7b611039565b813414610ed85760405162461bcd60e51b815260206004820152602560248201527f45746865722073656e74206d75737420657175616c20746865206f6666657220604482015264707269636560d81b6064820152608401610415565b610ee18361119b565b60408051608081018252338152602080820185815282840185815260016060850181815260008a81528286529687208054808401825590885294909620855160049095020180546001600160a01b0319166001600160a01b0395861617815592519083015551600282015592516003938401805460ff1916911515919091179055915490911663ebff361b3085610f7788611092565b604051602001610f87919061172e565b6040516020818303038152906040526040518463ffffffff1660e01b8152600401610fb4939291906115c5565b600060405180830381600087803b158015610fce57600080fd5b505af1158015610fe2573d6000803e3d6000fd5b505060408051338152602081018790529081018590528692507fd7df0c72641d362ea57ecc9cab99c77f936e36bb826f096258c3404196b26d6a915060600160405180910390a2506110346001600055565b505050565b60026000540361108b5760405162461bcd60e51b815260206004820152601f60248201527f5265656e7472616e637947756172643a207265656e7472616e742063616c6c006044820152606401610415565b6002600055565b6060816000036110b95750506040805180820190915260018152600360fc1b602082015290565b8160005b81156110e357806110cd81611694565b91506110dc9050600a83611780565b91506110bd565b60008167ffffffffffffffff8111156110fe576110fe611794565b6040519080825280601f01601f191660200182016040528015611128576020820181803683370190505b5090505b84156111935761113d6001836117aa565b915061114a600a866117bd565b6111559060306117d1565b60f81b81838151811061116a5761116a61160e565b60200101906001600160f81b031916908160001a90535061118c600a86611780565b945061112c565b949350505050565b6000818152600160205260408120904290805b8354811015611411578381815481106111c9576111c961160e565b600091825260209091206003600490920201015460ff168015611256575061125361122160028684815481106112015761120161160e565b90600052602060002090600402016002015461145990919063ffffffff16565b8583815481106112335761123361160e565b90600052602060002090600402016002015461146e90919063ffffffff16565b83115b1561140957600084828154811061126f5761126f61160e565b600091825260209091206004909102016003908101805460ff1916921515929092179091555484546001600160a01b039091169063ebff361b908690849081106112bb576112bb61160e565b600091825260209091206004909102015486546001600160a01b03909116908790859081106112ec576112ec61160e565b90600052602060002090600402016001015461130789611092565b60405160200161131791906117e4565b6040516020818303038152906040526040518463ffffffff1660e01b8152600401611344939291906115c5565b600060405180830381600087803b15801561135e57600080fd5b505af1158015611372573d6000803e3d6000fd5b505050508381815481106113885761138861160e565b600091825260209091206004909102015484546001600160a01b03909116906108fc908690849081106113bd576113bd61160e565b9060005260206000209060040201600101549081150290604051600060405180830381858888f193505050501580156113fa573d6000803e3d6000fd5b508161140581611694565b9250505b6001016111ae565b50801561145357837fbef7792bfc8beaecc64e4fdedb074eec4c2d2bfcfe36c9b05085f8ac8359d9e08260405161144a91815260200190565b60405180910390a25b50505050565b60006114658284611780565b90505b92915050565b600061146582846117d1565b6000806040838503121561148d57600080fd5b82356001600160a01b03811681146114a457600080fd5b946020939093013593505050565b600080604083850312156114c557600080fd5b50508035926020909101359150565b6000602082840312156114e657600080fd5b5035919050565b6001600160a01b03929092168252602082015260400190565b602080825282518282018190526000919060409081850190868401855b8281101561156857815180516001600160a01b031685528681015187860152858101518686015260609081015115159085015260809093019290850190600101611523565b5091979650505050505050565b60008060006060848603121561158a57600080fd5b505081359360208301359350604090920135919050565b60005b838110156115bc5781810151838201526020016115a4565b50506000910152565b60018060a01b038416815282602082015260606040820152600082518060608401526115f88160808501602087016115a1565b601f01601f191691909101608001949350505050565b634e487b7160e01b600052603260045260246000fd5b7f4f6666657220726566756e6465642064756520746f2063616e63656c6c61746981526b6f6e20666f72204e4654202360a01b60208201526000825161167181602c8501602087016115a1565b91909101602c0192915050565b634e487b7160e01b600052601160045260246000fd5b6000600182016116a6576116a661167e565b5060010190565b784f666665722063616e63656c6c656420666f72204e4654202360381b8152600082516116e18160198501602087016115a1565b9190910160190192915050565b774f6666657220726566756e64656420666f72204e4654202360401b8152600082516117218160188501602087016115a1565b9190910160180192915050565b734f66666572206d61646520666f72204e4654202360601b81526000825161175d8160148501602087016115a1565b9190910160140192915050565b634e487b7160e01b600052601260045260246000fd5b60008261178f5761178f61176a565b500490565b634e487b7160e01b600052604160045260246000fd5b818103818111156114685761146861167e565b6000826117cc576117cc61176a565b500690565b808201808211156114685761146861167e565b7f4f6666657220726566756e6465642064756520746f2065787069727920666f72815265204e4654202360d01b60208201526000825161182b8160268501602087016115a1565b919091016026019291505056fea264697066735822122085b24755934ec5ead93a4eb44c09154a857e520461b1cfbd4c54df1e6efe0b4a64736f6c63430008180033",
  "linkReferences": {},
  "deployedLinkReferences": {}
}